:020000020000FC
:100000000C9448000C9467020C9467020C94FD0158
:10001000010090D900000000554120698DCCA4FA60
:1000200019C21BC21DC21FC20EC1FCC00CC60DC628
:100030001FC21CC224C2D2C3D7C35CC45FC4E8C3FE
:10004000F2C3F9C38CC465C473C4DCC3D1C3D5C3C4
:1000500005C533C227C22CC275C37AC385C386C304
:100060008EC39AC3B1C3B5C3C0C423C12AC1B7C428
:10007000EAC3F4C3D0C310C519C52BC5E1C6E4C695
:10008000E6C6E8C6EDC6FBC60BC7E1C1DEC00EC1C1
:10009000F8942224E7E2F9E6EDBFFEBFE8EDF7E0D1
:1000A000E4BFF0930001A895E8EDF4E2E4BFF0931B
:1000B0006800E0914000E0934000EFBBE8EDE4BF52
:1000C000209201102BBEE8EDF0E6E4BFF0931001A2
:1000D000E0914101E211FCCF2092480120924901B8
:1000E000E1E0E0934001E0EFE093E205E3E0E0933C
:1000F000E305ECE0E093E405E0E0E093E505E0E013
:10010000E093E605E0E0E093E705E0E0E093E80552
:10011000E8E0E0933704E0933704E0933704E0939A
:100120003704E0E4F8E02682A0ECB0E0A087B187D5
:10013000A0E8A583A3E0A783A2ECA683279827982D
:100140002F9A2F9A279A279AF89BFB997AD068D0F2
:100150006998E0E8E0931004089A009AA0E8A09358
:100160007004A0935704609A479A279A279A209A76
:10017000219A229A239A279A279A279A279AF89BB4
:1001800006C0E0E0F0E6AFEFA193F836E8F3E0EC6C
:10019000F8E6FB99E0E4FB99F8E6F899E0E0F899D5
:1001A000F8E62192F038E8F3E0914801F091490136
:1001B000F230D0F3E2E036D042D0C3D2C2E040D534
:1001C000E0910090EF3F11F0E8D419F086D4E5D427
:1001D00009F490C1E1E071C1E0E0FAE020822182FF
:1001E00022822382AFE0A083E0E0FBE02082218234
:1001F000AEE6B1E0A487B587A1E0A583A5E0A08322
:10020000EAD2EFD2789408D01AD0C2E610D58FB3D4
:100210009927E0E017D273C0E0E004C0EFEF02C01E
:10022000EBE000C0E0FD689AE0FF6898E1FD4F9ABE
:10023000E1FF4F98E3FF619AE3FD61980895E0E0E4
:1002400002C0E0E000C0F0E000C0F0FF04C0E0FD4C
:100250002F9AE0FF2F98F1FF04C0E1FD2F9AE1FFF4
:100260002F98F2FF04C0E2FD289AE2FF2898F3FFDE
:1002700004C0E3FD299AE3FF2998F4FF04C0E4FDDC
:100280002A9AE4FF2A98F5FF04C0E5FD2B9AE5FFC2
:100290002B98F6FF04C0E6FD2F9AE6FF2F98F7FF94
:1002A00004C0E7FD2F9AE7FF2F980895E0E0FFEFE5
:1002B000CCCFF894E8EDF1E0E0933400F093410006
:1002C000FFCFF894A895E8EDE4BFE1E0E0930001EA
:1002D000FFCFCDD316D39681C1D30C92BED3CCC35E
:1002E000C6D3BBD39781BAD30CD309901C9001100D
:1002F0000C9211960197C9F7B0D3BED30895E7E2E7
:10030000F9E6EDBFFEBF222734E0EAE29BD1C091BF
:10031000006996D43CD1203491F324FD10C026FF0F
:10032000F9CFEEEBF3E0059000160590159019F467
:10033000F0010995E4CFEA3FB1F720FFEBCF00349D
:1003400049F7622F6370613029F720620DD17A3B43
:1003500021F46939A1F62061DDCF24FFD0CF7B3BAA
:1003600039F4693060F6C62F6BD4246031E0D2CF07
:100370007C3B21F422FFC3CF98D1CCCF7F3B51F6F9
:10038000603011F40AD0BBCF613009F40AD0B7CF86
:1003900068E08BC1C02F4BD4B2CF87D3E0EE52D1EF
:1003A000AECF9BD3EEEE4ED1AACF0053E1E00A953B
:1003B00012F0EE0FFCCFFEB3FE27FEBB089530D542
:1003C0000131D50132D50133D50134D50135D501FF
:1003D00036D50137D50153700252570264C8016106
:1003E000CA0162CA0163CA0165CA0166CA0173CA49
:1003F0000175CA016CCA01007F01EFB64F01E0919F
:100400004408E7FF13C0E72DE619E03C23FF08F09E
:100410002F9AE0914108E2FD82C0F0E7E72D70904D
:10042000400871927E2EF401EFBE1895E091060B04
:10043000E093060B761411F442104A943A9422F495
:10044000332EE1E0E0936704F401EFBE1895E0E09D
:10045000F0E00895EDE0F0E00895E0E9F9ED0895A9
:10046000E1E0F0E00895E0E9F9ED089503D0EDC38F
:1004700001D0E9C3AFE0B0E0C0E1D1E10895F8DF19
:10048000A193B193C193D193F1DFA193B193C193A0
:10049000D1930895DFEF672C94D06710FBCF21979D
:1004A000D9F7089517D048F00895EBE001C0EAE0CD
:1004B000CADE2092480120924901A895F8942F980D
:1004C000F0E208D0E8F7BFDEF0E404D0E8F7A4DEFD
:1004D000B6DEEFCE0090480100904901F015089576
:1004E000C0910069ADD359D3C9F4CF3911F0CB39DC
:1004F000A9F4D0DF209245082092000A2092000B38
:100500002092050B209248012092490193D1FE01CF
:10051000E050F048F695E795F8940994FBCEF894EE
:10052000209246082F98E8E07DDEE5E58CDEEFEFCF
:10053000A89500C000C000C0E211EA95379BF8CF33
:10054000E211F5CFC4CF8E2F99277DDEE8E06ADE79
:10055000E6EA78D0F0910D00E2E0F0FDEAE062DE3C
:1005600032E0672C2ED0F6CF04D0702F02D0602F4F
:10057000089507D002950F9304D00F900029F00E34
:10058000089505D00F7D075308F4095D089519D02B
:10059000421002C025FDB3CE7614C9F3F0E7E62D74
:1005A00000816394206442102F7B26FD2F7EFBE0A8
:1005B0004F2E21FF23950A3011F00D3009F42C7FC6
:1005C00000C00F01A89523FD06C0E72DE619E03213
:1005D00018F42F9801C02F9AF0010895019101D0CD
:1005E00003C00F93029501C00F930F70005D0A3393
:1005F00008F0095F1BD00F910895092FF0DF082F35
:10060000EECF0AE013D00DE011C0E0E0F1E1E6DF4B
:10061000E5DFE4DF0EE20AD029DFCE01EEDFCD0117
:10062000ECDF26DFCE01E9DFCD01E7CFD8E1C9DF7E
:100630000090440805FEFBCF21973799C1F700933E
:1006400042080895E0930169FDE0E0910169059198
:100650000DBBE0930169002391F012F0E7DFF4CFC6
:10066000E9990ED0EA9911D0EB991AD0EC99CDDF27
:10067000EE9913D0ED99B4D2E899C3DFE5CF089590
:10068000C591E0930169DCD292C20090006910909C
:1006900031690AE210100895C9CF09E0C7DF89C2A5
:1006A000EC9BABCFEC980EB39ACF6CBBE099BCD26D
:1006B000E19907D0E3999CD2E6991CCFE799F5CE52
:1006C000089517D1B7D0C0930269D09303695FDF53
:1006D00020FFFDCF0A33D9F74CDF502EF02E44DF38
:1006E000C0910269D0910369C60FD71F42DF003065
:1006F00031F00130F1F0023069F0E4E024CFFDD0B8
:1007000008945208A0F02AD1E5E0C8F032DF802F2B
:100710000ED1F6CF29DF660F771F660F771F660FA2
:10072000771F660F771F609302697093036903D088
:10073000CECF5AD100C01DDFF21411F0E6E003CF96
:100740000895BBD0C6EAD3E049D04EC0A89508951D
:10075000C487D5870895C93008F0C9E0DCE0CD9F93
:10076000E001CE5DD4470895F6DFADC0C083D183EC
:10077000C48BD58BCA0FDB1FC283D3830895A68F8A
:10078000A895C28FD38FD5D020F0C28DD38D21975D
:10079000B9F70895AA27BB27C48FD58FEC8FFD8F9B
:1007A000A895A28FB38FC48DD58DFE01B2D048F02D
:1007B000C48DD58DFE01BCD020F0A28DB38D1197D4
:1007C00079F708958FEF79D0868FA895B2D0E8F7A2
:1007D0000CC1FADF76CD71D0C1E4D5E0C68BD78BE2
:1007E00008956BD0CAE4D5E0C08FD18F089565D04D
:1007F00081D00ED018D027C260D07CD009D013D0C1
:1008000024C25BD0F5DF02841384C015D10508959E
:10081000C489D5890895C489D58900801180C019FB
:10082000D10908954AD0A281B38104881588A019FE
:10083000B109089542D0C081D18108953ED0C281CE
:10084000D38108953AD000801180C281D381C0192C
:10085000D10909F021960024021C08957CDFFE01D5
:1008600000801180C281D381F2CF0C2ECEE2DBE872
:100870001884101419F02C96CE38D1F70895DCE0C6
:10088000CD9FE001CE5DD4470895CE01CEE2DBE8F6
:10089000088019808015910530F00A801B80801532
:1008A000910531F028F02C96CE3891F708940895F0
:1008B00088940895A0E0B1E70895E8E2F9E6089584
:1008C000FCDFA487B5878CE0099001928A95E1F757
:1008D0003C97C481D5812197C095D095C28BD38B8D
:1008E000C081D181C687D787C08BD18B278E02D09C
:1008F0007EC0E3DFC081D18101C0DFDFC48BD58B37
:10090000089584819581A685B785C485D585089588
:10091000D4DF25D038F0C489D58950D020F0899112
:10092000C48BD58B089521968FEF0894F9CFC5DF3E
:10093000868F15D090F053D0C481D5812197A4899A
:10094000B589CA23DB231196A48BB58BA485B58505
:10095000CA0FDB1F868D888388940895AEDF0488D4
:100960001080011405881180010440F00488128071
:10097000011405881380010419F010F008940895FB
:10098000889408959ADFC489D589A685B785CA1742
:10099000DB0730F0A089B189CA17DB0719F010F026
:1009A000089408958894089588DFC685D78506D071
:1009B000A78DAE7F08F4A160A78F0895C034B0E181
:1009C000DB0748F0D63148F0D03628F0D03828F090
:1009D000D03908F002C00894089588940895D3DFB0
:1009E00010F403D004D0089568DF2BD026C0C4894A
:1009F000D58902881388C021D121C687D7878481F1
:100A00009581C80FD91F2197C08BD18BCEDF40F0C5
:100A1000A685B785C485D5850D9009920197E1F724
:100A20000895078C00FC07C06CDF09901D9001142D
:100A300019F40197D1F718940895F3DF09F050CC19
:100A40000895078C00FC08955CDF09901D9010202C
:100A500001103FCC0197C9F7089590E080910210F2
:100A60008370E1F78DE984BF9093001008950688A4
:100A70000F9207880F920895008C0F92018C0F92AD
:100A8000089528602F9AFF93F4E69BDDFA95E9F725
:100A9000FF910895277F95CDC2E066DE80E18093C7
:100AA0000110B0DE20920110089507DFEF01DFDFB3
:100AB0002DD069F09BE0D2DFE895CFDF92E0CEDF6A
:100AC00000801180E8953296F03AD1F7C6DFFE013A
:100AD000D3CFC2E049DE02D0F4CBEFDEFF93EF9339
:100AE000C6DFDADF81F412D071F094919F3F59F0A4
:100AF0009BE0B4DF0082B1DF92E0B0DF04900192AE
:100B0000F03AE1F7AADFEF91FF91B6CFE0E0F0E92C
:100B100094918191891711F4F03AD1F7E0E0F0E96E
:100B200008950000FFFF010000002D00000000A05C
:100B3000FFFF0002080266019FD90090FF9F00029C
:100B4000080262029BD90014FF1501001812650308
:100B50009ED980109F102000080263049CD90011C8
:100B60001F11010000007305000050105810010013
:100B70000000750600000060FF67000200006107CA
:100B80009AD940104F10010000006C0800000011BD
:100B90000011010000002D09000033DEA09304695C
:100BA000B0930569C0930669D09307690895F5DF8E
:100BB00006C0E0E1E0930110F0DF20920110E0EDCB
:100BC00009F4E6ED0ED0909107698091066915DD74
:100BD000909105698091046910DD02C0E0ED01C0CB
:100BE000ECEDFDE00591002311F020DDFBCF089531
:100BF00008DD7FDEF3DF61DE8489958900E1080F7F
:100C0000090FF02EE2E91EDD83DE38F0082FF00E2A
:100C1000E6DC53DE04890F70B9F7E0DFF1940F2DA5
:100C2000DEDC9CDE40F7089564DECCDDDDCE05D051
:100C30000091316900930069089517DE3BDE40CED4
:100C40001EDE38DE3DCEE89404C06894CA0FDB1F78
:100C500000C0EF93FF936FEF7FEFCB01FF27A895C5
:100C60000EF019900EF41A9008941794062E0F1E89
:100C7000969587957795679500FE08C0EDEE9E27BF
:100C8000E8EB8E27E3E87E27E0E26E27169471F703
:100C9000119728F790958095709560950E01DB016E
:100CA000EC018623872389238095FF91EF91089596
:100D0000A1811B5B34316D2E2E2E5B524553455411
:100D10002D885DA11B5B34346D2E2E2E5B524F4D02
:100D20002E4439392E6C65645D00A1814944205BF5
:100D3000905D814C3A208708523A201B5B33326D1C
:100D40004439395230303031A1533A208705553A71
:100D500020870681413A208707423A20C702433A5A
:100D6000208704453A208703463A20870181524F65
:100D70004D205B987C527C537C645D202D205B6110
:100D80007C627C637C657C667C6C7C737C755D3E80
:100D90002000813A31301B5B39346DA81B5B393040
:100DA0006D3030A0000081811B5B34356D2E2E2EFE
:100DB0005B4572726F722023885DA0202D203C62FB
:100DC0007265616B3E20746F20726573756D65008E
:100DD0001B5B39306D001B5B33326D001B5B6D009C
:100DE000A1811B5B34346D5B532D3E5D0000A181FE
:100DF0001B5B34346D5B3C2D525D0000FFFFFFFF39
:100E0000ACAAA9A5A3A69C9A999593968E8D8BB111
:100E1000B2B4B874726C6A696563665C5A595553AA
:100E2000564E4D4B4771E8E4E2D1C9C5D8D4D2CA79
:100E3000C6CC78171B1D1E2E363A272B2D3539337D
:100E40001ED00ED01CD00CC00BD019D009C017D0AA
:100E500007D015C005D0E991EF73E081ED930895B7
:100E6000E991EF70F881FF0FEE1FFF0FEE1FFEE814
:100E7000E081ED93E991EF73E081ED930895FEE851
:100E8000E881E695E695E081ED93E991E370E295DE
:100E9000F881F07FF295EF2BFEE8E081ED93089565
:100EA000FEE8E881E081ED930895FFFFFFFFFFFF7B
:100F0000005EBCE2613FDD83C29C7E20A3FD1F41E9
:100F10009DC3217FFCA2401E5F01E3BD3E6082DCD9
:100F2000237D9FC1421CFEA0E1BF5D0380DE3C62C9
:100F3000BEE0025CDF81633D7C22C09E1D43A1FFB9
:100F40004618FAA427799BC584DA3866E5BB5907A9
:100F5000DB856739BAE406581947A5FB7826C49A99
:100F6000653BD987045AB8E6A7F91B45C6987A2489
:100F7000F8A6441A99C7257B3A6486D85B05E7B979
:100F80008CD2306EEDB3510F4E10F2AC2F7193CD69
:100F9000114FADF3702ECC92D38D6F31B2EC0E5059
:100FA000AFF1134DCE90722C6D33D18F0C52B0EE49
:100FB000326C8ED0530DEFB1F0AE4C1291CF2D7339
:100FC000CA947628ABF517490856B4EA6937D58B29
:100FD0005709EBB536688AD495CB2977F4AA481619
:100FE000E9B7550B88D6346A2B7597C94A14F6A809
:100FF000742AC896154BA9F7B6E80A54D7896B35F9
:1010000087C0FFCFFFC7FFCFFFC7FFCFFFC7FFCF0F
:10101000FFC7FFCFFFC7FFCFFFC7FFCFFFC7FFCF80
:10102000FFC7FFCFFFC7FFCFFFC7FFCFFFC7FFCF70
:10103000FFC7FFCFFFC7FFCFFFC7FFCFFFC7FFCF60
:10104000FFC7FFCFFFC7FFCFFFC7FFCFFFC7FFCF50
:10105000FFC7FFCFFFC7FFCFFFC7FFCFFFC7FFCF40
:10106000FFC7FFCFFFC7FFCFFFC7FFCFFFC7FFCF30
:10107000FFC7FFCFFFC7FFCFFFC7FFCFFFC7FFCF20
:10108000FFC7FFCFFFC7FFCFFFC7FFCFFFC7FFCF10
:10109000FFC7FFCFFFC7FFCFFFC7FFCFFFC7FFCF00
:1010A000FFC7FFCFFFC7FFCFFFC7FFCFFFC7FFCFF0
:1010B000FFC7FFCFFFC7FFCFFFC7FFCFFFC7FFCFE0
:1010C000FFC7FFCFFFC7FFCFFFC7FFCFFFC7FFCFD0
:1010D000FFC7FFCFFFC7FFCFFFC7FFCFFFC7FFCFC0
:1010E000FFC7FFCFFFC7FFCFFFC7FFCFFFC7FFCFB0
:1010F000FFC7FFCFFFC7FFCFFFC7FFCFFFC7FFCFA0
:1011000001009BD90100000055412069610A352D7D
:10111000A895F8942224E8EDE4BF20921001E8EDB0
:10112000F1E0E4BFF0936200EFE1F9E6EDBFFEBF4E
:10113000E0E0F9E6C0E0DAE021922197E9F7CAD4CD
:1011400009F0CDD4D9D409F0DCD4EFB3E093026830
:10115000E0910468E395F999E0930468E0910368ED
:10116000E395FB99E0930368E0910068F0910168D2
:101170003196E0930068F0930168A7D4489A409AAA
:10118000E0E2F8E02682A0E8B1E0A087B1872582FE
:10119000A3E0A783A0E4A683E0E0F8E0A0E4B0E049
:1011A000A087B187A0E0A583A3E0A783A2E4A683DC
:1011B000A0E8A0931004089A009AE0E0F8E0B0E8F4
:1011C000A481A5FFFDCFAFEEA283BA95C9F7A9E030
:1011D000A093000A2092200A2092210AAFEFA09348
:1011E0000C0BA0930D0BA1E0A093000B2092010B20
:1011F000209274042092760464986698C9D4C8D466
:1012000024D4C6D4E0917F68E21175C0E0915068A3
:10121000E2110CC370C00C9410000C9411000C94DB
:1012200012000C9413000C9414000C9415000C94F0
:1012300016000C9417000C9418000C9419000C94D0
:101240001A000C941B000C941C000C941D000C94B0
:101250001E000C941F000C9420000C9421000C9490
:1012600022000C9423000C9424000C9425000C9470
:1012700026000C9427000C9428000C9429000C9450
:101280002A000C942B000C942C000C942D000C9430
:101290002E000C942F000C9430000C9431000C9410
:1012A00032000C9433000C9434000C9435000C94F0
:1012B00036000C9437000C9438000C9439000C94D0
:1012C0003A000C943B000C943C000C943D000C94B0
:1012D0003E000C943F000C9440000C9441000C9490
:1012E00042000C9443000C9444000C9445000C9470
:1012F00046000C944700C0E4D8E68DDFF993E993EB
:101300008CDFF993E99397DFE4E4F8E6D193C19396
:10131000B193A193A0914768AF77A16020925069E3
:10132000A093516915D3A0910091B0910191B88318
:10133000A983AFEFBFEFE09102A1EF3941F4E09153
:1013400003A1E93D21F4A09100A1B09101A1BA83CC
:10135000AB832C8203D3288229822A822B822C827F
:1013600000D3E0E0F1E9A081B181B883A9839BB704
:1013700081E08BBFA081B1819BBFBA83AB832C82FC
:10138000E8EEF3E0E0932369F09324690091FE1501
:101390004427E0914468E093256921E09DC1909144
:1013A000366980E0FA81943081F08B81953069F064
:1013B00031FD7BC18D81983009F07BC1EA81E093DA
:1013C0002068EB81E0932168FC81F09322682092F1
:1013D0002369209224695DD123E083C2F6D18E81F6
:1013E00080934A688F8180934B6888858093486892
:1013F0008985809349688A854CD127E076C2EAD1F5
:1014000027E07FC2E7D1909136699D3080E090E07F
:1014100011F09B858C8590934E6880934F688885EA
:1014200080934C68898580934D688A8582FD04D2BB
:1014300083708093506828E071D280915068821147
:10144000EED14AC190913669953011F0983011F47F
:10145000EA8116C0973011F09A3019F4C0D1EC81AE
:101460000FC0993011F09C3019F4AFD1EE8108C053
:101470009B3011F09E3019F4ADD1E88501C019C13F
:10148000EC3080F4F0E0EA5BF54F0994D3C0D3C0B0
:10149000D4C0D4C0D3C0D2C0D5C0D5C0DBC0E1C099
:1014A000E9C0EEC019C19BD18C818093A46B3885B3
:1014B0004985823011F430FD0FC128E1E19A30FDF9
:1014C00031D230FF32D2C7E0E4E8FBE6E0DEC09183
:1014D000A46BE1D1DCDEDAD08E819F81D5D1EDEE37
:1014E000DE2EE8EBCE2EE3E8BE2EE0E2AE2EEFEFEE
:1014F0009E2E8E2E7E2E6E2EB4D1EEC070D10C801C
:1015000009140D8008040E8007040F80060428E2E9
:1015100011F428E4A6D1D3C162D128E7ADD1D6C158
:101520005ED128E5D3C15BD128E03E7F4427C7C107
:1015300056D1B1D190913669963019F08C8130FD39
:10154000AEDE30FDB0DEC8C030FDADC09091366972
:10155000933009F405C0953011F441D101C0A9C000
:101560009AD17FDE8093486911D07BDE80934969F0
:101570000DD077DE80934A6909D073DE80934B6982
:1015800005D09295909590934C69F8C1991F90FD64
:1015900008950894879582D18695E9F7089530FFDC
:1015A00082C090913669933009F420C0953011F4CF
:1015B00016D11CC09B3011F4229606C09D3019F440
:1015C0000ED1249601C075C078E0699108946795A2
:1015D00065D16695E9F77A95C1F7A8E0B0E028975C
:1015E000E4E8FBE656DEA8E0B0E01BC0CFD081F413
:1015F00078F0A0E0B2E760E8C9D011F4E8F748F06D
:101600008FB74CD18FBF6795B8F76D93A13898F31A
:1016100063C0A050B247C0E0D2E7E4E8FBE639DEA1
:1016200000C0C4E8DBE637D130FD37DE30FD41DEF7
:1016300053C052C05FC15DD13ACE5CC15AD1EFD028
:1016400002E04AC05BC19E3009F046C056D123D1AA
:101650003CDE42C09E3009F03FC04FD11CD133DE8A
:101660003BC047D1C1E001D2CF3919F4D93D09F4CB
:10167000C8D41DCE3ED1C1E00ED109DE8FEF11CE10
:1016800038D1C3E008D103DE8FEF0BCEC6E2D9E636
:10169000089590910A0B982392111EC0089584E436
:1016A0000CC082E50AC08DE408C083E406C085E46E
:1016B00004C08CE402C084E500C06AD20DC0C091B1
:1016C0002369D0912469219738F0C0932369D0937E
:1016D000246911F4B1D0B3CFEFE1F9E6EDBFFEBF5D
:1016E00057D256D2AFD02CBA6AE050D01130A1F701
:1016F0006A95D9F74BD081F7E8F3913808F4309424
:10170000C5DF7727EE2761E041D0A9F6661FE0F735
:1017100069937627C63368F639D069F620F0E62754
:10172000FFE8E081F0CF7211C2CFE09337693D7FCF
:10173000E2113260C652C0933669A8DFE881ED3FFE
:1017400069F000FD7CCFF981EF2BEA81EF2B29F4C2
:10175000E0913669E33009F472CFB1CF6981603F1F
:1017600008F4BACF6F70E4ECF9E9660F660FE60F84
:10177000F21D0190022209F496CF019000FE02C0F2
:1017800031FD93CF01901080F0010994A8951127A5
:101790000EB0032404FEFCCF9091200A2092200A70
:1017A0002092210A0EB0032404FCFCCF8091200A71
:1017B0002092200A2092210A8D31111F813810FDBC
:1017C0008F30111F012E06940895E0E4F8E684E0BE
:1017D0001DD00CC0E4E4F8E686E018D007C00FD0B6
:1017E00029F00AD019F005D009F00CD0821174CF7D
:1017F0000895EAE4F8E609C0E8E4F8E606C0ECE497
:10180000F8E603C0EEE4F8E600C082E0DE011296DE
:1018100001901D90011411F48A95D1F70895C1E04B
:1018200024D1CF3911F4D93D09F00895B1D1E09117
:1018300005A1E0FD01D0E4C3E8EDE4BFE5E8E093F5
:1018400001100895F0E44211F0E1E0914801E091C7
:101850004901EF23E21103C000C077D18AC179D1D9
:101860008EC117D00E0112DF6A8A7B8A8C8A9D8A0C
:101870000F8A188E298E089509DF6A887B888C88E4
:101880009D888F89988D00C006D0E7DCC80FD91FCE
:10189000DECC01D014CDE4E6FBE6089530F096945A
:1018A00087947794679430F009C0969487947794DE
:1018B000679420F09D248C247B246A24089554D0BE
:1018C000988289827A826B822C8259C0E2DFDE01A3
:1018D0008091A46B49D088832982BA83AB832C8200
:1018E0004EC0E0E4F8E692E045C0E4E4F8E690E0BB
:1018F00041C0E19A33D024D042C0E19A32D020D006
:101900003EC029D03CC0E19A32D0ED01ECE3E8833F
:10191000E983EA83EB83EC83ED8334C0E19A18D04A
:101920000FD02DC0C4E0DAE92AC0C091A46BC5DC99
:10193000DE011AD00882B983AA832B822C821FC0B1
:10194000E0910110E470FC81FB7FFE2BFC83089585
:10195000C5E5D9E60895C0E5D9E60895CAE5D9E612
:101960000895CFE5D9E60895C8E4D9E60895A0E43E
:10197000B9E60895F9DF84E05AD09883F5DFF7DF00
:10198000AADC00C097E712D09DEA10D0F0DF86E015
:101990009091240895FFFCCF9D91909322088A9501
:1019A000B9F78AE2F5D0E19B97CE08950090200A1E
:1019B0000916E0F32092200A2092210A749B76995E
:1019C00070CE08950100CF090201EE090401FF095C
:1019D0000401020A0000190B0000190B0000190B8A
:1019E000FF01220A0801530A70017E0A20018C0AB5
:1019F0004001900A1001930A1001980A1000A40AED
:101A00001000CF0A02003214FFFFF89468D0F89457
:101A100078D00C945509F89458D069D00C94550995
:101A20000E94A90DF894A895FFCF0C945709019036
:101A300009928A95E1F7089529928A95E9F7089520
:101A400020822182228223820895E4E8FBE60E941C
:101A50004309C4E6D9E60E944509E4E6FBE60E9494
:101A60004309C4E6D9E60C944509E4E8FBE60E9484
:101A700047090C9437091FD005FE0EC001800DC028
:101A80001AD006FE09C001800AC015D007FE04C0A6
:101A9000018007C010D039F00895000C111C000C13
:101AA000111C000C111C10820FB6F89421822282A6
:101AB00023820FBE08951180100C11821280121C17
:101AC00012820380039403820895C0E0D8E6AAE15D
:101AD000B0E01FC0C0E0D8E6AEE1B0E027C0C0E093
:101AE000D8E680E4A9DFEFEFE0931F680895C0E433
:101AF000D8E6AAE3B0E00DC0C0E4D8E6AEE3B0E0BB
:101B000015C0C0E4D8E680E897DFEFEFE0937F6888
:101B100008950E941709F001A095B095C095D09541
:101B2000A083B183C283D383248208950E941709BE
:101B3000F00180830895E2E0F2E000C0EF23F09529
:101B4000009020690F22E02906C0E0E004C0EFEF1A
:101B500002C0EBE000C0E093206900C0E091206982
:101B60000C941509EF23F095009021690F22E029CC
:101B700008C0E0E006C0E5E504C0EFEF02C0E0E029
:101B800000C0E093216900C0E09121690C94130921
:101B90000895FFFFFFFFFFFFFFFFFFFFFFFFFFFFB6
:1020000020C1089581E084C082E082C083E080C066
:10201000D9D0DCC085E07CC086E07AC087E078C09B
:1020200088E076C089E074C08AE072C08BE070C03E
:1020300072C000007FC000008EE06AC08FE068C000
:1020400080E166C081E164C082E162C083E160C07A
:1020500084E15EC085E15CC086E15AC087E158C07A
:10206000B7C0000089E154C08AE152C08BE150C082
:102070008CE14EC08DE14CC08EE14AC08FE148C07A
:1020800080E246C081E244C082E242C0D4C0000087
:1020900084E23EC085E23CC086E23AC087E238C0B6
:1020A00088E236C089E234C08AE232C08BE230C0B6
:1020B0008CE22EC08DE22CC08EE22AC08FE228C0B6
:1020C00080E326C081E324C082E322C083E320C0F2
:1020D00084E31EC085E31CC086E31AC087E318C0F2
:1020E00088E316C089E314C08AE312C08BE310C0F2
:1020F0008CE30EC08DE30CC08EE30AC08FE308C0F2
:1021000001009FD902010000554120698B1264F73C
:10211000E82F0C940D123F01F50101910093020884
:10212000AE2E02E00093060BF301A7FE1895209255
:10213000050B1895E89B06C0E89820921301C09201
:1021400022081895FF93EF93EFB7EF93DF93CF93A8
:10215000BF93AF93E0911C0BF0911D0BA091006910
:10216000B0910169E0930069F0930169EA1BE09383
:102170000269FB0BF09303696894B2E0E037FB0758
:1021800008F4ED9AB3E0EC30FB0730F0E894B4E0EB
:10219000E833FB0708F4ED9AF091140BE0E1A0910D
:1021A0001B69EE9BFE27EE98E3E0A211E4E0E093CA
:1021B0004102F093140BEFEFE093160BE0910469EA
:1021C000FFE1099401E00093530118950C94602AF3
:1021D0003F01E091D369F091D46900911006019319
:1021E000009111060083E091D569F091D6690191C3
:1021F00000930C06019100930806019100930906D3
:102200000191009300060191009301060191009352
:10221000A00001910093D36901910093D4690191C9
:1022200000930B06019100930A06E093D569F093A1
:10223000D669F30118950FB72092031021600FBFE4
:102240001895A895F89422242DBAE8EDE4BFE5E8A6
:10225000E0930110E0E8FCE6EDBFFEBFE0E0F9E648
:10226000C0EADBE021922197E9F720924508ACE42F
:10227000A0931202AEE4A0931302A3E0A093410244
:102280004A98429A4998419A2092000AA0E8A0935D
:1022900012040A98029AE0E0FBE02082A7E1A18301
:1022A0002582A0E8A487A0E0A587A3E0A083E0E1C1
:1022B000FBE02082A2E0A183A1E4A483A1E0A683A5
:1022C000A583A3E0A083A0915101A0FDFCCFA9E1CB
:1022D000A0935001A1E0A0935301A0935201E0E02C
:1022E000F6E0A1E1A083A0E0A183ABE0A283A0E09F
:1022F000A383A0E0A483A2E0A0930506A2E4A087A4
:10230000A2E4A1870E94332CE8EDE4BFE9E0E0936A
:102310000001E1E0E09350000E94741B0E94DB1E6C
:102320000E94282C0E94282C0E9405270E946727C3
:1023300065D21DD6A2D40E944A290E94D6290E94A5
:1023400087210E9482260E94BB260E94E6260E94C8
:10235000282CE1E0E09350680DD1EFEFE093160BED
:10236000E0935301E09304100C94EF29E2E5FCE6BE
:102370000C94B52BE7E08091196A84FFE093010B80
:102380000895EAEFF8ED8091196A84FF0C942A13FE
:102390000895E7E1E093010BE2E1F9ED0C942A13D3
:1023A000E0E0909151689F7709F0E260F0911B693D
:1023B000F0FDE460809130709091516882FD9095BD
:1023C00097FFE160FFE10E946324F0E0E0FDF1602F
:1023D000F093106C0895EE270895189408950895C9
:1023E000F894C0D0F894D0D00C94D813F894B0D00E
:1023F000C1D00C94D8130E94372CF894A895FFCF25
:102400000C94DA13E770F0E0E05FFB45E08108959B
:102410000102040810204080ECE3F894A0E8BCE638
:10242000ADBFBEBF0E944F2CA895FECF0190099270
:102430008A95E1F7089501901990011411F48A9595
:10244000D1F7089529928A95E9F70895208221828B
:102450002282238208959FEF99938A95E9F7089540
:10246000E0E0FFE80990E025E0818A95D9F7EE23C6
:102470000895799FE001689FD001699FB00DC11D4B
:10248000D21D789FB00DC11DD21D089580E406C0F5
:1024900080E204C080E102C088E000C0C083D18334
:1024A0008283238224822582CDCF11D00BC00FD00E
:1024B00007C00DD003C00BD0AA0FBB1FAA0FBB1FB4
:1024C000AA0FBB1FAA0FBB1FAA0FBB1F0895B38182
:1024D000A081AB0FB181B21DDC91CC93A481B581F9
:1024E000AD1BB209AC0FB21DA483B583C281D381E9
:1024F000D395DC1708F0DD27D38308951FD005FEA0
:102500000EC001800DC01AD006FE09C001800AC0AD
:1025100015D007FE04C0018007C010D039F008951F
:10252000000C111C000C111C000C111C10820FB6A9
:10253000F8942182228223820FBE08951180100C0C
:1025400011821280121C1282038003940382089568
:10255000C0E0D8E6AAE1B0E01FC0C0E0D8E6AEE136
:10256000B0E027C0C0E0D8E680E46CDFEFEFE09396
:102570001F680895C0E4D8E6AAE3B0E00DC0C0E447
:10258000D8E6AEE3B0E015C0C0E4D8E680E85ADF94
:10259000EFEFE0937F6808950E949A13F001A095F1
:1025A000B095C095D095A083B183C283D383248294
:1025B00008950E949A13F00180830895E0913B7082
:1025C000E53008F0E2E0F0E0E951FD4E099426C064
:1025D00023C00AC006C000C0809188682092886825
:1025E0001FC08091006C1CC090919068923021F0C7
:1025F000943031F00FD023C00DD01BD00BD01CC0B5
:1026000009D014D007D012D005D016C00C94EA2BF4
:102610000C94EF2B01D0FCCFF9DF05C0F9DF03C02C
:102620008211FACFFBCF82E390E00CC084E690E009
:1026300009C088EC90E006C088EE93E003C082EE0B
:1026400094E000C00C94802BE091D369F091D469A0
:10265000EF2B0895CF93C091D369C21106C0C091EA
:10266000D469C21102C0CF9103C0CF91889408955C
:10267000CF93C2E0C0930A06C1E0C0930D06C1919A
:10268000C0930006C191C0930206C191C093030696
:10269000C191C0930406C191C0930C06C191C0932F
:1026A0000806C191C0930906C191C0930006C1916B
:1026B000C0930106C191C093A000C191C093D3699A
:1026C000C191C093D469C191C0930B06C191C093CD
:1026D0000A06E093D569F093D669CF9108940895DE
:1026E00076956795769567957695679576956795CE
:1026F0008091061190910711861B970B6091041130
:1027000070910511B6DEC695B795C695B795C69575
:10271000B795C695B7957C2F6B2F08950C94100034
:102720000C9411000C9412000C9413000C941400DF
:102730000C9415000C9416000C9417000C941800BF
:102740000C9419000C941A000C941B000C941C009F
:102750000C941D000C941E000C941F000C9420007F
:102760000C9421000C9422000C9423000C9424005F
:102770000C9425000C9426000C9427000C9428003F
:102780000C9429000C942A000C942B000C942C001F
:102790000C942D000C942E000C942F000C943000FF
:1027A0000C9431000C9432000C9433000C943400DF
:1027B0000C9435000C9436000C9437000C943800BF
:1027C0000C9439000C943A000C943B000C943C009F
:1027D0000C943D000C943E000C943F000C9440007F
:1027E0000C9441000C9442000C9443000C9444005F
:1027F0000C9445000C9446000C944700DBD5EFE7A1
:10280000E093046CEAE3FCE6C0E6D3E741DEE0E4F3
:10281000FCE6C0E8D3E73CCE809152680895E09191
:102820001D6920921D69E0931C69E0911F69209247
:102830001F69E0931E690895F894E0917D692092E4
:102840007D697894E03009F40895EF3208F0C7CD3F
:10285000C0917B69D9E6EF5CF0E0FB4E09950C94E2
:102860006014BDCDE1C00AC10EC1B9CDB8CDB7CDA0
:10287000B6CDB5CDB4CD32C146C164C172C185C13A
:1028800098C1ABC1BEC1D1C1E4C1ACC0A8CDA7CD78
:10289000A6CDA5CDA4CDA3CDA2CDA1CDA0CD9FCDBC
:1028A0009ECD9DCDAFC09BCD9ACD99CD98CDA9C0E1
:1028B000EFC1EEC1EDC1ECC1EBC1E9C103C2E9C199
:1028C000A895F89460912D6C70912E6C789408DF27
:1028D000EB01CF5DD040ECE0FCE60C2E0FDE6894FF
:1028E000E0911B69F0913070EF27E0FDE894D09102
:1028F000236CC091246CC7FF05C0C095D195CF4F04
:10290000C7FDCFE7DD0FCC1FEAE3FCE6D0DD16F014
:10291000B093326C16F4B093336CD091256CC091A7
:10292000266CC7FF05C0C095D195CF4FC7FDCFE737
:10293000DD0FCC1FE0E4FCE6BADD16F4B093326C98
:1029400016F0B093336CA091326CAB0FA795A093A7
:102950002069A25308F4A0E0A093116CA091326CFE
:10296000B091336CAB1BA058E4E0FCE60A2EC6DD48
:10297000C0E0E8E0FCE60C2EC1DDE091A269F09138
:10298000A469EF1708F4EF2FE093A569E0E0E09366
:10299000A66980E0A0913470A093A306B0ECAB9F31
:1029A000B091086CB11508F08160A0913570B091BC
:1029B0000C6CB25308F4B0E0BA1708F08460A09130
:1029C0003670B0912069BA1708F088600E947924A7
:1029D00009F082608093006C90911A70982B90930C
:1029E0001A70089520925168E2E5F8E6219221924A
:1029F0002192219221922192219221922192BADD5B
:102A00003CC10895E0917E69E33019F099818A8193
:102A100003C090E089818F77EFB7F89480934C6979
:102A200090934D69EFBF0895E881E4FBEE0FE0F964
:102A3000E6FBEF71E43010F4E6950DC0E450F0E0F1
:102A40008091197084FDE35C84FDFF4884FFE05AA7
:102A500084FFF545E081E7F992D1EF138BDD0FC1DB
:102A600003070C1015191E22272B3034393D42461E
:102A70004B4F54585D61666A6F73787EE9817FD1F0
:102A8000EF1378DDFCC0E9817AD1FE27F0E08A817E
:102A900090915268809352688927F82BE0917E6963
:102AA000E530C8F08B8190915368809353688927F3
:102AB000F82BE63080F08C819091546880935468B4
:102AC0008927F82BE73038F08D81909155688093F5
:102AD00055688927F82BF2114DDDCFC0FF27E09113
:102AE0004E6980914F698695EE1FE095EF71888160
:102AF00084FB880F80F9909152683AD18093526894
:102B0000F21138DDBEC0FF2788818295880F909131
:102B10005268E0914E69EE0FE095E07E29D18093F6
:102B200052688881880F829590915368E0914E6930
:102B3000EE0FEE1FE095E1701BD180935368F21108
:102B400019DD9FC0FF278881880F90915368E0911D
:102B50004F69E095EE710CD180935368F2110ADD54
:102B600090C0FF27E0914F69E5FD0895898190911C
:102B70005368F5D080935368898190915468F3D05D
:102B800080935468F211F6DC7CC0FF27E0914F6916
:102B9000E5FD0895898190915468E1D0809354684F
:102BA000898190915568DFD080935568F211E2DCFD
:102BB00068C0FF27E0914F69E6FD089589819091F3
:102BC0005568CDD080935568898190915668CBD057
:102BD00080935668F211CEDC54C0FF27E0914F6914
:102BE000E6FD0895898190915668B9D08093566822
:102BF000898190915768B7D080935768F211BADCF9
:102C000040C0FF27E0914F69E6FD089589819091CA
:102C10005768A5D080935768898190915868A3D050
:102C200080935868F211A6DC2CC0FF27E0914F6911
:102C3000E6FD089589819091586891D080935868F5
:102C40008981909159688FD080935968F21192DCF4
:102C500018C0FF27E0914F69E6FD089589819091A2
:102C600059687DD080935968898190915A687BD04A
:102C700080935A68F2117EDC04C001D002C0AFDB41
:102C8000AEC38091526880915368A9DBA8C372CC0F
:102C90000895A1DBB1F42ED021F482E00E94A9278F
:102CA000A1CB80917E69853038F02196E0E2F8E68C
:102CB00083E0C1DB31F096CBF981E0912268FE130D
:102CC00091CB0895E881E93008F00895F0E0E659E5
:102CD000F94E099408C008C008C008C008950895B6
:102CE00008950895089508957BCB7ACBE1E0E093B1
:102CF000506840CCF0914C68E0914D68EF2B0895FE
:102D0000E23060F10090057010900170011803949A
:102D100000928E6800900470109005700118039462
:102D200000928F68FE2FE03408F0FFE300908E6879
:102D30000F9E000C111CF0910170F695F10DE0341E
:102D400038F0EF5300908F680E9E000C111CF10DAF
:102D5000EF2FE7FDEFE7E23008F4E2E00895829517
:102D6000880FE0EE05C0869586958695EFE100C058
:102D70008E23E095E9238E2B9827F92B0895FE2FBB
:102D80008091506982110895F0910F70F078EC995C
:102D9000EF2780911970F0E880FDEF27809122687D
:102DA000F0911B69F07887FDEF27E7FBEF77A8DF4D
:102DB000E7F9F0915168E09351680895749B05C05C
:102DC000E2EBF8ED47CC7499FBCFEAECF8ED42CC9E
:102DD000A881A3700E94BE28B981CF93DF930E947F
:102DE0005A28DF91CF91689409F4E89440F5F8816E
:102DF000EA81FC7039F0F43031F0FC3041F0E4FF4E
:102E000014C00CC01CC0DEF0AE17C1F018C0AE2F4D
:102E10000E945F28A1F498F4216010C0AE2F0E9498
:102E2000632869F460F4216009C04EF0E3FBEADA3C
:102E3000AE230EF0EE27EA2709F001C097CA0895E5
:102E4000A881A3700E94BE28B9810E945A2821F44B
:102E500008F00EC3EA2F0FC300C3AA81B9810E94F4
:102E6000BF28E881E370E0931E6CBB810E945A2862
:102E7000B9F4A0931F6CB3950E945A2889F4A093CB
:102E8000206CB3950E945A2859F4A093216CB395F5
:102E90000E945A2829F4A093226CCEE1DCE6EDC210
:102EA000DCC2E89402C0689400C089F40E940A273A
:102EB000E53068F0A881A3700E94BE28B981AA817C
:102EC0000E945E2829F418F42160EA2FD4C2D0C2EF
:102ED000C4C2B9F50E940A27E13198F1B981AA81EB
:102EE0000E94BF28EEE1FCE6A881A370A083AC811C
:102EF000A183BD81B283BE81B383BF81B483BB8113
:102F00000E945F28F9F4A0931F6CB395A091206CE8
:102F10000E945F28B9F4A093206CB395A091216C16
:102F20000E945F2879F4A093216CB395A091226C44
:102F30000E945F2839F4A093226C2160CEE1DCE688
:102F40009CC296C28AC20E94172778F0A0E00E9415
:102F5000BE28BCE10E945A2849F4E881E0FBA5F9AB
:102F60000E945F2819F421609DC282C276C2E0EF00
:102F7000E09382690E948E13E09383690E949E13FE
:102F8000D0938469C0938569B0938669A09387695B
:102F9000CEE8D9E6E0E8E88385E00E943012E883D5
:102FA000C8E8D9E6E0EDE883E0E0E983E0E0EA8321
:102FB0002B822C8285E00E943012E88322D000C050
:102FC000F7E0E0910A0BEF230DC0E0919869F091D2
:102FD0009969EA953AF4FF0FF760FF77E0910A0BE1
:102FE000EF2300C0E0939869F09399690895F091F8
:102FF0004C68E0914D68EF2B0895E0919769EE23BE
:103000000895209297690895F0919669E0939669E2
:10301000FE1B08F4F195F53008F0F3CF0895CF9337
:10302000DF93E2E8F9E6A991AF70B191BF70AB17F9
:1030300031F4A991B191AB1711F4E838D1F7DF91D0
:10304000CF9108958F93ECE6F9E6A0917E698A2FDF
:103050008C0FB081A193BA17A081B991BA07B1932F
:103060008C13FACFC0917B698F910895E2E013C071
:10307000E3E011C0E4E00FC0E5E00DC0E6E00BC006
:10308000EAE009C0E3E0F4E007C0E4E0F7E004C0F0
:10309000E6E0F9E001C0FE2FAE1718F0FA1708F0CD
:1030A0000895E0918C68F0918D683196E0938C687A
:1030B000F0938D68E0918468E395E0938468EF91E4
:1030C000EF9100C0E0E0AAC08ED1E5E2A7C0CEDF5C
:1030D000EFE1A4C0CBDFE6D1E1E0A0C0C9DFE2D1DF
:1030E000E6E29CC0C5DFDED1E2E098C0CEDFDAD1F7
:1030F000E3E094C0BFDFB9D1E4E090C0C3DFAFD15B
:10310000E1E28CC0B3DFABD1E2E288C0AFDFADD18A
:10311000E3E284C0B3DFE5E081C0ACDFE6E07EC07F
:10312000ABDFE7E07BC0A4DFA0D1E8E077C0A2DF9F
:103130009CD1E9E073C09ADFB5D1EAE06FC096DFB9
:10314000B1D1EBE06BC092DFADD1ECE067C090DFB6
:10315000A9D1EDE063C08CDFA5D1EEE05FC088DFD0
:10316000A1D1EFE05BC084DF9DD1E0E157C080DFFB
:1031700099D1E1E153C07CDF95D1E2E14FC078DF26
:1031800091D1E3E14BC072DFE0918069E395E211F8
:10319000E0938069E4E144C069DF67D1E5E13EC0C6
:1031A00071DF63D1E6E13AC0A43011F098F425C094
:1031B000E881E3FD05C0E2FF1DC042DEE7E12EC06D
:1031C000E2FF04C03FDF6DDEE8E128C03BDF6BDEDD
:1031D000E9E124C0E881FE2FE370F3FD06C0F2FFB1
:1031E00009C04ADF3ADEEAE119C052DF2BDF71DEA7
:1031F000EBE114C03AD1EDE111C037D1E4E20EC0E9
:10320000E0E20CC03FDFE0918169E395E211E093D9
:103210008169E23009F4DCDDECE104C020928069D0
:1032200020928169E0937D69E0910A69E0937C696D
:103230002062089521DFEA81E7DED9DE39F4DDDEA0
:1032400029F4C3DE19F407D2E7E2E8CF3BCF14DF5D
:10325000EA81DADECCDE39F4D0DE29F4B6DE19F408
:10326000FAD1E8E2DBCF2ECF07DFEA81CDDE2ACF2D
:1032700003DFEA81C9DEBBDE31F4BFDE21F4A0DE6C
:10328000EAD1EAE2CBCF1ECF2197C9DE09F01CCFED
:10329000E1E0E0939769E7D1EBE2C0CFF1DE21975F
:1032A000BEDE09F011CFFE81EF81F06CF0934B6927
:1032B000E0934A69E1E0E0939769D1D1E4E0E093DB
:1032C0009068ECE2ABCFEEE2A9CFE0917E69E350EB
:1032D000EB30F8F4E0937E69F0E0E457F64E0995A0
:1032E000D1F4E0917E69AEE2B3EBAE0FB21DBC91BA
:1032F000CB0FAE2FAB1BA0937E69C0937B69D9E641
:10330000E881E93040F4F0E0E356F64E0995EDE24D
:1033100085CFC7DED7CED8CE1FC01CC01DC02DC0E4
:1033200019C025C02AC026C022C016C023C0000074
:103330000002000402060400060008C007C006C020
:1033400005C006C005C004C003C002C0A5D00895D2
:103350008FD008951894089598940895E8E4F8E6B5
:1033600021C0ECE4F8E61EC0EEE4F8E61BC0E0E4A1
:10337000F8E610C0E4E4F8E605C0F3DFD1F0EEDFD4
:10338000C1F0F2CFA581BD81AB1799F4A481BC81B6
:10339000AB1779F4A381BB81AB1759F4A281BA8131
:1033A000AB1739F4A181B981AB1719F4A081B881A9
:1033B000AB17089500C0C2E5D9E683E5899380E0A4
:1033C000ADE2B0E703D002D0288208959D91E8E0F5
:1033D0008395969508F48993EA95D1F70895E2E3E9
:1033E000E09391680895E0915169E395E33008F026
:1033F000E0E0E0935169F0E0E150F64E099402C03C
:1034000012C01BC0E0919168EA95E7FDE0939168D6
:10341000E0911970E5FF05C0E0910D70EF73E06871
:10342000E7C0E0E0E5C0E0911970E5FF03C0E0917E
:103430000E70E3C0E0910070E0C0E0911870E3FF0F
:10344000D2CFF091A869E0E0F2FDE160F3FDE26027
:10345000F1FDE460F5FDE860D5C0C5D0C4CFC3D0B0
:10346000D6D0C1CFC0D0D5D0BECFBDD0D4D0BBCFA9
:10347000BAD0D3D0B8CFD5D0B6CFE991DE01A6D09F
:10348000E85FE883ED91E983ED91EA83ED91EB83C9
:10349000ED91EC83CBD0A7CFE0E0F0E0A0E0B0E08E
:1034A000E6D0EDC0E2E5F9E6E081A191C081C2116C
:1034B000CC13E3E5E0935269E4E6FAE1EA0FF21D8A
:1034C00092D084D009958FCFA2C0B1C00EC00FC0DA
:1034D00010C011C012C013C014C015C016C017C050
:1034E00018C019C018C017C016C017D027C062D0A6
:1034F00069C058D05BC016D01AC01DD05FC022D0A2
:1035000025C028D02BC02ED031C034D037C03AD0FF
:103510003DC040D043C07BD07AC0E091186CF091A0
:10352000196C94C0E091016CE068F2E08FC0E0910A
:103530001A6CF2E08BC0E5E1F3E088C0E0918768A7
:10354000F7E084C0E091086CF8E080C0E091046886
:10355000F9E07CC0E0911E6AFAE078C0E0911A6A56
:10356000FBE074C0E0911A6CFCE070C0E0911B6C51
:10357000FDE06CC0E091046CFEE068C0E0911E6963
:10358000FFE064C0E0912A6CF0E160C0E091286C3B
:10359000F1E15CC0E091236AF2E158C0E091246A55
:1035A000F3E154C0E091146CF8E150C0E091156C67
:1035B000F9E14CC0E0910C6CFAE148C0E091106C6C
:1035C000FBE144C0E091116CFEE240C0CAE2D9E6E2
:1035D0000895A2E2B9E60895A4E2B9E60895A0919B
:1035E0002169B9E60895F8DFA0932169089547C0DD
:1035F000EDDFF1E0F883E98349C0E8DFF2E0F8832A
:10360000E98344C0E3DFF3E0F883E9833FC0CFE020
:1036100041C0C0EF3FC0CCE33DC0CFE03BD0CCE3E6
:1036200039C0D4DFE0DF2882E9833AC042C0C2E378
:10363000D9E6E4E0E883A0E8B8E6ED91EC83ED910B
:10364000EB83ED91EA83ED91E98333C0E983FA835B
:10365000F7E0F8832AC0EF9AC2E8D9E634C0EF9ABF
:10366000C8E8D9E630C0EF9ACEE8D9E62CC0AEDF84
:10367000E883F983AA83BB83E0E1EC831FC0F09168
:103680003769FF0F28F1FF0F18F12BC0A2DFE3E02D
:1036900021D0A8C8A4DFE1E01DD0CD93A5CF9FDF46
:1036A000E3E018D09FD8A0CF9ADFE7E013D098D8F6
:1036B0009BCF92DFFFE315D08FD896CF8DDFFFE34E
:1036C00010D08CD891CF85DFFFEF0BD083D88CCF73
:1036D000F0E007C0F091376902C0FF1FC8F3E6951C
:1036E000E0F3F093376908950895CCE0D9E6A0910E
:1036F0000B6920927D69E881E058F0E0F44E09946E
:10370000FFC014C113C112C111C110C10FC10EC13C
:103710000DC10CC10BC10AC109C108C107C106C155
:1037200005C104C103C102C101C100C1FFC0FEC087
:10373000FDC0FCC0FBC0FAC0F9C0F8C0F7C0F6C0BD
:10374000F5C0F4C0F3C0F2C0F1C0F0C0EFC0EEC0ED
:10375000EDC0ECC0EBC0EAC0E9C0E8C0E7C0E6C01D
:10376000E5C0E4C0E3C0E2C0E1C0E0C0DFC0DEC04D
:10377000DDC0DCC0DBC0DAC0D9C0D8C0D7C0D6C07D
:10378000D5C0D4C0D3C0D2C0D1C0D0C0CFC0CEC0AD
:10379000CDC0CCC0CBC0CAC0C9C0C8C0C7C0C6C0DD
:1037A000C5C0C4C0C3C0C2C0C1C0C0C0BFC0BEC00D
:1037B000BDC0BCC0BBC0BAC0B9C0B8C0B7C0B6C03D
:1037C000B5C0B4C0B3C0B2C0B1C0B0C0AFC0AEC06D
:1037D000ADC0ACC0ABC0AAC0A9C0A8C0A7C0A6C09D
:1037E000A0C09FC09EC09DC09CC09BC09AC099C0F5
:1037F00098C097C096C095C094C093C092C091C025
:10380000B0C0AFC0AEC0ADC0ACC0ABC0AAC0A9C054
:10381000A8C0A7C0A6C0A5C0A4C0A3C0A2C0A1C084
:10382000A0C09FC09EC09DC09CC09BC09AC099C0B4
:1038300098C097C096C095C094C093C092C091C0E4
:1038400090C08FC08EC08DC08CC08BC08AC089C014
:1038500088C087C086C085C084C083C082C081C044
:1038600080C07FC07EC07DC07CC07BC07AC079C074
:1038700078C077C076C075C074C073C072C071C0A4
:1038800071C070C06FC06EC06DC06CC06BC06AC0CC
:1038900069C068C067C066C065C064C063C062C0FC
:1038A00061C060C05FC05EC05DC05CC05BC05AC02C
:1038B00059C058C057C056C055C054C053C052C05C
:1038C00051C050C04FC04EC04DC04CC04BC04AC08C
:1038D0001AC019C018C017C016C015C014C013C034
:1038E00012C011C010C00FC00EC00DC00CC00BC064
:1038F0000AC009C008C007C006C00DC009C00EC07C
:10390000A150219670C0A0937E69C0937B6975CC4D
:10391000A15021962AC1A150219630C2A1502196D2
:103920001CC1E0918069E33008F06CCCEA9AE9911F
:10393000A1506894F0914C69FE13E894B0914D69E0
:10394000B211E894BF2BF0914A69FE1739F4F09157
:103950004B69F7FD03C0B21128C045C00EF0B4CBCF
:1039600032C04BCCEA9AE981F881A2502296E0302D
:1039700021F4F03C11F4EB9A5CC0B0914B69BF1795
:10398000B0914A69BE0741F4E0914C69F0914D69EC
:10399000EF2BE2110AC027C0B0914D69BF17B0915B
:1039A0004C69BE0709F090CB0EC0E0911170EC6736
:1039B000E0934E69E0911270E160E0934F69E1E0BD
:1039C000E093506916C0EC9AE0911170E095E378AD
:1039D000E0934E69E0911270E095EE7FE0934F69BD
:1039E0002092506906C020924E6920924F69209221
:1039F0005069A0937E69C0937B69E0911F69E3954C
:103A0000E0931F69E881E295EF70E75FF0E0F24E26
:103A100009942BC040C055C054C05CCB5BCB5ACB83
:103A200059CB89CB88CB8FCB8ACB71C070C0BCCB34
:103A3000B7CBA0937E69C0937B69EA98E881E29551
:103A4000EF70EB5DF0E0F24E09943CCB3BCB3ACB10
:103A500039CB38CB37CB36CB35CB34CB33CB32CB62
:103A600031CB30CB2FCBA0CB9BCBE991EF70E55C7A
:103A7000F0E0F24E099487CB8FCBC2CBC1CBBACB4F
:103A8000B9CBB8CBB7CBB6CBB5CB40CB3FCBB2CB1A
:103A9000B1CBB0CB37CBE991EF70EF5AF0E0F24EFB
:103AA0000994A8CBA7CB2ACB29CBA4CBA3CBA2CB61
:103AB000A1CBA0CB9FCB9ECB9DCB9CCB9BCB9ACBC2
:103AC00099CBE991EF71E959F0E0F24E099492CB6C
:103AD00091CB90CB8FCB8ECB8DCB8CCB8BCB8ACB22
:103AE00089CB88CB87CB86CB85CB84CB83CB82CB52
:103AF00081CB80CB7FCB7ECB7DCB7CCB7BCB7ACB82
:103B000079CB78CB77CBF2CAF5CAE8CAEBCAE99190
:103B1000EF71E357F0E0F24E099409CBFBCAFDCAFE
:103B2000FFCA68CB67CB66CB65CB64CB63CB62CB7C
:103B300061CB60CB5FCB5ECB5DCB5CCB5BCB5ACB41
:103B400059CB58CB57CB56CB55CB09CB0CCB0FCB46
:103B500012CB15CBE8CAFBCAFECAA0937E69C093FC
:103B60007B69E881E211AECAB2CAA0937E69C093B4
:103B70007B69E991E254F0E0F24E0994A3CAA2CA2B
:103B8000A1CAA0CA9FCA9ECA9DCA9CCA9BCA9ACAF9
:103B900099CA98CA97CA96CA95CA94CA93CA92CA29
:103BA00091CA90CA8FCA8ECA8DCA8CCA8BCA8ACA59
:103BB00089CA88CA87CA86CA85CA84CA83CA82CA89
:103BC00081CA80CA7FCA7ECA7DCA7CCA7BCA7ACAB9
:103BD00079CA78CA77CA76CA75CA74CA73CA72CAE9
:103BE00071CA70CA6FCA6ECA6DCA6CCA6BCA6ACA19
:103BF00069CA68CA67CA66CA65CA64CA63CA62CA49
:103C000061CA60CA5FCA5ECA5DCA5CCA5BCA5ACA78
:103C100059CA58CA57CA56CA55CA54CA53CA52CAA8
:103C200051CA50CA4FCA4ECA4DCA4CCA4BCA4ACAD8
:103C300049CA48CA47CA46CA45CA44CA43CA42CA08
:103C400041CA40CA3FCA3ECA3DCA3CCA3BCA3ACA38
:103C500039CA38CA37CA36CA35CA34CA33CA32CA68
:103C600031CA30CA2FCA2ECA2DCA2CCA2BCA2ACA98
:103C700029CA28CA27CA26CA25CA24CA23CA22CAC8
:103C800021CA20CA1FCA1ECA1DCA1CCA1BCA1ACAF8
:103C900019CA18CA17CA16CA15CA14CA13CA12CA28
:103CA00011CA10CA0FCA0ECA0DCA0CCA0BCA0ACA58
:103CB00009CA08CA07CA06CA05CA04CA03CA02CA88
:103CC00001CA00CAFFC9FEC9FDC9FCC9FBC9FAC9BE
:103CD000F9C9F8C9F7C9F6C9F5C9F4C9F3C9F2C9F0
:103CE000F1C9F0C9EFC9EEC9EDC9ECC9EBC9EAC920
:103CF000E9C9E8C9E7C9E6C9E5C9E4C9E3C9E2C950
:103D0000E1C9E0C9DFC9DEC9DDC9DCC9DBC9DAC97F
:103D1000D9C9D8C9D7C9D6C9D5C9D4C9B5CAB4CAE9
:103D2000B3CAB2CAB1CAB0CAAFCAAECAADCAACCAC7
:103D3000ABCAAACAA9CAA8CAA7CAA6CAAFCAAECAE3
:103D4000ADCAACCAABCAAACAA9CAA8CAA7CAA6CAD7
:103D5000A5CAA4CAA3CAA2CAA1CAA0CAB3C9B2C9E1
:103D6000B1C9B0C9AFC9AEC9ADC9ACC9ABC9AAC99F
:103D7000A9C9A8C95FCA6BCA77CA7ACAA0937E6963
:103D8000C0937B69E991E03F08F49CC9EF70E5536B
:103D9000F0E0F14E099497CA95C994C993C992C9A4
:103DA00091C990C992CA8EC98DC98CC98BC98AC95B
:103DB00089C988C987C9E0E0E0930469209237691E
:103DC0000895FFFFFFFFFFFFFFFFFFFFFFFFFFFF64
:103E000026C04DC04FC054C059C060C067C078C103
:103E10009EC1D2C1E0C102C209C217C21FC227C2DD
:103E20002FC23AC267C081C0BEC00AC11FC13CC117
:103E30003DC13EC13FC140C141C142C143C144C176
:103E400045C146C147C148C149C14AC14BC1E2E071
:103E5000E093110B332423C0E0918868F0918968C6
:103E60003196E0938868F09389680AC0E0918A6887
:103E7000F0918B683196E0938A68F0938B6800C06C
:103E8000E0918468E395E093846800C0332403C024
:103E9000E3E03E2E00C0E998ED98E1E02CC20E94DC
:103EA000AE2700C0ED99F2CF8EF73394E3E023C242
:103EB000ED99ECCF5EF73394E4E01DC2ED99E6CFC7
:103EC0002EF733940E94DE16E5E015C2ED99DECFA1
:103ED000EEF633940E94E316E6E00DC2ED99D6CFDC
:103EE0002EF4339409F43A94E6E005C2E32DE4316C
:103EF00008F4CCCF30920A69E0910269F09103692D
:103F0000F695E795F695E795F695E795E21DE001BC
:103F1000FBEAEF9F10923A690E01ECE0F9E6CFE080
:103F20002192CA95E9F7E3E1E6C10EF0ED99AECF33
:103F3000E0910269F0910369F695E795F695E795AA
:103F4000F695E795E21DE001FBEAEF9F10923B69D1
:103F50000E01EE27749BEFEFF0911B69E0931B6954
:103F6000FE13EE9AE998EA98EF98EB98EC98209275
:103F70000B6920920969E0918568E395E43650F079
:103F8000E0918468F0918668E0938668EF1BE09387
:103F90008768E0E0E0938568E0911D69E395E09330
:103FA0001D69E7E1A8C1ED9957CFE0910B69EF30AA
:103FB00008F05CCFFCE0EF0FF9E6F21D3192EC5017
:103FC000E0930B69E0910969E325E09309692EF517
:103FD00009F04CCFE3E0E093110BE0E8F8E6A081B4
:103FE000B1811196A083B183A281B381A21DB21DBC
:103FF000A283B383E0910269F0910369F695E79596
:10400000F695E795F695E795E21DE001FBEAEF9F4F
:1040100010923E690E01E6E16EC1E0910269F091F5
:104020000369F695E795F695E795F695E795E21D10
:10403000E001FBEAEF9F10923C690E01E5E15BC1F4
:10404000ED9B0EF409CFE0910269F0910369F695BA
:10405000E795F695E795F695E795E21DE001FBEA11
:10406000EF9F10923D690E01E7E145C1E2E0E09368
:10407000110B2092006920920169ED9B0EF0ECCEAD
:10408000E0910269F0910369F695E795F695E79559
:10409000F695E795E21DE001FBEAEF9F10923F697C
:1040A0000E0123DBE7E027C1E8E11EC0E9E121C002
:1040B000EAE11AC0EBE11DC0ECE116C0EDE119C068
:1040C000EEE112C0EFE115C0E0E20EC0E1E211C086
:1040D000E2E20AC0E3E20DC0E4E206C0E5E209C0A4
:1040E000E6E202C0E4E105C0ED99B6CE330C30F84B
:1040F00002C11EF030FCB0CEFEC030FEADCEFBC023
:10410000E2EEF8ED0E9438130EF0C0CEC091376990
:10411000D0911970EB99D860D3FFC070D09118700E
:10412000EB99D260E0919168EC3F08F0DB7FD2FD23
:10413000DE7FEA99D0FFCC7FEC9BD1FFC370EF9973
:10414000CFEFC0933769749B7699A2CE00C0E99AED
:10415000D0912A70C0910A0BCD23D0912970CD0F38
:10416000CF70C0933869C15BDCE0F001CD9F009255
:104170001C0B10921D0B0F01E0910269F091036975
:10418000F695E795F695E795F695E795E21DE0013A
:10419000FBEAEF9F109240690E01E0E0E093110B03
:1041A000E0913769E0FF06C0C0902269E89AEDE02F
:1041B000E0931301E9E09FC0F0913769E091236932
:1041C000F1FDE0932208E8E6F1E0E0931C0BF093A8
:1041D0001D0BEAE090C0D0912C70C0910A0BCD234A
:1041E000D0912B70CD0FCF70C0933969CE5AD0913A
:1041F0003869CD1BDCE0F001CD9F00921C0B1092C2
:104200001D0B0F01E0913769E2FF06C0C0902469E1
:10421000E89AEDE0E0931301EBE06DC0E0EFF0E031
:10422000E0931C0BF0931D0BECE065C0F091376937
:10423000E0912569F3FDE0932208E0EEF1E0E093E0
:104240001C0BF0931D0BEDE056C0F0913769E09127
:104250002669F4FDE0932208EEE04DC0F091376945
:10426000E0912769F5FDE0932208EFE044C0F0916A
:104270003769E0912869F6FDE0932208E0E13BC050
:10428000F0913769E0912969F7FDE0932208E2E0B7
:10429000E093110BE1E12FC0E001E0910069F091A2
:1042A0000169F695E795F695E795F695E795E21D90
:1042B000FBEAEF9FE12DEC51F0913969EF0FE093AC
:1042C00041690E01F0913769FC7F91F0EAE3F9E66C
:1042D000C191C783C191C783C191C783C191C7836E
:1042E000C191C783C191C783C191C783C191C7835E
:1042F00020923769CBCDE0930469AF91BF91CF9104
:10430000DF91EF91EFBFEF91FF9118950895E0E3F2
:10431000FAE6A6E5BBECD0E0C1E0D583C083B1836B
:10432000A28326822782208624823A96D395DA3287
:10433000A1F7BDC213D0ED91FD91FC83FD91F887EB
:10434000FD91F98796D2EFB7E0FBC5D3E885E1315F
:1043500008F0E0E0E257F0E0FB4D0994AD81AA0FD0
:10436000AA0FB0E0A83218F4AC57BF480895A8527D
:10437000BF480895C4EDDBE68091AE69882311F053
:10438000C4E9DAE6CF93DF930E94412BDF91CF910E
:104390002A97D0DF8E819F8196FB9827907409F031
:1043A000D1D088818150E1F008F088838D81882305
:1043B00049F703D045D253D27AC2E091AE69E150B9
:1043C00070F090E00AF497E0CEEDDBE680E20E9428
:1043D0002C12A097E03218F4CE0F97E0988308953E
:1043E000F981EA8181918C3008F080E090E0815081
:1043F0009E4D8F939F930895F983EA83D7CF0BC087
:104400000DC011C02CC036C03FC042C048C055C00E
:104410005DC063C069C00B807CD0C8CF019079D0EB
:1044200011901882E9CF0E94C3229F938F938191AC
:10443000982F92958F709F70092E081A03941F90E1
:10444000109C180E65D08191982F92958F709F7057
:10445000092E081A1F90109C180E1882CDCF0E94AA
:10446000C32201909191091A0394182E109C190EE1
:104470004FD0B8CF0E94C32201909191091A182EF3
:10448000109C190E1882B8CF91918191FC01AACF8E
:10449000919181910F01FC018D810995A3CF0E941B
:1044A000C32201909191981708F4A6CF0394102C81
:1044B000100C100CE119F20995CFE89410800B80D4
:1044C000101460F021F43196319696CF68941190D3
:1044D0000B800114C8F7039415C0689411900B80E9
:1044E000101490F70A940EC00E94C322019091917B
:1044F000091A0394182E109C190E0B80101408F43E
:1045000007D070CF06D0119018820EF475CF4ECF21
:10451000012C0B82A4EDBBE61D80A10DB21D0C92F7
:104520000895FCECE0EB03C0FCECEAED00C08C81EC
:10453000853108F080E0880FE80FF21D919181919C
:10454000FC0108958E8186F98E839BEC88E516F434
:104550009BEC8CE599838A8391E09883089513D02E
:104560008F77089510C00FD009F4917008950BD083
:1045700009F49370089507D009F49770089503D053
:1045800009F49F70089580911A0B90910A0B892766
:104590000895E4EDFBE6D091196ADF70D395D4FD60
:1045A000DA95C091A769C211D061189431F4C19114
:1045B000CD1708F02F9A08F42F98189431F4C19170
:1045C000CD1708F02F9A08F42F98189431F4C19160
:1045D000CD1708F0289A08F42898189431F4C1915E
:1045E000CD1708F0299A08F42998189431F4C1914C
:1045F000CD1708F02A9A08F42A98189431F4C1913A
:10460000CD1708F02B9A08F42B98189431F4C19127
:10461000CD1708F02F9A08F42F98189431F4C1910F
:10462000CD1708F02F9A08F42F98189431F4C191FF
:10463000CD1708F02F9A08F42F98189431F4C191EF
:10464000CD1708F02F9A08F42F98A0914009A0FFE9
:1046500001C085C0A0E8B4E78091D769C191C29537
:10466000C89F1D92C191C295C89F1D92C191C295CC
:10467000C89F1D92C191C295C89F1D92C191C295BC
:10468000C89F1D92C191C295C89F1D92C191C295AC
:10469000C89F1D92C191C295C89F1D92C191C2959C
:1046A000C89F1D92C191C295C89F1D92C191C2958C
:1046B000C89F1D92C191C295C89F1D92C191C2957C
:1046C000C89F1D92C191C295C89F1D92C191C2956C
:1046D000C89F1D92C191C295C89F1D92C191C2955C
:1046E000C89F1D92C191C295C89F1D92C191C2954C
:1046F000C89F1D92C191C295C89F1D92C191C2953C
:10470000C89F1D92C191C295C89F1D92C191C2952B
:10471000C89F1D92C191C295C89F1D92C191C2951B
:10472000C89F1D92C191C295C89F1D92C191C2950B
:10473000C89F1D92C191C295C89F1D92C191C295FB
:10474000C89F1D92C191C295C89F1D92C191C295EB
:10475000C89F1D92C191C295C89F1D920895D09186
:104760004009D0FF0895D091196ADF70DF3009F455
:10477000DEE0B096C291DC17881FC291DC17881F5B
:10478000C291DC17881FC291DC17881FC291DC1709
:10479000881FC291DC17881FC291DC17881FC29145
:1047A000DC17881FD3D2C291DC17881FC291DC1797
:1047B000881FC291DC17881FC291DC17881FC29125
:1047C000DC17881FC291DC17881FC291DC17881F75
:1047D000C291DC17881FBAD2C291DC17881FC29120
:1047E000DC17881FC291DC17881FC291DC17881F55
:1047F000C291DC17881FC291DC17881FC291DC1799
:10480000881FC291DC17881FA1D2C291DC17881FB4
:10481000C291DC17881FC291DC17881FC291DC1778
:10482000881FC291DC17881FC291DC17881FC291B4
:10483000DC17881FC291DC17881F88D291D2089597
:10484000ACE6B0E706D08093AB6903D08093AA6949
:10485000089581E0EE910DD0881FE0F70895ACE651
:10486000B0E780E8ED9105D08795E0F78093AC69DB
:104870000895E7FBEF77E53410F0EE2712C0EF77ED
:104880001E2EE770F0E0EA55F74300801694169468
:104890001694E2E5F8E6E10DF21DE0810EF4E02564
:1048A000E021E19508950102040810204080ECE722
:1048B000F0E7ACEAB8EDDAE08191CD91C2118883DE
:1048C000E238D1F708951FB6F095F8940090A869E2
:1048D0000F220E2A0092A8691FBE08951FB6F095F8
:1048E000F8940090A9690F220E2A0092A9691FBEB0
:1048F0000895E091A769EE230895E0913A70E0935E
:104900008506FFB7F894E091A769E211EA95E09374
:10491000A769FFBFE1E0E0938606089512C00FC0CB
:104920001AC022C02AC032C03AC040C048C050C0DD
:104930007AC07BC085C063C06CC058C051C00EF443
:10494000F3C007C136F483FD04C182FDEDC080FFD2
:1049500090FFFFC0E9C036F483FDFBC082FDE4C0D8
:1049600080FF90FFF6C0E0C036F483FDF2C082FD08
:10497000DBC081FF90FDEDC0D7C036F483FDD4C00D
:1049800082FF80FDE6C090FDE4C0CEC036F483FD1A
:10499000CBC082FF81FDDDC090FFDBC0C5C0EEF75C
:1049A00083FF91FDC7C082FFC5C0B5C036F483FF49
:1049B00091FDC0C082FFBEC090FFCBC0ACC0EEF77F
:1049C00083FF91FDB7C082FFB5C090FDC2C0A3C0F8
:1049D000EEF783FF82FFAEC091FD08959CD0B0C07A
:1049E0001EF482FD089583FDB4C09EC07EF782FD53
:1049F0000895B3E0B823B21183FDABC095C036F77C
:104A000082FD0895B3E0B823B21183FDA2C089D01E
:104A10009DC0E6F682FD0895B3E0B823B21183FD90
:104A200098C076D08DC001D00BC06894E0E1B4FD91
:104A300012C0B6FD15C081FD089580FF11C00BC0E6
:104A4000E894E0E2B5FD07C0B7FD11C080FD089510
:104A500081FF0DC000C06091B5707091B67013C039
:104A6000E0E4B6FD0BC080FF90FF089507C0E0E8CA
:104A7000B7FD04C081FF90FD089500C06091B37040
:104A80007091B47000C0B0FD0BC0B3FF089583FFF8
:104A900091FD0895FE2F0E947C250E94EF1127C0F2
:104AA000B1FD0FC00E94ED1109F491FD08953CD0B5
:104AB00062957295EFB7E894E6FF68940E94EF1153
:104AC00016C00E94ED1111F491FFB3FD089541D07D
:104AD0000E94EF1109C08091AA699091A869A985E7
:104AE000B091AD69B3F90895E0E0FFE305C0E0914E
:104AF000AD690894EE1FF3E0EF23B091AD69F09536
:104B0000BF23BE2BE093AD69089529DD69F00895B8
:104B100029DD51F0089527DD39F0089528DD21F0D1
:104B2000089529DD09F00895E0E4EF83089517DD85
:104B300081F0089517DD69F0089515DD51F00895AD
:104B400016DD39F0089517DD21F0089518DD09F01C
:104B500008952F82089500000622940006229100F5
:104B600001000000010F010001000000010201012D
:104B70000401080F01000104010800010000020007
:104B80008102108102FF210703A002FE810701FFBD
:104B900000000200F10210F102FF210703A0000053
:104BA0000101140211F102FF210702800000080137
:104BB00001043010010F010008010104301001044C
:104BC00008080F01000001000000090F0104502037
:104BD0000702FF00010000000804010008000100B6
:104BE0000108010253110801010406010704C00471
:104BF000C040090F010702FF0000010F0101010180
:104C0000045020046010090F010702FF00000B038D
:104C1000010480400A00010702FF000008040101AE
:104C20000F030104010801010101080705FF00004D
:104C300008000100010F0A01000A0702FF0002003C
:104C4000F102FFB90200B90702FF000001000100F4
:104C5000010F010100130702FF00010F0101000114
:104C6000010F010100110704FF00010F0101000104
:104C7000010F01010001010F0101000F0706FF00F4
:104C800001000100010001080F010801010702FFF6
:104C90000000010011080F010801010702FF0000D8
:104CA00008000100010F14010000000001000000D5
:104CB000CB60CB64CB6CCB7ECB92CBA0CBAECBB856
:104CC000CBCACBD8CBE0CBFACC1CCC34CC3ECC502E
:104CD000CC5ACC6ACC84CC92CCA4CB60CB68CB76BB
:104CE000CBC6CBC6CBC6CBC6CBC6CBD4CBDCCC0ECF
:104CF000CC0ECC30CC4CCC4CCC80CC80CC80CCA05E
:104D0000CCA0CCACE0918171E0FD08952092060822
:104D100020921404049A0B98039A0E98069A0C9801
:104D2000049AA4E0A0934109A1E3A09340091ED0F6
:104D300005C00BD00AD009D008D012C004D003D0CF
:104D400002D001D00DC080E001C08FEF809580932C
:104D500044098091430987FFFCCF8091440908955D
:104D60000B9884E08A95F1F70B9A08958091430996
:104D70008091440908950895E0910608E6FF08959A
:104D8000E0E0F4E75F01E2E00093060BE093050B3F
:104D90000895E0910608E6FF0895E0E8F4E7A0E052
:104DA000B4E78191C4E09FEE87FD9C7F86FD9F78EC
:104DB0009D93880F880FCA95B1F7A7FFF2CF08958A
:104DC0009FEE80E8C0E0D4E70C942C121CC0499AF6
:104DD0000895499808954A9A08954A980895E09147
:104DE000AB69F0918069F030F0915970F0FF09F0F3
:104DF00006C0E064E068E093AB69E9DFECCFEF7BED
:104E0000EF77E093AB69E5DFE8CF2092AF692092BE
:104E1000B069089504D0FE2FE0E2EF1B0895E09101
:104E2000B069F091AF69EF1B08F4E1950895E09146
:104E3000B069F091AF698894EF1308940895C09118
:104E4000B069CF54D0E0D649B993E993F993A993C7
:104E5000C15BC03208F0CC27C093B0690895C091FF
:104E6000AF69CF54D0E0D649B991E991F991A991B0
:104E7000C15BC03208F0CC27C093AF69089590E3BE
:104E8000889410C0A881A823A81711F492E106C045
:104E9000A881A823A817B1F393E100C0A881A8179F
:104EA000A9F00894A0910210A1FDFCCFA0FDFACFBB
:104EB000ADE9A4BF9093001008F48993A4BFA1E0CA
:104EC000A0930010A0910210A1FDFCCF089599D0ED
:104ED0008AD009D00E949213E0939F69F093A06951
:104EE00020929A69089582E010904E6800904F6871
:104EF000F0914C68E0914D68EF01CD2BD9F4E09131
:104F00001070F4E6EF9FF0E0E211F0ECE0910F702A
:104F1000EF770E0E121C1F2A81E0E0910070EF77F0
:104F2000F0E0C0911970C5FF05C0F0910D70E091DF
:104F30000E70F06CE0934A69F0934B6900924C69F3
:104F400010924D690128E0E0F0E20210EF2FBBDC87
:104F500000C0CEEFD5E1809390689ACF19D1E0914F
:104F60009A6920929A69EE3020F4F0E0E754F84D07
:104F7000099408950CC00DC00EC00FC010C0089554
:104F800008950FC01EC027C010C013C016C00C94D7
:104F9000F0110C94F2110C94F6110C9400120C9474
:104FA000FB11F8946CDF0C94F011A0E0B3E48CE1F9
:104FB0005CC0A0E0B8E988E258C0A2E0B0E080E8B8
:104FC00054C0F89481E0C5DFEEECFFEC3DC0000179
:104FD000111213141D00ECEDFFEC36C000020506A3
:104FE000090A37383900D4D004D0D6D002D0D8D06E
:104FF00000C0B0E078D0B395A0919D69BA17D1F701
:105000000895E091FF15E03069F0EF3F09F037DFD8
:10501000BFD009D0C1D007D0C3D005D0CFEFD5E1E4
:1050200080E036DF0895B0E0A89506D0B395A09152
:105030009D69BA17D1F708953AD028F4D0919B69A9
:10504000CE2F8A2F1FCF0895F894A191EF93FF934D
:1050500095D0A895FF91EF91B191B15010F40C94B7
:10506000F011EF93FF93E8DFF5CFF8948F93BF93A0
:1050700085D0A895BF918F91B3958A9509F40C942A
:10508000F0118F93BF93D8DFF5CFE0919B69E431A6
:10509000EEE0EB0751F0E0910B70F0910C70EF1720
:1050A00021F0EF91EF9198940895189408954AD0C3
:1050B00033960994F0DF46D03196099426F0E5DF67
:1050C00041D032960994E1DFAF93F4DFEF91E3FB37
:1050D0000E940212E095AE23E0950EF0EE27AE2B73
:1050E00031D0329609942ED030960994A0E027C092
:1050F000EA81A98121C0EA81F0919B69A081F091A8
:105100009C69A08319C0EA81F0919C69A08114C0B8
:10511000EA81F0919C69B0919B6991DE0DC0E981B3
:10512000FA81A08109C0E981FA81A08305C00F92AC
:10513000C895A02D0F9000C0189408940895189455
:1051400088940895CB2FD0919D69CD1778F4D0E045
:10515000CC0FDD1FCC0FDD1FF0919E69DF0FE881C2
:10516000E43149F0F0E0EB56F34D0895C0E0DEED98
:10517000E5E9FCE20895E981FA810895B0E0B030F4
:1051800099F4A03029F0A13039F0A23049F00CC0D8
:10519000A4EDBAEDF0E00BC0AEE7BEEDF0E007C065
:1051A000A4E8B0EEF1E003C0A0E0BAEDF0E0A09317
:1051B0009D69B0939E69FC5EF0939B69F45AF093ED
:1051C0009C69089503C007C009C012C0A0910014D3
:1051D000A0930070B1CFA0910070AECFAA2339F098
:1051E00032F0E0E0F0E7B0919B6929DEA5CF7ECFF9
:1051F000E0E0A3E0A1CF7ACF02C003C077CFADE05B
:105200009BCF0E94EB1119F4A0939A6995CF6ECFB2
:1052100003C007C009C015C0A0910B14A0930B7068
:105220008BCFA0910B7088CFAF3F11F4A0910C7081
:10523000A03F30F4EBE0F0E7B0919B6900DE7CCF5B
:1052400055CFEBE0A1E078CF03C007C009C011C083
:10525000A0910C14A0930C706FCFA0910C706CCF28
:10526000A03F30F4ECE0F0E7B0919B69E8DD64CF5B
:105270003DCFECE0A1E060CF39CF06C037CF36CFCD
:1052800035CF05C033CF32CFE1E0F1E950CFE0E0D8
:10529000F1E94DCFE2E5FCE650C2D5EC47C248D279
:1052A000F7D146D2E0910210E1FDFACFC0DDC0F7A0
:1052B000D6DDC081CA17B1F3A083FB2FCDE9D3E1BE
:1052C000C4BFD0930010A083D1E0C4BFD09300101E
:1052D000D1E0D0930410D0930310E2CF80E390E0AC
:1052E0000E94802B0E94BA21CCD10E94C926C9D12C
:1052F0000E94BC26F3CF1CD20E941C140E94EF1106
:10530000C7D1F9CF4B98439AE2E5FCE61BD24B9A02
:1053100086E090E00E94802B4B98F6CF88EE93E0D9
:105320000E94802BA89560D20E94DE12FBCF0C94C5
:10533000C9220C94D01153CDE0919168E7FF05C0CC
:10534000EC3F30F4E0910A0BEF73EA95E09391683B
:105350000895F1E0EF2F80912069823308F4E0E0B6
:10536000BDDAE0912A6CF0918071F07FEF1708F0C0
:10537000EF2FF0918071F295F07FEF1708F4EF2F87
:10538000F091D769FE1719F008F0F250F395F093F9
:10539000D769F695F03108F4F0E1E0E8E0930C0B02
:1053A000F0930D0B0C940C140C940F14F8EDEEE329
:1053B000D9E6CBED82E10E94161214D037D03FD04F
:1053C00047D04FD057D05FD067D06FD0112722275A
:1053D000D9E0C9E9C093176AD093186A0895789400
:1053E0000C94F929EBEDF9E6E093146AF093156A51
:1053F00008950E944D2920921B6A20921C6A2092D7
:105400001D6A1D7FE0911B6AF0911C6AC0911D6AA4
:105410003196C21D11FDEFCF2223D1F3E0931B6A19
:10542000F0931C6AC0931D6A33D1ECCFEDE1FAE230
:10543000E093A46CF093A36C08950C944F29E6E2DA
:10544000FAE2E093A66CF093A56C0895A1E936C04A
:10545000EFE2FAE2E093CA6CF093C96C08950C9401
:105460006E29E8E3FAE2E093CC6CF093CB6C0895FC
:10547000A3E924C0E1E4FAE2E093CE6CF093CD6CB2
:105480000895A4E91BC0EAE4FAE2E093F26CF09319
:10549000F16C08950C947B29E3E5FAE2E093166D34
:1054A000F093156D08950C948229ECE5FAE2E093EF
:1054B0003A6DF093396D08950C948E290C94C413B1
:1054C00010FD82C0F093266AFFB7F093256A116041
:1054D000E093276AD093286AC093296AB0932A6A16
:1054E000A0932B6A90932C6A80932D6A10922E6A57
:1054F00000922F6AC091196AC395C093196A09F482
:105500001860CF7009F41460C0FD14C01061C09120
:10551000176AD091186AC15015F41062C97F10F44F
:105520001064C979D04010F41068D970C093176A1C
:10553000D093186A17FD58D079D00E94972914FD8E
:105540000E94992915FD0E949B2916FD0E949C2905
:1055500013FD0E94A92917FD0E94D42914FF1BC026
:10556000D9E6C1EFA1E0E881F981319788F071F4C3
:105570002A2BE883F983EA81FB81FE2B49F0FB812A
:105580000180A0950A22A095018202C0E883F983D8
:105590002496AA0F41F700902F6A10902E6A8091EE
:1055A0002D6A90912C6AA0912B6AB0912A6AC091C1
:1055B000296AD091286AE091276A1270F091256AD1
:1055C000FFBFF091266A0895F894E1E0F1E00E94AF
:1055D0002C2CFFEF3197F1F7E0E0F1E00E942C2C4A
:1055E000F0E43197F1F7F0CFE0911C6AF0911D6A79
:1055F000EE0FFF1FEBE8FE9F000C111CE4E6E11923
:10560000E0931A6A1260C0911F6AD091206AC09319
:10561000216AD093226AD695C795D695C795C0932F
:105620001E6A2092206A20921F6A0895E091196AEA
:10563000EF70E093166AEE0FF0E0EF5DF44D099421
:1056400008950C94BA110C94C1110C94C9110C94C6
:10565000202B0C94202B0C94202B0C94202B0C949E
:10566000202B0C94202B0C94202B0C94202B0C948E
:10567000202B0C94202B0C94202B0C94202B0C947E
:10568000202BF091116AFF0F11F02F1708F40895E5
:10569000E0911F6AF091206A3196E0931F6AF093BF
:1056A000206AC091146AD091156AEDB7FEB7E993EC
:1056B000F883E0E2F22FC0E8FF0F30F019F0C69552
:1056C000E450D1F7CC27EE27C093116AE093136A18
:1056D000E695E093126AD9E6CBEDCE0FD21DC093CA
:1056E000146AD093156AE991F881CFB7F894EDBFA9
:1056F000FEBFCFBF089591E0899FC00101C09927E7
:10570000CDEED9E6B091136ACB0FD21DBFB7F89496
:1057100088839983D091116AD0952D23BFBFB8CFCC
:1057200007D0B6CF03D0B4CFD091116A2D2B0895F6
:10573000D091116AD0952D23089520822182089559
:10574000689401C0E894D091116ABFB7F894C08101
:10575000CC2321F0CE7FC083BFBF0895C181CD2B64
:10576000C183BFBF0EF0DCCFCBCFBFB7F894C191E0
:10577000D081DD2321F4C160C293BFBF0895208290
:105780002292BFBF0DC0BFB7F894D081D260D19331
:10579000D081DD2311F4BFBF08952082BFBF00C0B8
:1057A000EDEEF9E6CD2F3496CC0F41F0E0F7F8940A
:1057B0002192219221922192BFBFF6CFB7CF2082B2
:1057C0000895BFB7F894A081AE7FA083BFBF0895AE
:1057D000F8DFB8CFE1E0F1E00E942C2C0895E0E082
:1057E000F1E00E942C2C0895C4E5DCE6EAE2F8ED35
:1057F0000C2E9FEFA191B191BF3F81F011968FEFD9
:1058000083951D901120E1F3821183958993981758
:1058100088F38211982F82110C2EECCF9093236A7B
:10582000C02DC655C093246A08955D6C816CA56C2B
:10583000A76CCB6CCD6CCF6CF36C176DFFFF806CDD
:10584000A26CA46CC86CCA6CCC6CF06C146D386D16
:105850000895E2E0F2E000C0EF23F0950090FE6BC7
:105860000F22E02906C0E0E004C0EFEF02C0EBE049
:1058700000C0E093FE6B00C0E091FE6B0C949813A7
:10588000EF23F0950090FF6B0F22E02908C0E0E0C5
:1058900006C0E5E504C0EFEF02C0E0E000C0E09321
:1058A000FF6B00C0E091FF6B0C94961300000000AA
:1058B000000031030000010507310080236C000166
:1058C0000040403100800000000231030000010769
:1058D00005310080256C000100404031008000004F
:1058E0000002110B00000142401100812D6C0001EB
:1058F000004040110080000000021103000001156B
:1059000040110080296C000100404011008000001F
:10591000000211030000010340110085276C000103
:1059200000404011008000000002E0CBDFCBDECB66
:10593000DDCBDCCBDDCBDACBD9CBDDCBE4CBE8CB1D
:10594000D7CBD4CBECCBD2CBD1CBD0CBE8CBEBCB22
:10595000CDCBCCCBCBCBCACBC9CBFFFFFFFFFFFF5F
:105A000014E2287F0801017F080802FF080803FF4D
:105A100008FF04FF088005FF0499000014FB28001C
:105A200008000603086407FF081008FF04040000CC
:105A30000800090008000A00140829FF142429FF9F
:105A400008C30DFF08E80EFF08000FFF080010FF55
:105A5000080011FF080012FF0800130008001400DE
:105A60000000000000000000080017FF089E181149
:105A7000080A1911101A7000040000FF04FF00FF4B
:105A80000000000000000000000000000000000016
:105A90000000000000000000000000000000000006
:105AA00000000000000000000000000000000000F6
:105AB00000000000000000000804290F08002A0F61
:105AC00008042B0F08002C0F08E72DFF080E2EFFEF
:105AD00000000000080030070800310F088032FF86
:105AE00000000000086434FF084135FF08B436FFA9
:105AF000088037FF088038FF088039FF08283AFF00
:105B000008023B0008A03CFF08033D7F08073E7FDA
:105B1000080C3F7F0810407F0815417F0819427F1D
:105B2000081E437F0822447F0827457F082B467FB5
:105B30000830477F0834487F0839497F083D4A7F4D
:105B400008424B7F08464C7F084B4D7F084F4E7FE5
:105B500008544F7F0858507F085D517F0861527F7D
:105B60000866537F086A547F086F557F0873567F15
:105B70000878577F087E587F080059FF0406000008
:105B80000C4068000C4168000C4268000C4368003F
:105B90000C4468000C4568000C4668000C4768001F
:105BA00008005AFF08005BFF040100000409000020
:105BB0000C01A1000C0091000C0191000C0091005F
:105BC0000C1180000C108000143C29FF144029FFA8
:105BD0000C1717000CFF15000C90680008015CFF03
:105BE00008025DFF08035EFF08045FFF080560FF11
:105BF000080661FF080762FF08FF63FF08FF64FFF4
:105C000008FF65FF08FF66FF08FF67FF08FF68FFE2
:105C100008FF69FF08086AFF08096BFF083D6CFF71
:105C2000083E6DFF083F6EFF08406FFF084170FFA0
:105C3000084271FF084372FF084473FF08FF74FFB6
:105C400008FF75FF08FF76FF08FF77FF08FF78FF62
:105C500008FF79FF08FF7AFF08FF7BFF08FF7CFF42
:105C600008FF7DFF08FF7EFF08FF7FFF08FF80FF22
:105C700008FF81FF000082000000830008FF84FF0E
:105C8000080085FF080086FF08FF87FF08FF88FFE0
:105C9000080089FF08008AFF08FF8BFF08FF8CFFC0
:105CA00008008DFF08008EFF08FF8FFF08FF90FFA0
:105CB000080091FF080092FF08FF93FF08FF94FF80
:105CC000080095FF080096FF08FF97FF08FF98FF60
:105CD000080099FF08009AFF08FF9BFF08FF9CFF40
:105CE00008009DFF08009EFF08FF9FFF08FFA0FF20
:105CF0000800A1FF0800A2FF08FFA3FF08FFA4FF00
:105D00000800A5FF0800A6FF08FFA7FF08FFA8FFDF
:105D10000800A9FF0800AAFF08FFABFF0887ACFF37
:105D20000803ADFF0800AEFF0820AFFF08E0B0FF9A
:105D30000880B1FF0880B2FF0825B3FF083FB4FF19
:105D40000853B5FF0833B6FF101A6C000455000065
:105E00000409000004010000000000000000000080
:105E10000C4368000C4268000C4168000C406800AC
:105E20000C4768000C4668000C4568000C4468008C
:105E30000C0875000C0975000C0A75000C0B750038
:105E40000C0C75000C0D75000C0E75000C0F750018
:105E50000C1075000C1175000C1275000C137500F8
:105E60000C1475000C1575000C1675000C177500D8
:105E70000C1875000C1975000C1A75000C1B7500B8
:105E80000C1C75000C1D75000C1E75000C1F750098
:105E90000C2075000C2175000C2275000C23750078
:105EA0000C2475000C2575000C2675000C27750058
:105EB0000C2875000C2975000C2A75000C2B750038
:105EC0000C2C75000C2D75000C2E75000C2F750018
:105ED0000C3075000C3175000C3275000C337500F8
:105EE0000C3475000C3575000C3675000C397500D6
:105EF0000C3A75000C1A75000C1B75000C0075002F
:105F00000C00750000000000000000000000000010
:105F10000000000000000000000000000C126C00F7
:105F20000C136C000C146C000C156C000C1A6C003B
:105F30000C1B6C000C8068000C8168000C826800EF
:105F40000C8368000C8868000C8968000C8A680063
:105F50000C8B68000C8C68000C8D68000C4269008A
:105F60000C4369000C4469000C4569000C4669004B
:105F70000C4769000C4869000C4969000C0A69006B
:105F80000C1B69000C1C69000C1E69000C326C00B3
:105F90000C336C000C046C000C0268000C036800ED
:105FA0000C0468000C0568000C0068000C01680017
:105FB0000CFD15000C546C000C556C000C566C005C
:105FC0000C576C000C586C000C596C000C5A6C008F
:105FD0000C5B6C000C5C6C000C2168000C206800F1
:105FE0000C2268000C4A69000C4B69000C4C6900DB
:105FF0000C4D690004550000FFFFFFFFFFFFFFFF8E
:10600000080000FF080401FF080F02FF08FF03FF5C
:10601000080004FF080205FF080D06FF08FF07FF40
:10602000080008FF080209FF08040AFF08FF0BFF29
:1060300008000CFF08030DFF080E0EFF08FF0FFFFE
:10604000080010FF080411FF081012FF08FF13FFDB
:10605000080014FF080415FF081016FF08FF17FFBB
:10606000080018FF080219FF08041AFF08FF1BFFA9
:1060700008001CFF08041DFF080F1EFF08FF1FFF7C
:10608000080020FF080421FF080F22FF08FF23FF5C
:10609000080024FF080225FF080D26FF08FF27FF40
:1060A000080028FF080229FF080D2AFF08FF2BFF20
:1060B00008002CFF08022DFF080D2EFF08FF2FFF00
:1060C000080030FF080231FF080D32FF08FF33FFE0
:1060D000080034FF080435FF080F36FF08FF37FFBC
:1060E000080038FF080439FF080F3AFF08FF3BFF9C
:1060F00008003CFF08043DFF080F3EFF08FF3FFF7C
:10610000080040FF080441FF080F42FF08FF43FF5B
:10611000080044FF080245FF080D46FF08FF47FF3F
:10612000080048FF080249FF080D4AFF08FF4BFF1F
:1061300008004CFF08024DFF080D4EFF08FF4FFFFF
:10614000080050FF080251FF080D52FF08FF53FFDF
:10615000080054FF080455FF080F56FF08FF57FFBB
