:020000020000FC
:100000000C9448000C9467020C9467020C94FD0158
:10001000010090D90000000021971769F012FA073B
:1000200019C21BC21DC21FC20EC1FCC00CC60DC628
:100030001FC21CC224C2D2C3D7C35CC45FC4E8C3FE
:10004000F2C3F9C38CC465C473C4DCC3D1C3D5C3C4
:1000500005C533C227C22CC275C37AC385C386C304
:100060008EC39AC3B1C3B5C3C0C423C12AC1B7C428
:10007000EAC3F4C3D0C310C519C52BC5E1C6E4C695
:10008000E6C6E8C6EDC6FBC60BC7E1C1DEC00EC1C1
:10009000F8942224E7E2F9E6EDBFFEBFE8EDF7E0D1
:1000A000E4BFF0930001A895E8EDF4E2E4BFF0931B
:1000B0006800E0914000E0934000EFBBE8EDE4BF52
:1000C000209201102BBEE8EDF0E6E4BFF0931001A2
:1000D000E0914101E211FCCF2092480120924901B8
:1000E000E1E0E0934001E0EFE093E205E3E0E0933C
:1000F000E305ECE0E093E405E0E0E093E505E0E013
:10010000E093E605E0E0E093E705E0E0E093E80552
:10011000E8E0E0933704E0933704E0933704E0939A
:100120003704E0E4F8E02682A0ECB0E0A087B187D5
:10013000A0E8A583A3E0A783A2ECA683279827982D
:100140002F9A2F9A279A279AF89BFB997AD068D0F2
:100150006998E0E8E0931004089A009AA0E8A09358
:100160007004A0935704609A479A279A279A209A76
:10017000219A229A239A279A279A279A279AF89BB4
:1001800006C0E0E0F0E6AFEFA193F836E8F3E0EC6C
:10019000F8E6FB99E0E4FB99F8E6F899E0E0F899D5
:1001A000F8E62192F038E8F3E0914801F091490136
:1001B000F230D0F3E2E036D042D0C3D2C2E040D534
:1001C000E0910090EF3F11F0E8D419F086D4E5D427
:1001D00009F490C1E1E071C1E0E0FAE020822182FF
:1001E00022822382AFE0A083E0E0FBE02082218234
:1001F000AEE6B1E0A487B587A1E0A583A5E0A08322
:10020000EAD2EFD2789408D01AD0C2E610D58FB3D4
:100210009927E0E017D273C0E0E004C0EFEF02C01E
:10022000EBE000C0E0FD689AE0FF6898E1FD4F9ABE
:10023000E1FF4F98E3FF619AE3FD61980895E0E0E4
:1002400002C0E0E000C0F0E000C0F0FF04C0E0FD4C
:100250002F9AE0FF2F98F1FF04C0E1FD2F9AE1FFF4
:100260002F98F2FF04C0E2FD289AE2FF2898F3FFDE
:1002700004C0E3FD299AE3FF2998F4FF04C0E4FDDC
:100280002A9AE4FF2A98F5FF04C0E5FD2B9AE5FFC2
:100290002B98F6FF04C0E6FD2F9AE6FF2F98F7FF94
:1002A00004C0E7FD2F9AE7FF2F980895E0E0FFEFE5
:1002B000CCCFF894E8EDF1E0E0933400F093410006
:1002C000FFCFF894A895E8EDE4BFE1E0E0930001EA
:1002D000FFCFCDD316D39681C1D30C92BED3CCC35E
:1002E000C6D3BBD39781BAD30CD309901C9001100D
:1002F0000C9211960197C9F7B0D3BED30895E7E2E7
:10030000F9E6EDBFFEBF222734E0EAE29BD1C091BF
:10031000006996D43CD1203491F324FD10C026FF0F
:10032000F9CFEEEBF3E0059000160590159019F467
:10033000F0010995E4CFEA3FB1F720FFEBCF00349D
:1003400049F7622F6370613029F720620DD17A3B43
:1003500021F46939A1F62061DDCF24FFD0CF7B3BAA
:1003600039F4693060F6C62F6BD4246031E0D2CF07
:100370007C3B21F422FFC3CF98D1CCCF7F3B51F6F9
:10038000603011F40AD0BBCF613009F40AD0B7CF86
:1003900068E08BC1C02F4BD4B2CF87D3E0EE52D1EF
:1003A000AECF9BD3EEEE4ED1AACF0053E1E00A953B
:1003B00012F0EE0FFCCFFEB3FE27FEBB089530D542
:1003C0000131D50132D50133D50134D50135D501FF
:1003D00036D50137D50153700252570264C8016106
:1003E000CA0162CA0163CA0165CA0166CA0173CA49
:1003F0000175CA016CCA01007F01EFB64F01E0919F
:100400004408E7FF13C0E72DE619E03C23FF08F09E
:100410002F9AE0914108E2FD82C0F0E7E72D70904D
:10042000400871927E2EF401EFBE1895E091060B04
:10043000E093060B761411F442104A943A9422F495
:10044000332EE1E0E0936704F401EFBE1895E0E09D
:10045000F0E00895EDE0F0E00895E0E9F9ED0895A9
:10046000E1E0F0E00895E0E9F9ED089503D0EDC38F
:1004700001D0E9C3AFE0B0E0C0E1D1E10895F8DF19
:10048000A193B193C193D193F1DFA193B193C193A0
:10049000D1930895DFEF672C94D06710FBCF21979D
:1004A000D9F7089517D048F00895EBE001C0EAE0CD
:1004B000CADE2092480120924901A895F8942F980D
:1004C000F0E208D0E8F7BFDEF0E404D0E8F7A4DEFD
:1004D000B6DEEFCE0090480100904901F015089576
:1004E000C0910069ADD359D3C9F4CF3911F0CB39DC
:1004F000A9F4D0DF209245082092000A2092000B38
:100500002092050B209248012092490193D1FE01CF
:10051000E050F048F695E795F8940994FBCEF894EE
:10052000209246082F98E8E07DDEE5E58CDEEFEFCF
:10053000A89500C000C000C0E211EA95379BF8CF33
:10054000E211F5CFC4CF8E2F99277DDEE8E06ADE79
:10055000E6EA78D0F0910D00E2E0F0FDEAE062DE3C
:1005600032E0672C2ED0F6CF04D0702F02D0602F4F
:10057000089507D002950F9304D00F900029F00E34
:10058000089505D00F7D075308F4095D089519D02B
:10059000421002C025FDB3CE7614C9F3F0E7E62D74
:1005A00000816394206442102F7B26FD2F7EFBE0A8
:1005B0004F2E21FF23950A3011F00D3009F42C7FC6
:1005C00000C00F01A89523FD06C0E72DE619E03213
:1005D00018F42F9801C02F9AF0010895019101D0CD
:1005E00003C00F93029501C00F930F70005D0A3393
:1005F00008F0095F1BD00F910895092FF0DF082F35
:10060000EECF0AE013D00DE011C0E0E0F1E1E6DF4B
:10061000E5DFE4DF0EE20AD029DFCE01EEDFCD0117
:10062000ECDF26DFCE01E9DFCD01E7CFD8E1C9DF7E
:100630000090440805FEFBCF21973799C1F700933E
:1006400042080895E0930169FDE0E0910169059198
:100650000DBBE0930169002391F012F0E7DFF4CFC6
:10066000E9990ED0EA9911D0EB991AD0EC99CDDF27
:10067000EE9913D0ED99B4D2E899C3DFE5CF089590
:10068000C591E0930169DCD292C20090006910909C
:1006900031690AE210100895C9CF09E0C7DF89C2A5
:1006A000EC9BABCFEC980EB39ACF6CBBE099BCD26D
:1006B000E19907D0E3999CD2E6991CCFE799F5CE52
:1006C000089517D1B7D0C0930269D09303695FDF53
:1006D00020FFFDCF0A33D9F74CDF502EF02E44DF38
:1006E000C0910269D0910369C60FD71F42DF003065
:1006F00031F00130F1F0023069F0E4E024CFFDD0B8
:1007000008945208A0F02AD1E5E0C8F032DF802F2B
:100710000ED1F6CF29DF660F771F660F771F660FA2
:10072000771F660F771F609302697093036903D088
:10073000CECF5AD100C01DDFF21411F0E6E003CF96
:100740000895BBD0C6EAD3E049D04EC0A89508951D
:10075000C487D5870895C93008F0C9E0DCE0CD9F93
:10076000E001CE5DD4470895F6DFADC0C083D183EC
:10077000C48BD58BCA0FDB1FC283D3830895A68F8A
:10078000A895C28FD38FD5D020F0C28DD38D21975D
:10079000B9F70895AA27BB27C48FD58FEC8FFD8F9B
:1007A000A895A28FB38FC48DD58DFE01B2D048F02D
:1007B000C48DD58DFE01BCD020F0A28DB38D1197D4
:1007C00079F708958FEF79D0868FA895B2D0E8F7A2
:1007D0000CC1FADF76CD71D0C1E4D5E0C68BD78BE2
:1007E00008956BD0CAE4D5E0C08FD18F089565D04D
:1007F00081D00ED018D027C260D07CD009D013D0C1
:1008000024C25BD0F5DF02841384C015D10508959E
:10081000C489D5890895C489D58900801180C019FB
:10082000D10908954AD0A281B38104881588A019FE
:10083000B109089542D0C081D18108953ED0C281CE
:10084000D38108953AD000801180C281D381C0192C
:10085000D10909F021960024021C08957CDFFE01D5
:1008600000801180C281D381F2CF0C2ECEE2DBE872
:100870001884101419F02C96CE38D1F70895DCE0C6
:10088000CD9FE001CE5DD4470895CE01CEE2DBE8F6
:10089000088019808015910530F00A801B80801532
:1008A000910531F028F02C96CE3891F708940895F0
:1008B00088940895A0E0B1E70895E8E2F9E6089584
:1008C000FCDFA487B5878CE0099001928A95E1F757
:1008D0003C97C481D5812197C095D095C28BD38B8D
:1008E000C081D181C687D787C08BD18B278E02D09C
:1008F0007EC0E3DFC081D18101C0DFDFC48BD58B37
:10090000089584819581A685B785C485D585089588
:10091000D4DF25D038F0C489D58950D020F0899112
:10092000C48BD58B089521968FEF0894F9CFC5DF3E
:10093000868F15D090F053D0C481D5812197A4899A
:10094000B589CA23DB231196A48BB58BA485B58505
:10095000CA0FDB1F868D888388940895AEDF0488D4
:100960001080011405881180010440F00488128071
:10097000011405881380010419F010F008940895FB
:10098000889408959ADFC489D589A685B785CA1742
:10099000DB0730F0A089B189CA17DB0719F010F026
:1009A000089408958894089588DFC685D78506D071
:1009B000A78DAE7F08F4A160A78F0895C034B0E181
:1009C000DB0748F0D63148F0D03628F0D03828F090
:1009D000D03908F002C00894089588940895D3DFB0
:1009E00010F403D004D0089568DF2BD026C0C4894A
:1009F000D58902881388C021D121C687D7878481F1
:100A00009581C80FD91F2197C08BD18BCEDF40F0C5
:100A1000A685B785C485D5850D9009920197E1F724
:100A20000895078C00FC07C06CDF09901D9001142D
:100A300019F40197D1F718940895F3DF09F050CC19
:100A40000895078C00FC08955CDF09901D9010202C
:100A500001103FCC0197C9F7089590E080910210F2
:100A60008370E1F78DE984BF9093001008950688A4
:100A70000F9207880F920895008C0F92018C0F92AD
:100A8000089528602F9AFF93F4E69BDDFA95E9F725
:100A9000FF910895277F95CDC2E066DE80E18093C7
:100AA0000110B0DE20920110089507DFEF01DFDFB3
:100AB0002DD069F09BE0D2DFE895CFDF92E0CEDF6A
:100AC00000801180E8953296F03AD1F7C6DFFE013A
:100AD000D3CFC2E049DE02D0F4CBEFDEFF93EF9339
:100AE000C6DFDADF81F412D071F094919F3F59F0A4
:100AF0009BE0B4DF0082B1DF92E0B0DF04900192AE
:100B0000F03AE1F7AADFEF91FF91B6CFE0E0F0E92C
:100B100094918191891711F4F03AD1F7E0E0F0E96E
:100B200008950000FFFF010000002D00000000A05C
:100B3000FFFF0002080266019FD90090FF9F00029C
:100B4000080262029BD90014FF1501001812650308
:100B50009ED980109F102000080263049CD90011C8
:100B60001F11010000007305000050105810010013
:100B70000000750600000060FF67000200006107CA
:100B80009AD940104F10010000006C0800000011BD
:100B90000011010000002D09000033DEA09304695C
:100BA000B0930569C0930669D09307690895F5DF8E
:100BB00006C0E0E1E0930110F0DF20920110E0EDCB
:100BC00009F4E6ED0ED0909107698091066915DD74
:100BD000909105698091046910DD02C0E0ED01C0CB
:100BE000ECEDFDE00591002311F020DDFBCF089531
:100BF00008DD7FDEF3DF61DE8489958900E1080F7F
:100C0000090FF02EE2E91EDD83DE38F0082FF00E2A
:100C1000E6DC53DE04890F70B9F7E0DFF1940F2DA5
:100C2000DEDC9CDE40F7089564DECCDDDDCE05D051
:100C30000091316900930069089517DE3BDE40CED4
:100C40001EDE38DE3DCEE89404C06894CA0FDB1F78
:100C500000C0EF93FF936FEF7FEFCB01FF27A895C5
:100C60000EF019900EF41A9008941794062E0F1E89
:100C7000969587957795679500FE08C0EDEE9E27BF
:100C8000E8EB8E27E3E87E27E0E26E27169471F703
:100C9000119728F790958095709560950E01DB016E
:100CA000EC018623872389238095FF91EF91089596
:100D0000A1811B5B34316D2E2E2E5B524553455411
:100D10002D885DA11B5B34346D2E2E2E5B524F4D02
:100D20002E4439392E6C65645D00A1814944205BF5
:100D3000905D814C3A208708523A201B5B33326D1C
:100D40004439395230303031A1533A208705553A71
:100D500020870681413A208707423A20C702433A5A
:100D6000208704453A208703463A20870181524F65
:100D70004D205B987C527C537C645D202D205B6110
:100D80007C627C637C657C667C6C7C737C755D3E80
:100D90002000813A31301B5B39346DA81B5B393040
:100DA0006D3030A0000081811B5B34356D2E2E2EFE
:100DB0005B4572726F722023885DA0202D203C62FB
:100DC0007265616B3E20746F20726573756D65008E
:100DD0001B5B39306D001B5B33326D001B5B6D009C
:100DE000A1811B5B34346D5B532D3E5D0000A181FE
:100DF0001B5B34346D5B3C2D525D0000FFFFFFFF39
:100E0000ACAAA9A5A3A69C9A999593968E8D8BB111
:100E1000B2B4B874726C6A696563665C5A595553AA
:100E2000564E4D4B4771E8E4E2D1C9C5D8D4D2CA79
:100E3000C6CC78171B1D1E2E363A272B2D3539337D
:100E40001ED00ED01CD00CC00BD019D009C017D0AA
:100E500007D015C005D0E991EF73E081ED930895B7
:100E6000E991EF70F881FF0FEE1FFF0FEE1FFEE814
:100E7000E081ED93E991EF73E081ED930895FEE851
:100E8000E881E695E695E081ED93E991E370E295DE
:100E9000F881F07FF295EF2BFEE8E081ED93089565
:100EA000FEE8E881E081ED930895FFFFFFFFFFFF7B
:100F0000005EBCE2613FDD83C29C7E20A3FD1F41E9
:100F10009DC3217FFCA2401E5F01E3BD3E6082DCD9
:100F2000237D9FC1421CFEA0E1BF5D0380DE3C62C9
:100F3000BEE0025CDF81633D7C22C09E1D43A1FFB9
:100F40004618FAA427799BC584DA3866E5BB5907A9
:100F5000DB856739BAE406581947A5FB7826C49A99
:100F6000653BD987045AB8E6A7F91B45C6987A2489
:100F7000F8A6441A99C7257B3A6486D85B05E7B979
:100F80008CD2306EEDB3510F4E10F2AC2F7193CD69
:100F9000114FADF3702ECC92D38D6F31B2EC0E5059
:100FA000AFF1134DCE90722C6D33D18F0C52B0EE49
:100FB000326C8ED0530DEFB1F0AE4C1291CF2D7339
:100FC000CA947628ABF517490856B4EA6937D58B29
:100FD0005709EBB536688AD495CB2977F4AA481619
:100FE000E9B7550B88D6346A2B7597C94A14F6A809
:100FF000742AC896154BA9F7B6E80A54D7896B35F9
:1010000087C0FFCFFFC7FFCFFFC7FFCFFFC7FFCF0F
:10101000FFC7FFCFFFC7FFCFFFC7FFCFFFC7FFCF80
:10102000FFC7FFCFFFC7FFCFFFC7FFCFFFC7FFCF70
:10103000FFC7FFCFFFC7FFCFFFC7FFCFFFC7FFCF60
:10104000FFC7FFCFFFC7FFCFFFC7FFCFFFC7FFCF50
:10105000FFC7FFCFFFC7FFCFFFC7FFCFFFC7FFCF40
:10106000FFC7FFCFFFC7FFCFFFC7FFCFFFC7FFCF30
:10107000FFC7FFCFFFC7FFCFFFC7FFCFFFC7FFCF20
:10108000FFC7FFCFFFC7FFCFFFC7FFCFFFC7FFCF10
:10109000FFC7FFCFFFC7FFCFFFC7FFCFFFC7FFCF00
:1010A000FFC7FFCFFFC7FFCFFFC7FFCFFFC7FFCFF0
:1010B000FFC7FFCFFFC7FFCFFFC7FFCFFFC7FFCFE0
:1010C000FFC7FFCFFFC7FFCFFFC7FFCFFFC7FFCFD0
:1010D000FFC7FFCFFFC7FFCFFFC7FFCFFFC7FFCFC0
:1010E000FFC7FFCFFFC7FFCFFFC7FFCFFFC7FFCFB0
:1010F000FFC7FFCFFFC7FFCFFFC7FFCFFFC7FFCFA0
:1011000001009BD901000000219717691CD46BD006
:10111000A895F8942224E8EDE4BF20921001E8EDB0
:10112000F1E0E4BFF0936200EFE1F9E6EDBFFEBF4E
:10113000E0E0F9E6C0E0DAE021922197E9F7CAD4CD
:1011400009F0CDD4D9D409F0DCD4EFB3E093026830
:10115000E0910468E395F999E0930468E0910368ED
:10116000E395FB99E0930368E0910068F0910168D2
:101170003196E0930068F0930168A7D4489A409AAA
:10118000E0E2F8E02682A0E8B1E0A087B1872582FE
:10119000A3E0A783A0E4A683E0E0F8E0A0E4B0E049
:1011A000A087B187A0E0A583A3E0A783A2E4A683DC
:1011B000A0E8A0931004089A009AE0E0F8E0B0E8F4
:1011C000A481A5FFFDCFAFEEA283BA95C9F7A9E030
:1011D000A093000A2092200A2092210AAFEFA09348
:1011E0000C0BA0930D0BA1E0A093000B2092010B20
:1011F000209274042092760464986698C9D4C8D466
:1012000024D4C6D4E0917F68E21175C0E0915068A3
:10121000E2110CC370C00C9410000C9411000C94DB
:1012200012000C9413000C9414000C9415000C94F0
:1012300016000C9417000C9418000C9419000C94D0
:101240001A000C941B000C941C000C941D000C94B0
:101250001E000C941F000C9420000C9421000C9490
:1012600022000C9423000C9424000C9425000C9470
:1012700026000C9427000C9428000C9429000C9450
:101280002A000C942B000C942C000C942D000C9430
:101290002E000C942F000C9430000C9431000C9410
:1012A00032000C9433000C9434000C9435000C94F0
:1012B00036000C9437000C9438000C9439000C94D0
:1012C0003A000C943B000C943C000C943D000C94B0
:1012D0003E000C943F000C9440000C9441000C9490
:1012E00042000C9443000C9444000C9445000C9470
:1012F00046000C944700C0E4D8E68DDFF993E993EB
:101300008CDFF993E99397DFE4E4F8E6D193C19396
:10131000B193A193A0914768AF77A16020925069E3
:10132000A093516915D3A0910091B0910191B88318
:10133000A983AFEFBFEFE09102A1EF3941F4E09153
:1013400003A1E93D21F4A09100A1B09101A1BA83CC
:10135000AB832C8203D3288229822A822B822C827F
:1013600000D3E0E0F1E9A081B181B883A9839BB704
:1013700081E08BBFA081B1819BBFBA83AB832C82FC
:10138000E8EEF3E0E0932369F09324690091FE1501
:101390004427E0914468E093256921E09DC1909144
:1013A000366980E0FA81943081F08B81953069F064
:1013B00031FD7BC18D81983009F07BC1EA81E093DA
:1013C0002068EB81E0932168FC81F09322682092F1
:1013D0002369209224695DD123E083C2F6D18E81F6
:1013E00080934A688F8180934B6888858093486892
:1013F0008985809349688A854CD127E076C2EAD1F5
:1014000027E07FC2E7D1909136699D3080E090E07F
:1014100011F09B858C8590934E6880934F688885EA
:1014200080934C68898580934D688A8582FD04D2BB
:1014300083708093506828E071D280915068821147
:10144000EED14AC190913669953011F0983011F47F
:10145000EA8116C0973011F09A3019F4C0D1EC81AE
:101460000FC0993011F09C3019F4AFD1EE8108C053
:101470009B3011F09E3019F4ADD1E88501C019C13F
:10148000EC3080F4F0E0EA5BF54F0994D3C0D3C0B0
:10149000D4C0D4C0D3C0D2C0D5C0D5C0DBC0E1C099
:1014A000E9C0EEC019C19BD18C818093A46B3885B3
:1014B0004985823011F430FD0FC128E1E19A30FDF9
:1014C00031D230FF32D2C7E0E4E8FBE6E0DEC09183
:1014D000A46BE1D1DCDEDAD08E819F81D5D1EDEE37
:1014E000DE2EE8EBCE2EE3E8BE2EE0E2AE2EEFEFEE
:1014F0009E2E8E2E7E2E6E2EB4D1EEC070D10C801C
:1015000009140D8008040E8007040F80060428E2E9
:1015100011F428E4A6D1D3C162D128E7ADD1D6C158
:101520005ED128E5D3C15BD128E03E7F4427C7C107
:1015300056D1B1D190913669963019F08C8130FD39
:10154000AEDE30FDB0DEC8C030FDADC09091366972
:10155000933009F405C0953011F441D101C0A9C000
:101560009AD17FDE8093486911D07BDE80934969F0
:101570000DD077DE80934A6909D073DE80934B6982
:1015800005D09295909590934C69F8C1991F90FD64
:1015900008950894879582D18695E9F7089530FFDC
:1015A00082C090913669933009F420C0953011F4CF
:1015B00016D11CC09B3011F4229606C09D3019F440
:1015C0000ED1249601C075C078E0699108946795A2
:1015D00065D16695E9F77A95C1F7A8E0B0E028975C
:1015E000E4E8FBE656DEA8E0B0E01BC0CFD081F413
:1015F00078F0A0E0B2E760E8C9D011F4E8F748F06D
:101600008FB74CD18FBF6795B8F76D93A13898F31A
:1016100063C0A050B247C0E0D2E7E4E8FBE639DEA1
:1016200000C0C4E8DBE637D130FD37DE30FD41DEF7
:1016300053C052C05FC15DD13ACE5CC15AD1EFD028
:1016400002E04AC05BC19E3009F046C056D123D1AA
:101650003CDE42C09E3009F03FC04FD11CD133DE8A
:101660003BC047D1C1E001D2CF3919F4D93D09F4CB
:10167000C8D41DCE3ED1C1E00ED109DE8FEF11CE10
:1016800038D1C3E008D103DE8FEF0BCEC6E2D9E636
:10169000089590910A0B982392111EC0089584E436
:1016A0000CC082E50AC08DE408C083E406C085E46E
:1016B00004C08CE402C084E500C06AD20DC0C091B1
:1016C0002369D0912469219738F0C0932369D0937E
:1016D000246911F4B1D0B3CFEFE1F9E6EDBFFEBF5D
:1016E00057D256D2AFD02CBA6AE050D01130A1F701
:1016F0006A95D9F74BD081F7E8F3913808F4309424
:10170000C5DF7727EE2761E041D0A9F6661FE0F735
:1017100069937627C63368F639D069F620F0E62754
:10172000FFE8E081F0CF7211C2CFE09337693D7FCF
:10173000E2113260C652C0933669A8DFE881ED3FFE
:1017400069F000FD7CCFF981EF2BEA81EF2B29F4C2
:10175000E0913669E33009F472CFB1CF6981603F1F
:1017600008F4BACF6F70E4ECF9E9660F660FE60F84
:10177000F21D0190022209F496CF019000FE02C0F2
:1017800031FD93CF01901080F0010994A8951127A5
:101790000EB0032404FEFCCF9091200A2092200A70
:1017A0002092210A0EB0032404FCFCCF8091200A71
:1017B0002092200A2092210A8D31111F813810FDBC
:1017C0008F30111F012E06940895E0E4F8E684E0BE
:1017D0001DD00CC0E4E4F8E686E018D007C00FD0B6
:1017E00029F00AD019F005D009F00CD0821174CF7D
:1017F0000895EAE4F8E609C0E8E4F8E606C0ECE497
:10180000F8E603C0EEE4F8E600C082E0DE011296DE
:1018100001901D90011411F48A95D1F70895C1E04B
:1018200024D1CF3911F4D93D09F00895B1D1E09117
:1018300005A1E0FD01D0E4C3E8EDE4BFE5E8E093F5
:1018400001100895F0E44211F0E1E0914801E091C7
:101850004901EF23E21103C000C077D18AC179D1D9
:101860008EC117D00E0112DF6A8A7B8A8C8A9D8A0C
:101870000F8A188E298E089509DF6A887B888C88E4
:101880009D888F89988D00C006D0E7DCC80FD91FCE
:10189000DECC01D014CDE4E6FBE6089530F096945A
:1018A00087947794679430F009C0969487947794DE
:1018B000679420F09D248C247B246A24089554D0BE
:1018C000988289827A826B822C8259C0E2DFDE01A3
:1018D0008091A46B49D088832982BA83AB832C8200
:1018E0004EC0E0E4F8E692E045C0E4E4F8E690E0BB
:1018F00041C0E19A33D024D042C0E19A32D020D006
:101900003EC029D03CC0E19A32D0ED01ECE3E8833F
:10191000E983EA83EB83EC83ED8334C0E19A18D04A
:101920000FD02DC0C4E0DAE92AC0C091A46BC5DC99
:10193000DE011AD00882B983AA832B822C821FC0B1
:10194000E0910110E470FC81FB7FFE2BFC83089585
:10195000C5E5D9E60895C0E5D9E60895CAE5D9E612
:101960000895CFE5D9E60895C8E4D9E60895A0E43E
:10197000B9E60895F9DF84E05AD09883F5DFF7DF00
:10198000AADC00C097E712D09DEA10D0F0DF86E015
:101990009091240895FFFCCF9D91909322088A9501
:1019A000B9F78AE2F5D0E19B97CE08950090200A1E
:1019B0000916E0F32092200A2092210A749B76995E
:1019C00070CE08950100CF090201EE090401FF095C
:1019D0000401020A0000190B0000190B0000190B8A
:1019E000FF01220A0801530A70017E0A20018C0AB5
:1019F0004001900A1001930A1001980A1000A40AED
:101A00001000CF0A02003214FFFFF89468D0F89457
:101A100078D00C945509F89458D069D00C94550995
:101A20000E94A90DF894A895FFCF0C945709019036
:101A300009928A95E1F7089529928A95E9F7089520
:101A400020822182228223820895E4E8FBE60E941C
:101A50004309C4E6D9E60E944509E4E6FBE60E9494
:101A60004309C4E6D9E60C944509E4E8FBE60E9484
:101A700047090C9437091FD005FE0EC001800DC028
:101A80001AD006FE09C001800AC015D007FE04C0A6
:101A9000018007C010D039F00895000C111C000C13
:101AA000111C000C111C10820FB6F89421822282A6
:101AB00023820FBE08951180100C11821280121C17
:101AC00012820380039403820895C0E0D8E6AAE15D
:101AD000B0E01FC0C0E0D8E6AEE1B0E027C0C0E093
:101AE000D8E680E4A9DFEFEFE0931F680895C0E433
:101AF000D8E6AAE3B0E00DC0C0E4D8E6AEE3B0E0BB
:101B000015C0C0E4D8E680E897DFEFEFE0937F6888
:101B100008950E941709F001A095B095C095D09541
:101B2000A083B183C283D383248208950E941709BE
:101B3000F00180830895E2E0F2E000C0EF23F09529
:101B4000009020690F22E02906C0E0E004C0EFEF1A
:101B500002C0EBE000C0E093206900C0E091206982
:101B60000C941509EF23F095009021690F22E029CC
:101B700008C0E0E006C0E5E504C0EFEF02C0E0E029
:101B800000C0E093216900C0E09121690C94130921
:101B90000895FFFFFFFFFFFFFFFFFFFFFFFFFFFFB6
:1020000030C1089581E084C082E082C083E080C056
:10201000E9D0ECC085E07CC086E07AC087E078C07B
:1020200088E076C089E074C08AE072C08BE070C03E
:1020300072C000008FC000008EE06AC08FE068C0F0
:1020400080E166C081E164C082E162C083E160C07A
:1020500084E15EC085E15CC086E15AC087E158C07A
:10206000C7C0000089E154C08AE152C08BE150C072
:102070008CE14EC08DE14CC08EE14AC08FE148C07A
:1020800080E246C081E244C082E242C0E4C0000077
:1020900084E23EC085E23CC086E23AC087E238C0B6
:1020A00088E236C089E234C08AE232C08BE230C0B6
:1020B0008CE22EC08DE22CC08EE22AC08FE228C0B6
:1020C00080E326C081E324C082E322C083E320C0F2
:1020D00084E31EC085E31CC086E31AC087E318C0F2
:1020E00088E316C089E314C08AE312C08BE310C0F2
:1020F0008CE30EC08DE30CC08EE30AC08FE308C0F2
:1021000001009FD9020100002197176925BFBFDC9C
:10211000E82F0C9421123F010FB7E2E0E093060B89
:102120003A953AF4E82DE03281F0F4E791908E2E62
:1021300033E0EFEE97FCEC7F96FCEF78990C990C6E
:10214000E09302080FBFF30118952092050B0FBF13
:10215000F3011895E89B06C0E89820921301C092FD
:1021600022081895FF93EF93EFB7EF93DF93CF9388
:10217000BF93AF93E0911C0BF0911D0BA0910069F0
:10218000B0910169E0930069F0930169EA1BE09363
:102190000269FB0BF09303696894B2E0E037FB0738
:1021A00008F4ED9AB3E0EC30FB0730F0E894B4E0CB
:1021B000E833FB0708F4ED9AF091140BE0E1A091ED
:1021C0001B69EE9BFE27EE98E3E0A211E4E0E093AA
:1021D0004102F093140BEFEFE093160BE0910469CA
:1021E000FFE1099401E00093530118950C943D2AF6
:1021F0003F01E091D169F091D269009110060193FD
:10220000009111060083E091D369F091D4690191A6
:1022100000930C06019100930806019100930906B2
:102220000191009300060191009301060191009332
:10223000A00001910093D16901910093D2690191AD
:1022400000930B06019100930A06E093D369F09383
:10225000D469F30118950FB72092031021600FBFC6
:102260001895A895F89422242DBAE8EDE4BFE5E886
:10227000E0930110EEE7FCE6EDBFFEBFE0E0F9E61B
:10228000C0E2DBE021922197E9F720924508ACE417
:10229000A0931202AEE4A0931302A3E0A093410224
:1022A0004A98429A4998419A2092000AA0E8A0933D
:1022B00012040A98029AE0E0FBE02082A7E1A183E1
:1022C0002582A0E8A487A0E0A587A3E0A083E0E1A1
:1022D000FBE02082A2E0A183A1E4A483A1E0A68385
:1022E000A583A3E0A083A0915101A0FDFCCFA9E1AB
:1022F000A0935001A1E0A0935301A0935201A4E048
:10230000A093B504A598E0E0F6E0A1E1A083A0E0E9
:10231000A183ABE0A283A0E0A383A0E0A483A2E01A
:10232000A0930506A2E4A087A2E4A1870E94102C36
:10233000E8EDE4BFE9E0E0930001E1E0E093500064
:102340000E94781B0E94DA1E0E94052C0E94052C18
:102350000E94E3260E9445275DD211D694D40E94A4
:1023600027290E94B3290E9487210E9469260E9482
:10237000B8260E94C4260E94052CE1E0E093506834
:102380000DD1EFEFE093160BE0935301E0930410AF
:102390000C94CC29E0E5FCE60C94922BE7E08091CC
:1023A000176A84FFE093010B0895E4EBF8ED809148
:1023B000176A84FF0C9436130895E7E1E093010B4C
:1023C000ECECF8ED0C943613E0E0909151689F77B7
:1023D00009F0E260F0911B69F0FDE46080913070DB
:1023E0009091516882FD909597FFE160FFE10E9416
:1023F0005124F0E0E0FDF160F0930E6C0895EE27BB
:102400000895189408950895F894C0D0F894D0D001
:102410000C94E413F894B0D0C1D00C94E4130E944F
:10242000142CF894A895FFCF0C94E613E770F0E015
:10243000E85CFB45E081089501020408102040801B
:10244000ECE3F894AEE7BCE6ADBFBEBF0E942C2C17
:10245000A895FECF019009928A95E1F70895019021
:102460001990011411F48A95D1F7089529928A954B
:10247000E9F70895208221822282238208959FEF26
:1024800099938A95E9F70895E0E0FFE80990E0253F
:10249000E0818A95D9F7EE230895799FE001689F3E
:1024A000D001699FB00DC11DD21D789FB00DC11D17
:1024B000D21D089580E406C080E204C080E102C01D
:1024C00088E000C0C083D183828323822482258256
:1024D000CDCF11D00BC00FD007C00DD003C00BD093
:1024E000AA0FBB1FAA0FBB1FAA0FBB1FAA0FBB1FA0
:1024F000AA0FBB1F0895B381A081AB0FB181B21D9C
:10250000DC91CC93A481B581AD1BB209AC0FB21D97
:10251000A483B583C281D381D395DC1708F0DD276E
:10252000D38308951FD005FE0EC001800DC01AD0C0
:1025300006FE09C001800AC015D007FE04C0018054
:1025400007C010D039F00895000C111C000C111CAC
:10255000000C111C10820FB6F89421822282238273
:102560000FBE08951180100C11821280121C12826D
:102570000380039403820895C0E0D8E6AAE1B0E0A6
:102580001FC0C0E0D8E6AEE1B0E027C0C0E0D8E6AA
:1025900080E46CDFEFEFE0931F680895C0E4D8E6B5
:1025A000AAE3B0E00DC0C0E4D8E6AEE3B0E015C0E9
:1025B000C0E4D8E680E85ADFEFEFE0937F68089543
:1025C0000E94A613F001A095B095C095D095A08368
:1025D000B183C283D383248208950E94A613F0019D
:1025E00080830895E0913B70E53008F0E2E0F0E090
:1025F000E550FD4E099421C01EC00AC006C000C0AF
:1026000080918868209288681AC08091FE6B17C0FC
:1026100090914C6880914D68892B31F00CD009D095
:1026200014D009D006D014C006D003D014C00C9426
:10263000C72B0C94CC2BFBDF05C0FBDF03C0821142
:10264000FACFFBCF82E390E009C088EC90E006C0AF
:1026500088EE93E003C082EE94E000C00C945D2B02
:10266000E091D169F091D269EF2B0895CF93C09199
:10267000D169C21106C0C091D269C21102C0CF9106
:1026800003C0CF9188940895CF93C2E0C0930A0607
:10269000C1E0C0930D06C191C0930006C191C093E3
:1026A0000206C191C0930306C191C0930406C19173
:1026B000C0930C06C191C0930806C191C09309064E
:1026C000C191C0930006C191C0930106C191C0930E
:1026D000A000C191C093D169C191C093D269C19149
:1026E000C0930B06C191C0930A06E093D369F0939F
:1026F000D469CF91089408957695679576956795F6
:10270000769567957695679580910611909107115A
:10271000861B970B6091041170910511BEDEC69562
:10272000B795C695B795C695B795C695B7957C2FBD
:102730006B2F08950C9410000C9411000C9412004F
:102740000C9413000C9414000C9415000C941600B7
:102750000C9417000C9418000C9419000C941A0097
:102760000C941B000C941C000C941D000C941E0077
:102770000C941F000C9420000C9421000C94220057
:102780000C9423000C9424000C9425000C94260037
:102790000C9427000C9428000C9429000C942A0017
:1027A0000C942B000C942C000C942D000C942E00F7
:1027B0000C942F000C9430000C9431000C943200D7
:1027C0000C9433000C9434000C9435000C943600B7
:1027D0000C9437000C9438000C9439000C943A0097
:1027E0000C943B000C943C000C943D000C943E0077
:1027F0000C943F000C9440000C9441000C94420057
:102800000C9443000C9444000C9445000C94460036
:102810000C944700D4D5EFE7E093026CE8E3FCE6C4
:10282000C0E6D3E749DEEEE3FCE6C0E8D3E744CEFA
:10283000809152680895F894E0917B6920927B69B9
:102840007894E03009F40895EF3208F0DCCDC091BF
:102850007969D9E6E05DF0E0FB4E09950C945F14D0
:10286000D2CDE8C011C115C1CECDCDCDCCCDCBCD13
:10287000CACDC9CD39C14DC16BC179C18CC19FC110
:10288000B2C1C5C1D8C1EBC1B3C0BDCDBCCDBBCDFC
:10289000BACDB9CDB8CDB7CDB6CDB5CDB4CDB3CD1C
:1028A000B2CDB6C0B0CDAFCDAECDADCDB0C0F6C11E
:1028B000F5C1F4C1F3C1F2C1F0C10CC2F0C1A895D9
:1028C000F89460912B6C70912C6C789415DFEB016F
:1028D000CF5DD040EAE0FCE60C2E24DE6894E09167
:1028E0001B69F0913070EF27E0FDE894D091216CE6
:1028F000C091226CC7FF05C0C095D195CF4FC7FDD1
:10290000CFE7DD0FCC1FE8E3FCE6E5DD16F0B09382
:10291000306C16F4B093316CD091236CC091246C60
:10292000C7FF05C0C095D195CF4FC7FDCFE7DD0FDD
:10293000CC1FEEE3FCE6CFDD16F4B093306C16F05E
:10294000B093316CA091306CAB0FA795A0931E692A
:10295000A25308F4A0E0A0930F6CA091306CB0914A
:10296000316CAB1BA058E2E0FCE60A2EDBDDC09127
:10297000266CCA5508F4C0E0C43608F0C4E6C69513
:10298000E6E0FCE60C2ECEDDE091A069F091A269B4
:10299000EF1708F4EF2FE093A369E093A46980E0B8
:1029A000A0913470A093A306B0ECAB9FB091066CDD
:1029B000B11508F08160A0913570B0910A6CB253E6
:1029C00008F4B0E0BA1708F08460A0913670B091B6
:1029D0001E69BA1708F088600E94672409F08260B7
:1029E0008093FE6B90911A70982B90931A700895B3
:1029F00020925168E2E5F8E62192219221922192FB
:102A000021922192219221922192C8DD3CC1089508
:102A1000E0917C69E33019F099818A8103C090E0EC
:102A200089818F77EFB7F89480934A6990934B69C7
:102A3000EFBF0895E881E4FBEE0FE0F9E6FBEF71EC
:102A4000E43010F4E6950DC0E450F0E08091197088
:102A500084FDE35C84FDFF4884FFE45984FFF54571
:102A6000E081E7F994D1EF1399DD0FC103070C1052
:102A700015191E22272B3034393D42464B4F5458EE
:102A80005D61666A6F73787EE98181D1EF1386DDBF
:102A9000FCC0E9817CD1FE27F0E08A8190915268E8
:102AA000809352688927F82BE0917C69E530C8F063
:102AB0008B8190915368809353688927F82BE63077
:102AC00080F08C8190915468809354688927F82B0A
:102AD000E73038F08D81909155688093556889274B
:102AE000F82BF2115BDDCFC0FF27E0914C6980919C
:102AF0004D698695EE1FE095EF71888184FB880F04
:102B000080F9909152683CD180935268F21146DD71
:102B1000BEC0FF2788818295880F90915268E0910E
:102B20004C69EE0FE095E07E2BD18093526888814E
:102B3000880F829590915368E0914C69EE0FEE1FDB
:102B4000E095E1701DD180935368F21127DD9FC09D
:102B5000FF278881880F90915368E0914D69E09537
:102B6000EE710ED180935368F21118DD90C0FF27EB
:102B7000E0914D69E5FD0895898190915368F7D002
:102B800080935368898190915468F5D080935468FC
:102B9000F21104DD7CC0FF27E0914D69E5FD089549
:102BA000898190915468E3D0809354688981909191
:102BB0005568E1D080935568F211F0DC68C0FF27BA
:102BC000E0914D69E6FD0895898190915568CFD0D7
:102BD00080935568898190915668CDD080935668CE
:102BE000F211DCDC54C0FF27E0914D69E6FD089549
:102BF000898190915668BBD0809356688981909165
:102C00005768B9D080935768F211C8DC40C0FF27DD
:102C1000E0914D69E6FD0895898190915768A7D0AC
:102C200080935768898190915868A5D0809358689F
:102C3000F211B4DC2CC0FF27E0914D69E6FD089548
:102C400089819091586893D0809358688981909138
:102C5000596891D080935968F211A0DC18C0FF2701
:102C6000E0914D69E6FD08958981909159687FD082
:102C700080935968898190915A687DD080935A6871
:102C8000F2118CDC04C001D002C0BDDBADC3809169
:102C9000526880915368B7DBA7C380CC0895AFDB3F
:102CA000C1F430D031F482E0CEEFD5E10E94262786
:102CB000ADCB80917C69853038F02196E0E2F8E672
:102CC00083E0CDDB31F0A2CBF981E0912268FE13E5
:102CD0009DCB0895E881E93008F00895F0E0EE58C2
:102CE000F94E099408C008C008C008C008950895A6
:102CF000089508950895089587CB86CBE1E0E09389
:102D000050684CCCF0914C68E0914D68EF2B0895E1
:102D1000E23060F10090057010900170011803948A
:102D200000928E6800900470109005700118039452
:102D300000928F68FE2FE03408F0FFE300908E6869
:102D40000F9E000C111CF0910170F695F10DE0340E
:102D500038F0EF5300908F680E9E000C111CF10D9F
:102D6000EF2FE7FDEFE7E23008F4E2E00895829507
:102D7000880FE0EE05C0869586958695EFE100C048
:102D80008E23E095E9238E2B9827F92B0895FE2FAB
:102D900080914E6982110895F0910F70F078EC994E
:102DA000EF2780911970F0E880FDEF27809122686D
:102DB000F0911B69F07887FDEF27E7FBEF77A8DF3D
:102DC000E7F9F0915168E09351680895749B05C04C
:102DD000ECE6F8ED4BCC7499FBCFE4E8F8ED46CC8B
:102DE000A881A3700E949B28B981CF93DF930E9492
:102DF0003728DF91CF91689409F4E89440F5F88181
:102E0000EA81FC7039F0F43031F0FC3041F0E4FF3D
:102E100014C00CC01CC0DEF0AE17C1F018C0AE2F3D
:102E20000E943C28A1F498F4216010C0AE2F0E94AB
:102E3000402869F460F4216009C04EF0E3FBF6DA43
:102E4000AE230EF0EE27EA2709F001C0A3CA0895C9
:102E5000A881A3700E949B28B9810E94372821F481
:102E600008F00BC3EA2F0CC3FDC2AA81B9810E94EE
:102E70009C28E881E370E0931C6CBB810E9437289A
:102E8000B9F4A0931D6CB3950E94372889F4A093E0
:102E90001E6CB3950E94372859F4A0931F6CB3950C
:102EA0000E94372829F4A093206CCCE1DCE6EAC22A
:102EB000D9C2E89402C0689400C089F40E94E82650
:102EC000E53068F0A881A3700E949B28B981AA818F
:102ED0000E943B2829F418F42160EA2FD1C2CDC208
:102EE000C1C2B9F50E94E826E13198F1B981AA8101
:102EF0000E949C28ECE1FCE6A881A370A083AC8131
:102F0000A183BD81B283BE81B383BF81B483BB8102
:102F10000E943C28F9F4A0931D6CB395A0911E6CFF
:102F20000E943C28B9F4A0931E6CB395A0911F6C2D
:102F30000E943C2879F4A0931F6CB395A091206C5B
:102F40000E943C2839F4A093206C2160CCE1DCE69F
:102F500099C293C287C20E94F52678F0A0E00E9431
:102F60009B28BCE10E94372849F4E881E0FBA5F9E1
:102F70000E943C2819F421609AC27FC273C2E0EF1C
:102F8000E09380690E949A13E09381690E94AA13DA
:102F9000D0938269C0938369B0938469A093856953
:102FA000CCE8D9E6E0E8E88385E00E944412E883B3
:102FB000C6E8D9E6E0EDE883E0E0E983E0E0EA8313
:102FC0002B822C8285E00E944412E88322D000C02C
:102FD000F7E0E0910A0BEF230DC0E0919669F091C4
:102FE0009769EA953AF4FF0FF760FF77E0910A0BD3
:102FF000EF2300C0E0939669F09397690895F091EC
:103000004C68E0914D68EF2B0895E0919569EE23AF
:103010000895209295690895F0919469E0939469D8
:10302000FE1B08F4F195F53008F0F3CF0895CF9327
:10303000DF93E0E8F9E6A991AF70B191BF70AB17EB
:1030400031F4A991B191AB1711F4E638D1F7DF91C2
:10305000CF9108958F93EAE6F9E6A0917C698A2FD3
:103060008C0FB081A193BA17A081B991BA07B1931F
:103070008C13FACFC09179698F910895E2E013C063
:10308000E3E011C0E4E00FC0E5E00DC0E6E00BC0F6
:10309000EAE009C0E3E0F4E007C0E4E0F7E004C0E0
:1030A000E6E0F9E001C0FE2FAE1718F0FA1708F0BD
:1030B0000895E0918C68F0918D683196E0938C686A
:1030C000F0938D68E0918468E395E0938468EF91D4
:1030D000EF9100C0E0E0AAC08BD1E5E2A7C0CEDF4F
:1030E000EFE1A4C0CBDFE3D1E1E0A0C0C9DFDFD1D5
:1030F000E6E29CC0C5DFDBD1E2E098C0CEDFD7D1ED
:10310000E3E094C0BFDFB6D1E4E090C0C3DFACD150
:10311000E1E28CC0B3DFA8D1E2E288C0AFDFAAD180
:10312000E3E284C0B3DFE5E081C0ACDFE6E07EC06F
:10313000ABDFE7E07BC0A4DF9DD1E8E077C0A2DF92
:1031400099D1E9E073C09ADFB2D1EAE06FC096DFAF
:10315000AED1EBE06BC092DFAAD1ECE067C090DFAC
:10316000A6D1EDE063C08CDFA2D1EEE05FC088DFC6
:103170009ED1EFE05BC084DF9AD1E0E157C080DFF1
:1031800096D1E1E153C07CDF92D1E2E14FC078DF1C
:103190008ED1E3E14BC072DFE0917E69E395E211ED
:1031A000E0937E69E4E144C069DF64D1E5E13EC0BB
:1031B00071DF60D1E6E13AC0A43011F098F425C087
:1031C000E881E3FD05C0E2FF1DC042DEE7E12EC05D
:1031D000E2FF04C03FDF6DDEE8E128C03BDF6BDECD
:1031E000E9E124C0E881FE2FE370F3FD06C0F2FFA1
:1031F00009C04ADF3ADEEAE119C052DF2BDF71DE97
:10320000EBE114C037D1EDE111C034D1E4E20EC0DE
:10321000E0E20CC03FDFE0917F69E395E211E093CB
:103220007F69E23009F4DCDDECE104C020927E69C4
:1032300020927F69E0937B69E0910A69E0937A6963
:103240002062089521DFEA81E7DED9DE39F4DDDE90
:1032500029F4C3DE19F403D2E7E2E8CF3BCF14DF51
:10326000EA81DADECCDE39F4D0DE29F4B6DE19F4F8
:10327000F6D1E8E2DBCF2ECF07DFEA81CDDE2ACF21
:1032800003DFEA81C9DEBBDE31F4BFDE21F4A0DE5C
:10329000E6D1EAE2CBCF1ECF2197C9DE09F01CCFE1
:1032A000E1E0E0939569E3D1EBE2C0CFF1DE219755
:1032B000BEDE09F011CFFE81EF81F06CF093496919
:1032C000E0934869E1E0E0939569CDD1ECE2AECFBF
:1032D000EEE2ACCFE0917C69E350EB30F8F4E093A0
:1032E0007C69F0E0EF56F64E0995D1F4E0917C69E7
:1032F000A8E3B3EBAE0FB21DBC91CB0FAE2FAB1B4F
:10330000A0937C69C0937969D9E6E881E93040F4FB
:10331000F0E0EE55F64E0995EDE288CFCADEDACE42
:10332000DBCE1FC01CC01DC02DC019C025C02AC0C7
:1033300026C022C016C023C00000000200040206FE
:103340000400060008C007C006C005C006C005C0CE
:1033500004C003C002C0A5D008958FD0089518946A
:10336000089598940895E8E4F8E621C0ECE4F8E6BE
:103370001EC0EEE4F8E61BC0E0E4F8E610C0E4E4AA
:10338000F8E605C0F3DFD1F0EEDFC1F0F2CFA581A2
:10339000BD81AB1799F4A481BC81AB1779F4A381EB
:1033A000BB81AB1759F4A281BA81AB1739F4A18163
:1033B000B981AB1719F4A081B881AB17089500C08B
:1033C000C0E5D9E681E5899380E0ADE2B0E703D0BE
:1033D00002D0288208959D91E8E08395969508F49F
:1033E0008993EA95D1F70895E2E3E0939068089510
:1033F000E0914F69E395E33008F0E0E0E0934F6936
:10340000F0E0EC5FF54E099402C012C01BC0E091E1
:103410009068EA95E7FDE0939068E0911970E5FF08
:1034200005C0E0910D70EF73E068E6C0E0E0E4C035
:10343000E0911970E5FF03C0E0910E70E2C0E091E9
:103440000070DFC0E0911870E3FFD2CFF091A66961
:10345000E0E0F2FDE160F3FDE260F1FDE460F5FD26
:10346000E860D4C0C4D0C4CFC2D0D5D0C1CFBFD003
:10347000D4D0BECFBCD0D3D0BBCFB9D0D2D0B8CFB0
:10348000D4D0B6CFE991DE01A5D0E85FE883ED9115
:10349000E983ED91EA83ED91EB83ED91EC83CAD062
:1034A000A7CFE0E0F0E0A0E0B0E0E5D0ECC0E0E5E0
:1034B000F9E6E081A191C081C211CC13E1E5E0936E
:1034C0005069E9E6FAE1EA0FF21D91D083D009953F
:1034D0008FCFA1C0B0C00EC00FC010C011C012C0AD
:1034E00013C014C015C016C017C018C019C018C02A
:1034F00017C016C017D027C061D068C057D05AC0B7
:1035000016D01AC01DD05EC022D025C028D02BC036
:103510002ED031C034D037C039D03CC03FD042C0AB
:103520007AD079C0E091166CF091176C93C0E0915D
:10353000FF6BE068F2E08EC0E091186CF2E08AC0A8
:10354000E5E1F3E087C0E0918768F7E083C0E091B0
:10355000066CF8E07FC0E0910468F9E07BC0E09180
:103560001C6AFAE077C0E091186AFBE073C0E09152
:10357000186CFCE06FC0E091196CFDE06BC0E0914D
:10358000026CFEE067C0E0E0FFE064C0E091286C00
:10359000F0E160C0E091266CF1E15CC0E091216A4D
:1035A000F2E158C0E091226AF3E154C0E091126C5C
:1035B000F8E150C0E091136CF9E14CC0E0910A6C65
:1035C000FAE148C0E0910E6CFBE144C0E0910F6C61
:1035D000FEE240C0C8E2D9E60895A0E2B9E6089547
:1035E000A2E2B9E60895A0911F69B9E60895F8DF4F
:1035F000A0931F69089547C0EDDFF1E0F883E983E8
:1036000049C0E8DFF2E0F883E98344C0E3DFF3E098
:10361000F883E9833FC0CFE041C0C0EF3FC0CCE3B7
:103620003DC0CFE03BD0CCE339C0D4DFE0DF28821F
:10363000E9833AC042C0C0E3D9E6E4E0E883A0E809
:10364000B8E6ED91EC83ED91EB83ED91EA83ED919A
:10365000E98333C0E983FA83F7E0F8832AC0EF9A5D
:10366000C0E8D9E634C0EF9AC6E8D9E630C0EF9A90
:10367000CCE8D9E62CC0AEDFE883F983AA83BB830C
:10368000E0E1EC831FC0F0913569FF0F28F1FF0FD7
:1036900018F12BC0A2DFE3E021D0B0C8A4DFE1E045
:1036A0001DD0CD93A5CF9FDFE3E018D0A7D8A0CF42
:1036B0009ADFE7E013D0A0D89BCF92DFFFE315D0CD
:1036C00097D896CF8DDFFFE310D094D891CF85DFC8
:1036D000FFEF0BD08BD88CCFF0E007C0F0913569AD
:1036E00002C0FF1FC8F3E695E0F3F0933569089533
:1036F0000895CCE0D9E6A0910B6920927B69E8811E
:10370000EC57F0E0F44E0994FFC014C113C112C18C
:1037100011C110C10FC10EC10DC10CC10BC10AC135
:1037200009C108C107C106C105C104C103C102C165
:1037300001C100C1FFC0FEC0FDC0FCC0FBC0FAC09B
:10374000F9C0F8C0F7C0F6C0F5C0F4C0F3C0F2C0CD
:10375000F1C0F0C0EFC0EEC0EDC0ECC0EBC0EAC0FD
:10376000E9C0E8C0E7C0E6C0E5C0E4C0E3C0E2C02D
:10377000E1C0E0C0DFC0DEC0DDC0DCC0DBC0DAC05D
:10378000D9C0D8C0D7C0D6C0D5C0D4C0D3C0D2C08D
:10379000D1C0D0C0CFC0CEC0CDC0CCC0CBC0CAC0BD
:1037A000C9C0C8C0C7C0C6C0C5C0C4C0C3C0C2C0ED
:1037B000C1C0C0C0BFC0BEC0BDC0BCC0BBC0BAC01D
:1037C000B9C0B8C0B7C0B6C0B5C0B4C0B3C0B2C04D
:1037D000B1C0B0C0AFC0AEC0ADC0ACC0ABC0AAC07D
:1037E000A9C0A8C0A7C0A6C0A0C09FC09EC09DC0C1
:1037F0009CC09BC09AC099C098C097C096C095C005
:1038000094C093C092C091C0B0C0AFC0AEC0ADC0B4
:10381000ACC0ABC0AAC0A9C0A8C0A7C0A6C0A5C064
:10382000A4C0A3C0A2C0A1C0A0C09FC09EC09DC094
:103830009CC09BC09AC099C098C097C096C095C0C4
:1038400094C093C092C091C090C08FC08EC08DC0F4
:103850008CC08BC08AC089C088C087C086C085C024
:1038600084C083C082C081C080C07FC07EC07DC054
:103870007CC07BC07AC079C078C077C076C075C084
:1038800074C073C072C071C071C070C06FC06EC0B0
:103890006DC06CC06BC06AC069C068C067C066C0DC
:1038A00065C064C063C062C061C060C05FC05EC00C
:1038B0005DC05CC05BC05AC059C058C057C056C03C
:1038C00055C054C053C052C051C050C04FC04EC06C
:1038D0004DC04CC04BC04AC01AC019C018C017C058
:1038E00016C015C014C013C012C011C010C00FC044
:1038F0000EC00DC00CC00BC00AC009C008C007C074
:1039000006C00DC009C00EC0A150219670C0A09382
:103910007C69C093796979CCA150219625C1A150C9
:1039200021962BC2A150219617C1E0917E69E33008
:1039300008F070CCEA9AE991A1506894F0914A6934
:10394000FE13E894B0914B69B211E894BF2BF0914B
:103950004869FE1739F4F0914969F7FD03C0B211C7
:1039600028C045C00EF0B8CB32C04FCCEA9AE981EE
:10397000F881A2502296E03021F4F03C11F4EB9A49
:1039800057C0B0914969BF17B0914869BE0741F46B
:10399000E0914A69F0914B69EF2BE2110AC027C010
:1039A000B0914B69BF17B0914A69BE0709F094CB3B
:1039B0000EC0E0911170EC67E0934C69E0911270D9
:1039C000E160E0934D69E1E0E0934E6916C0EC9A46
:1039D000E0911170E095E378E0934C69E09112700A
:1039E000E095EE7FE0934D6920924E6906C02092EB
:1039F0004C6920924D6920924E69A0937C69C093D6
:103A00007969E881E295EF70E85FF0E0F24E0994A1
:103A10002BC040C055C054C065CB64CB63CB62CBD8
:103A200092CB91CB98CB93CB71C070C0C5CBC0CBA0
:103A3000A0937C69C0937969EA98E881E295EF7078
:103A4000EC5DF0E0F24E099445CB44CB43CB42CB46
:103A500041CB40CB3FCB3ECB3DCB3CCB3BCB3ACB22
:103A600039CB38CBA9CBA4CBE991EF70E65CF0E081
:103A7000F24E099490CB98CBCBCBCACBC3CBC2CB65
:103A8000C1CBC0CBBFCBBECB49CB48CBBBCBBACBDA
:103A9000B9CB40CBE991EF70E05BF0E0F24E0994D6
:103AA000B1CBB0CB33CB32CBADCBACCBABCBAACB4A
:103AB000A9CBA8CBA7CBA6CBA5CBA4CBA3CBA2CB82
:103AC000E991EF71EA59F0E0F24E09949BCB9ACB61
:103AD00099CB98CB97CB96CB95CB94CB93CB92CBE2
:103AE00091CB90CB8FCB8ECB8DCB8CCB8BCB8ACB12
:103AF00089CB88CB87CB86CB85CB84CB83CB82CB42
:103B000081CB80CBFBCAFECAF1CAF4CAE991EF713E
:103B1000E457F0E0F24E099412CB04CB06CB08CB6D
:103B200071CB70CB6FCB6ECB6DCB6CCB6BCB6ACBD1
:103B300069CB68CB67CB66CB65CB64CB63CB62CB01
:103B400061CB60CB5FCB5ECB12CB15CB18CB1BCB45
:103B50001ECBF1CA04CB07CBA0937C69C0937969D3
:103B6000E881E211B7CABBCAA0937C69C0937969A6
:103B7000E991E354F0E0F24E0994ACCAABCAAACA88
:103B8000A9CAA8CAA7CAA6CAA5CAA4CAA3CAA2CAB9
:103B9000A1CAA0CA9FCA9ECA9DCA9CCA9BCA9ACAE9
:103BA00099CA98CA97CA96CA95CA94CA93CA92CA19
:103BB00091CA90CA8FCA8ECA8DCA8CCA8BCA8ACA49
:103BC00089CA88CA87CA86CA85CA84CA83CA82CA79
:103BD00081CA80CA7FCA7ECA7DCA7CCA7BCA7ACAA9
:103BE00079CA78CA77CA76CA75CA74CA73CA72CAD9
:103BF00071CA70CA6FCA6ECA6DCA6CCA6BCA6ACA09
:103C000069CA68CA67CA66CA65CA64CA63CA62CA38
:103C100061CA60CA5FCA5ECA5DCA5CCA5BCA5ACA68
:103C200059CA58CA57CA56CA55CA54CA53CA52CA98
:103C300051CA50CA4FCA4ECA4DCA4CCA4BCA4ACAC8
:103C400049CA48CA47CA46CA45CA44CA43CA42CAF8
:103C500041CA40CA3FCA3ECA3DCA3CCA3BCA3ACA28
:103C600039CA38CA37CA36CA35CA34CA33CA32CA58
:103C700031CA30CA2FCA2ECA2DCA2CCA2BCA2ACA88
:103C800029CA28CA27CA26CA25CA24CA23CA22CAB8
:103C900021CA20CA1FCA1ECA1DCA1CCA1BCA1ACAE8
:103CA00019CA18CA17CA16CA15CA14CA13CA12CA18
:103CB00011CA10CA0FCA0ECA0DCA0CCA0BCA0ACA48
:103CC00009CA08CA07CA06CA05CA04CA03CA02CA78
:103CD00001CA00CAFFC9FEC9FDC9FCC9FBC9FAC9AE
:103CE000F9C9F8C9F7C9F6C9F5C9F4C9F3C9F2C9E0
:103CF000F1C9F0C9EFC9EEC9EDC9ECC9EBC9EAC910
:103D0000E9C9E8C9E7C9E6C9E5C9E4C9E3C9E2C93F
:103D1000E1C9E0C9DFC9DEC9DDC9BECABDCABCCAC6
:103D2000BBCABACAB9CAB8CAB7CAB6CAB5CAB4CA87
:103D3000B3CAB2CAB1CAB0CAAFCAB8CAB7CAB6CA99
:103D4000B5CAB4CAB3CAB2CAB1CAB0CAAFCAAECA97
:103D5000ADCAACCAABCAAACAA9CABCC9BBC9BAC98E
:103D6000B9C9B8C9B7C9B6C9B5C9B4C9B3C9B2C95F
:103D7000B1C968CA74CA80CA83CAA0937C69C09357
:103D80007969E991E03F08F4A5C9EF70E653F0E0E6
:103D9000F14E09949DCA9EC99DC99CC99BC99AC9E7
:103DA00099C998CA97C996C995C994C993C992C91E
:103DB00091C990C9E0E0E0930469209235690895C3
:103E000026C04DC04FC054C059C060C067C078C103
:103E10009EC1D2C1E0C102C209C217C21FC227C2DD
:103E20002FC23AC267C081C0BEC00AC11FC13CC117
:103E30003DC13EC13FC140C141C142C143C144C176
:103E400045C146C147C148C149C14AC14BC1E2E071
:103E5000E093110B332423C0E0918868F0918968C6
:103E60003196E0938868F09389680AC0E0918A6887
:103E7000F0918B683196E0938A68F0938B6800C06C
:103E8000E0918468E395E093846800C0332403C024
:103E9000E3E03E2E00C0E998ED98E1E02CC20E94DC
:103EA000892700C0ED99F2CF8EF73394E3E023C267
:103EB000ED99ECCF5EF73394E4E01DC2ED99E6CFC7
:103EC0002EF733940E94E616E5E015C2ED99DECF99
:103ED000EEF633940E94EB16E6E00DC2ED99D6CFD4
:103EE0002EF4339409F43A94E6E005C2E32DE4316C
:103EF00008F4CCCF30920A69E0910269F09103692D
:103F0000F695E795F695E795F695E795E21DE001BC
:103F1000FBEAEF9F109238690E01ECE0F9E6CFE082
:103F20002192CA95E9F7E3E1E6C10EF0ED99AECF33
:103F3000E0910269F0910369F695E795F695E795AA
:103F4000F695E795E21DE001FBEAEF9F10923969D3
:103F50000E01EE27749BEFEFF0911B69E0931B6954
:103F6000FE13EE9AE998EA98EF98EB98EC98209275
:103F70000B6920920969E0918568E395E43650F079
:103F8000E0918468F0918668E0938668EF1BE09387
:103F90008768E0E0E0938568E0911D69E395E09330
:103FA0001D69E7E1A8C1ED9957CFE0910B69EF30AA
:103FB00008F05CCFFCE0EF0FF9E6F21D3192EC5017
:103FC000E0930B69E0910969E325E09309692EF517
:103FD00009F04CCFE3E0E093110BE0E8F8E6A081B4
:103FE000B1811196A083B183A281B381A21DB21DBC
:103FF000A283B383E0910269F0910369F695E79596
:10400000F695E795F695E795E21DE001FBEAEF9F4F
:1040100010923C690E01E6E16EC1E0910269F091F7
:104020000369F695E795F695E795F695E795E21D10
:10403000E001FBEAEF9F10923A690E01E5E15BC1F6
:10404000ED9B0EF409CFE0910269F0910369F695BA
:10405000E795F695E795F695E795E21DE001FBEA11
:10406000EF9F10923B690E01E7E145C1E2E0E0936A
:10407000110B2092006920920169ED9B0EF0ECCEAD
:10408000E0910269F0910369F695E795F695E79559
:10409000F695E795E21DE001FBEAEF9F10923D697E
:1040A0000E0127DBE7E027C1E8E11EC0E9E121C0FE
:1040B000EAE11AC0EBE11DC0ECE116C0EDE119C068
:1040C000EEE112C0EFE115C0E0E20EC0E1E211C086
:1040D000E2E20AC0E3E20DC0E4E206C0E5E209C0A4
:1040E000E6E202C0E4E105C0ED99B6CE330C30F84B
:1040F00002C11EF030FCB0CEFEC030FEADCEFBC023
:10410000ECE9F8ED0E9444130EF0C0CEC091356981
:10411000D0911970EB99D860D3FFC070D09118700E
:10412000EB99D260E0919068EC3F08F0DB7FD2FD24
:10413000DE7FEA99D0FFCC7FEC9BD1FFC370EF9973
:10414000CFEFC0933569749B7699A2CE00C0E99AEF
:10415000D0912A70C0910A0BCD23D0912970CD0F38
:10416000CF70C0933669C15BDCE0F001CD9F009257
:104170001C0B10921D0B0F01E0910269F091036975
:10418000F695E795F695E795F695E795E21DE0013A
:10419000FBEAEF9F10923E690E01E0E0E093110B05
:1041A000E0913569E0FF06C0C0902069E89AEDE033
:1041B000E0931301E9E09FC0F0913569E091216936
:1041C000F1FDE0932208E8E6F1E0E0931C0BF093A8
:1041D0001D0BEAE090C0D0912C70C0910A0BCD234A
:1041E000D0912B70CD0FCF70C0933769CE5AD0913C
:1041F0003669CD1BDCE0F001CD9F00921C0B1092C4
:104200001D0B0F01E0913569E2FF06C0C0902269E5
:10421000E89AEDE0E0931301EBE06DC0E0EFF0E031
:10422000E0931C0BF0931D0BECE065C0F091356939
:10423000E0912369F3FDE0932208E0EEF1E0E093E2
:104240001C0BF0931D0BEDE056C0F0913569E09129
:104250002469F4FDE0932208EEE04DC0F091356949
:10426000E0912569F5FDE0932208EFE044C0F0916C
:104270003569E0912669F6FDE0932208E0E13BC054
:10428000F0913569E0912769F7FDE0932208E2E0BB
:10429000E093110BE1E12FC0E001E0910069F091A2
:1042A0000169F695E795F695E795F695E795E21D90
:1042B000FBEAEF9FE12DEC51F0913769EF0FE093AE
:1042C0003F690E01F0913569FC7F91F0E8E3F9E672
:1042D000C191C783C191C783C191C783C191C7836E
:1042E000C191C783C191C783C191C783C191C7835E
:1042F00020923569CBCDE0930469AF91BF91CF9106
:10430000DF91EF91EFBFEF91FF9118950895EEE2E5
:10431000FAE6A4E2BBECD0E0C1E0D583C083B18370
:10432000A28326822782208624823A96D395DA3287
:10433000A1F7ABC213D0ED91FD91FC83FD91F887FD
:10434000FD91F98784D2EFB7E0FBACD3E885E0318B
:1043500008F0E0E0E458F0E0FB4D0994AD81AA0FCD
:10436000AA0FB0E0A83218F4AC57BF480895A8527D
:10437000BF480895C2EDDBE6CF93DF930E941E2B6A
:10438000DF91CF912A97D6DF8E819F8196FB982768
:10439000907409F0BDD08881815041F008F0888385
:1043A0008D81882349F73AD248D26FC2F981EA81D8
:1043B00081918C3008F080E090E08B519E4D8F937E
:1043C0009F930895F983EA83EBCF0BC00DC011C012
:1043D0002CC036C03FC042C048C055C05DC063C09D
:1043E00069C00B807CD0DCCF019079D0119018820D
:1043F000E9CF0E94A9229F938F938191982F929544
:104400008F709F70092E081A03941F90109C180E2D
:1044100065D08191982F92958F709F70092E081A00
:104420001F90109C180E1882CDCF0E94A9220190D7
:104430009191091A0394182E109C190E4FD0B8CFE1
:104440000E94A92201909191091A182E109C190E10
:104450001882B8CF91918191FC01AACF919181915D
:104460000F01FC018D810995A3CF0E94A922019023
:104470009191981708F4A6CF0394102C100C100CEF
:10448000E119F20995CFE89410800B80101460F0C8
:1044900021F43196319696CF689411900B800114D7
:1044A000C8F7039415C0689411900B80101490F70E
:1044B0000A940EC00E94A92201909191091A0394B6
:1044C000182E109C190E0B80101408F407D070CF12
:1044D00006D0119018820EF475CF62CF012C0B829A
:1044E000A2EDBBE61D80A10DB21D0C920895FCEC5F
:1044F000EEE703C0FCECE8EA00C08C81853108F0EF
:1045000080E0880FE80FF21D91918191FC010895E0
:104510008E8186F98E839BEC86E216F49BEC8AE210
:1045200099838A8391E09883089513D08F770895B3
:1045300010C00FD009F4917008950BD009F4937056
:10454000089507D009F49770089503D009F49F7077
:10455000089580911A0B90910A0B89270895E2ED36
:10456000FBE6D091176ADF70D395D4FDDA95C09140
:10457000A569C211D061189431F4C191CD1708F02A
:104580002F9A08F42F98189431F4C191CD1708F0A0
:104590002F9A08F42F98189431F4C191CD1708F090
:1045A000289A08F42898189431F4C191CD1708F08E
:1045B000299A08F42998189431F4C191CD1708F07C
:1045C0002A9A08F42A98189431F4C191CD1708F06A
:1045D0002B9A08F42B98189431F4C191CD1708F058
:1045E0002F9A08F42F98189431F4C191CD1708F040
:1045F0002F9A08F42F98189431F4C191CD1708F030
:104600002F9A08F42F98189431F4C191CD1708F01F
:104610002F9A08F42F98A0914009A0FF01C085C0EF
:10462000A0E0B4E78091D569C191C295C89F1D9261
:10463000C191C295C89F1D92C191C295C89F1D92FC
:10464000C191C295C89F1D92C191C295C89F1D92EC
:10465000C191C295C89F1D92C191C295C89F1D92DC
:10466000C191C295C89F1D92C191C295C89F1D92CC
:10467000C191C295C89F1D92C191C295C89F1D92BC
:10468000C191C295C89F1D92C191C295C89F1D92AC
:10469000C191C295C89F1D92C191C295C89F1D929C
:1046A000C191C295C89F1D92C191C295C89F1D928C
:1046B000C191C295C89F1D92C191C295C89F1D927C
:1046C000C191C295C89F1D92C191C295C89F1D926C
:1046D000C191C295C89F1D92C191C295C89F1D925C
:1046E000C191C295C89F1D92C191C295C89F1D924C
:1046F000C191C295C89F1D92C191C295C89F1D923C
:10470000C191C295C89F1D92C191C295C89F1D922B
:10471000C191C295C89F1D92C191C295C89F1D921B
:10472000C191C295C89F1D920895D0914009D0FFB4
:104730000895D091AC69D2116CC0D091176ADF7026
:10474000DF3009F4DEE0B096C291DC17881FC29119
:10475000DC17881FC291DC17881FC291DC17881FE5
:10476000C291DC17881FC291DC17881FC291DC1729
:10477000881FC291DC17881FD0D2C291DC17881F16
:10478000C291DC17881FC291DC17881FC291DC1709
:10479000881FC291DC17881FC291DC17881FC29145
:1047A000DC17881FC291DC17881FB7D2C291DC17B3
:1047B000881FC291DC17881FC291DC17881FC29125
:1047C000DC17881FC291DC17881FC291DC17881F75
:1047D000C291DC17881FC291DC17881F9ED2C2913C
:1047E000DC17881FC291DC17881FC291DC17881F55
:1047F000C291DC17881FC291DC17881FC291DC1799
:10480000881FC291DC17881FC291DC17881F85D2D0
:1048100003C0EF0197D2FE018AD20895ACE6B0E75B
:1048200006D08093A96903D08093A869089581E098
:10483000EE910DD0881FE0F70895ACE6B0E780E870
:10484000ED9105D08795E0F78093AA690895E7FB7D
:10485000EF77E53410F0EE2712C0EF771E2EE770E9
:10486000F0E0EE57F7430080169416941694E2E5B4
:10487000F8E6E10DF21DE0810EF4E025E021E1957E
:1048800008950102040810204080ECE7F0E7A6E656
:10489000B8EDDAE08191CD91C2118883E238D1F789
:1048A00008951FB6F095F8940090A6690F220E2A7D
:1048B0000092A6691FBE08951FB6F095F894009067
:1048C000A7690F220E2A0092A7691FBE0895E091E2
:1048D000A569EE230895E0913A70E0938506FFB74D
:1048E000F894E091A569E211EA95E093A569FFBF0C
:1048F000E1E0E0938606089511C00EC019C021C002
:1049000029C031C039C03FC047C04FC073C074C058
:104910007EC05CC065C051C00EF4EDC001C136F46C
:1049200083FDFEC082FDE7C080FF90FFF9C0E3C0B9
:1049300036F483FDF5C082FDDEC080FF90FFF0C03D
:10494000DAC036F483FDECC082FDD5C081FF90FD56
:10495000E7C0D1C036F483FDCEC082FF80FDE0C049
:1049600090FDDEC0C8C036F483FDC5C082FF81FD66
:10497000D7C090FFD5C0BFC0EEF783FF91FDC1C087
:1049800082FFBFC0AFC036F483FF91FDBAC082FF83
:10499000B8C090FFC5C0A6C0EEF783FF91FDB1C0BF
:1049A00082FFAFC090FDBCC09DC0EEF783FF82FFC9
:1049B000A8C091FD089596D0AAC0AEF782FD0895D3
:1049C000B3E0B823B21183FDABC095C066F782FD9A
:1049D0000895B3E0B823B21183FDA2C089D09DC071
:1049E00016F782FD0895B3E0B823B21183FD98C095
:1049F00076D08DC001D00BC06894E0E1B4FD12C048
:104A0000B6FD15C081FD089580FF11C00BC0E8946C
:104A1000E0E2B5FD07C0B7FD11C080FD089581FF3C
:104A20000DC000C06091B5707091B67013C0E0E425
:104A3000B6FD0BC080FF90FF089507C0E0E8B7FD0A
:104A400004C081FF90FD089500C06091B370709123
:104A5000B47000C0B0FD0BC0B3FF089583FF91FD9B
:104A60000895FE2F0E9463250E94031227C0B1FD06
:104A70000FC00E94011209F491FD08953CD0629587
:104A80007295EFB7E894E6FF68940E94031216C08F
:104A90000E94011211F491FFB3FD089541D00E94CC
:104AA000031209C08091A8699091A669A985B09167
:104AB000AB69B3F90895E0E0FFE305C0E091AB69AD
:104AC0000894EE1FF3E0EF23B091AB69F095BF239C
:104AD000BE2BE093AB69089528DD69F0089528DDC9
:104AE00051F0089526DD39F0089527DD21F008956D
:104AF00028DD09F00895E0E4EF83089516DD81F0E4
:104B0000089516DD69F0089514DD51F0089515DD5E
:104B100039F0089516DD21F0089517DD09F00895A4
:104B20002F820895000006227A00062277000100F5
:104B30000000010F01000100000001020101040159
:104B4000080F0100010401080001000002008102B9
:104B5000108102FF210703A002FE810701FF000070
:104B60000200F10210F102FF210703A00000010181
:104B7000140211F102FF2107028000000801010464
:104B80003010010F01000801010430100104080871
:104B90000F01000001000000090F0104502007026E
:104BA000FF000100000008040100080001000108E6
:104BB000010253110801010406010704C004C040AA
:104BC000090F010702FF0000010F0101010104505C
:104BD00020046010090F010702FF00000B0301040D
:104BE00080400A00010702FF0000080401010F03D2
:104BF0000104010801010101080705FF0000080088
:104C00000100010F0A01000A0702FF000200F10281
:104C1000FFB90200B90702FF000001000100010F07
:104C2000010100130702FF00010F01010001010F44
:104C3000010100110704FF00010F01010001010F34
:104C400001010001010F0101000F0706FF00010033
:104C50000100010001080F010801010702FF000027
:104C6000010011080F010801010702FF0000080000
:104C70000100010F14010000000001000000CB2E14
:104C8000CB32CB3ACB4CCB60CB6ECB7CCB86CB98AC
:104C9000CBA6CBAECBC8CBEACC02CC0CCC1ECC285E
:104CA000CC38CC52CC60CC72CB2ECB36CB44CB9410
:104CB000CB94CB94CB94CB94CBA2CBAACBDCCBDC48
:104CC000CBFECC1ACC1ACC4ECC4ECC4ECC6ECC6E8D
:104CD000CC7AE0918171E0FD08952092060820923F
:104CE0001404049A0B98039A0E98069A0C98049A46
:104CF000A4E0A0934109A1E3A09340091ED005C000
:104D00000BD00AD009D008D012C004D003D002D0F2
:104D100001D00DC080E001C08FEF809580934409E1
:104D20008091430987FFFCCF8091440908950B9837
:104D300084E08A95F1F70B9A089580914309809158
:104D40004409089503D004D005D006C0F9E106C097
:104D5000F1E104C0F9E002C0F1E000C080E0E091C0
:104D6000AC69EF1BE83018F40E9416128E2FD5CFD5
:104D70000895E0910608E6FF0895E0E08E2E30E009
:104D8000E2E0E093050B08951CC0499A0895499804
:104D900008954A9A08954A980895E091A969F09172
:104DA0007E69F030F0915970F0FF09F006C0E064C0
:104DB000E068E093A969E9DFECCFEF7BEF77E09360
:104DC000A969E5DFE8CF2092AD692092AE69089528
:104DD00004D0FE2FE0E2EF1B0895E091AE69F09160
:104DE000AD69EF1B08F4E1950895E091AE69F0918B
:104DF000AD698894EF1308940895C091AE69C155C8
:104E0000D0E0D649B993E993F993A993CF5AC03228
:104E100008F0CC27C093AE690895C091AD69C15523
:104E2000D0E0D649B991E991F991A991CF5AC03210
:104E300008F0CC27C093AD69089590E3889410C022
:104E4000A881A823A81711F492E106C0A881A8237D
:104E5000A817B1F393E100C0A881A817A9F008949E
:104E6000A0910210A1FDFCCFA0FDFACFADE9A4BF37
:104E70009093001008F48993A4BFA1E0A0930010C0
:104E8000A0910210A1FDFCCF089598D089D009D03F
:104E90000E949E13E0939D69F0939E692092986909
:104EA000089582E010904E6800904F68F0914C6831
:104EB000E0914D68EF01CD2BD9F4E0911070F4E64C
:104EC000EF9FF0E0E211F0ECE0910F70EF770E0E43
:104ED000121C1F2A81E0E0910070EF77F0E0C09192
:104EE0001970C5FF05C0F0910D70E0910E70F06C67
:104EF000E0934869F093496900924A6910924B69BE
:104F00000128E0E0F0E20210EF2FCBDCCEEFD5E19C
:104F10009DCF1BD1E091986920929869EE3020F4E2
:104F2000F0E0EC56F84D099408950CC00DC00EC089
:104F30000FC010C0089508950FC01EC029C010C032
:104F400013C016C00C9404120C9406120C940A128E
:104F50000C9414120C940F12F8946FDF0C9404123A
:104F6000A0E0B3E48CE15EC0A0E0B8E988E25AC0FA
:104F7000A2E0B0E080E856C0F89481E0CEEFD5E141
:104F800065DFE8E8FFEC3DC00001111213141D00BD
:104F9000E6E9FFEC36C000020506090A3738390099
:104FA000D4D004D0D6D002D0D8D000C0B0E078D0D1
:104FB000B395A0919B69BA17D1F70895E091FF15B9
:104FC000E03069F0EF3F09F038DFBFD009D0C1D041
:104FD00007D0C3D005D0CFEFD5E180E037DF08950B
:104FE000B0E0A89506D0B395A0919B69BA17D1F708
:104FF00008953AD028F4D0919969CE2F8A2F20CFE6
:105000000895F894A191EF93FF9395D0A895FF91FF
:10501000EF91B191B15010F40C940412EF93FF93FF
:10502000E8DFF5CFF8948F93BF9385D0A895BF9113
:105030008F91B3958A9509F40C9404128F93BF93C2
:10504000D8DFF5CFE0919969E431EEE0EB0751F05C
:10505000E0910B70F0910C70EF1721F0EF91EF9150
:1050600098940895189408954AD033960994F0DFDF
:1050700046D03196099426F0E5DF41D03296099466
:10508000E1DFAF93F4DFEF91E3FB0E941612E095AE
:10509000AE23E0950EF0EE27AE2B31D03296099478
:1050A0002ED030960994A0E027C0EA81A98121C0C2
:1050B000EA81F0919969A081F0919A69A08319C061
:1050C000EA81F0919A69A08114C0EA81F0919A690D
:1050D000B091996992DE0DC0E981FA81A08109C081
:1050E000E981FA81A08305C00F92C895A02D0F9089
:1050F00000C0189408940895189488940895CB2FAC
:10510000D0919B69CD1778F4D0E0CC0FDD1FCC0F88
:10511000DD1FF0919C69DF0FE881E43149F0F0E098
:10512000EE58F34D0895C0E0DEEDE2E7FCE20895AD
:10513000E981FA810895B0E0B03099F4A03029F007
:10514000A13039F0A23049F00CC0A4EDBAEDF0E086
:105150000BC0ADE7BEEDF0E007C0A4E8B0EEF1E0B3
:1051600003C0A0E0BAEDF0E0A0939B69B0939C6906
:10517000FC5EF0939969F45AF0939A69089503C01C
:1051800007C009C012C0A0910014A0930070B1CF55
:10519000A0910070AECFAA2339F032F0E0E0F0E742
:1051A000B09199692ADEA5CF7ECFE0E0A3E0A1CF40
:1051B0007ACF02C003C077CFADE09BCF0E94FF1132
:1051C00019F4A093986995CF6ECF03C007C009C0AA
:1051D00015C0A0910B14A0930B708BCFA0910B70F6
:1051E00088CFAF3F11F4A0910C70A03F30F4EBE0FA
:1051F000F0E7B091996901DE7CCF55CFEBE0A1E0FB
:1052000078CF03C007C009C011C0A0910C14A093AF
:105210000C706FCFA0910C706CCFA03F30F4ECE01D
:10522000F0E7B0919969E9DD64CF3DCFECE0A1E012
:1052300060CF39CF06C037CF36CF35CF05C033CF9B
:1052400032CFE1E0F1E950CFE0E0F1E94DCFE0E528
:10525000FCE650C2D5EC47C248D2F7D146D2E09125
:105260000210E1FDFACFC1DDC0F7D7DDC081CA175A
:10527000B1F3A083FB2FCDE9D3E1C4BFD0930010DD
:10528000A083D1E0C4BFD0930010D1E0D09304102C
:10529000D0930310E2CF82E390E00E945D2B0E9446
:1052A000BA21F9CF22D20E941B140E940312CDD141
:1052B000F9CF4B98439AE0E5FCE621D24B9A86E081
:1052C00090E00E945D2B4B98F6CF88EE93E00E9411
:1052D0005D2BA89566D20E94F212FBCF0C94AF22F0
:1052E0000C94E41146DD59CDE0919068E7FF05C0CC
:1052F000EC3F30F4E0910A0BEF73EA95E09390688D
:105300000895F1E0EF2F80911E69823308F4E0E008
:10531000D3DAE091286CF0918071F07FEF1708F0FC
:10532000EF2FF0918071F295F07FEF1708F4EF2FD7
:10533000F091D569FE1719F008F0F250F395F0934B
:10534000D569F695F03108F4F0E1E0E8E0930C0B54
:10535000F0930D0B0C941814E0911D6920921D69B7
:10536000E0931C690895F7EDE8EFD9E6C9ED82E115
:105370000E942A1214D037D03FD047D04FD057D0F8
:105380005FD067D06FD011272227D9E0C9E9C09339
:10539000156AD093166A089578940C94D629E9ED8D
:1053A000F9E6E093126AF093136A08950E942A299D
:1053B0002092196A20921A6A20921B6A1D7FE0913E
:1053C000196AF0911A6AC0911B6A3196C21D11FDCB
:1053D000EFCF2223D1F3E093196AF0931A6AC093B6
:1053E0001B6A33D1ECCFEAEFF9E2E093A26CF093C1
:1053F000A16C08950C942C29E3E0FAE2E093C66CCA
:10540000F093C56C0895A1E936C0ECE0FAE2E093B0
:10541000EA6CF093E96C08950C944B29E5E1FAE20B
:10542000E093EC6CF093EB6C0895A3E924C0EEE1FB
:10543000FAE2E093EE6CF093ED6C0895A4E91BC0E2
:10544000E7E2FAE2E093126DF093116D08950C9487
:105450005229E0E3FAE2E093366DF093356D08955A
:105460000C945929E9E3FAE2E0935A6DF093596DEF
:1054700008950C9465290C94D01310FD82C0F0930C
:10548000246AFFB7F093236A1160E093256AD093F2
:10549000266AC093276AB093286AA093296A9093DA
:1054A0002A6A80932B6A10922C6A00922D6AC0910E
:1054B000176AC395C093176A09F41860CF7009F48E
:1054C0001460C0FD14C01061C091156AD091166AB5
:1054D000C15015F41062C97F10F41064C979D0402E
:1054E00010F41068D970C093156AD093166A17FD2E
:1054F00058D079D00E946E2914FD0E94702915FDA4
:105500000E94722916FD0E94742913FD0E948129B0
:1055100017FD0E94AC2914FF1BC0D9E6CFEEA1E015
:10552000E881F981319788F071F42A2BE883F983B7
:10553000EA81FB81FE2B49F0FB810180A0950A22C4
:10554000A095018202C0E883F9832496AA0F41F74F
:1055500000902D6A10902C6A80912B6A90912A6A93
:10556000A091296AB091286AC091276AD091266AD1
:10557000E091256A1270F091236AFFBFF091246ACE
:105580000895F894E1E0F1E00E94092CFFEF3197D3
:10559000F1F7E0E0F1E00E94092CF0E43197F1F737
:1055A000F0CFE0911A6AF0911B6AEE0FFF1FEBE853
:1055B000FE9F000C111CE4E6E119E093186A1260EA
:1055C000C0911D6AD0911E6AC0931F6AD093206A51
:1055D000D695C795D695C795C0931C6A20921E6A2A
:1055E00020921D6A0895E091176AEF70E093146AA3
:1055F000EE0FF0E0E250F54D099408950C94CE11B1
:105600000C94D5110C94DD110C94FD2A0C94FD2AF8
:105610000C94FD2A0C94FD2A0C94FD2A0C94FD2A6E
:105620000C94FD2A0C94FD2A0C94FD2A0C94FD2A5E
:105630000C94FD2A0C94FD2A0C94FD2AF0910F6A1B
:10564000FF0F11F02F1708F40895E0911D6AF091F3
:105650001E6A3196E0931D6AF0931E6AC091126A29
:10566000D091136AEDB7FEB7E993F883E0E2F22F29
:10567000C0E8FF0F30F019F0C695E450D1F7CC2701
:10568000EE27C0930F6AE093116AE695E093106AE3
:10569000D9E6C9EDCE0FD21DC093126AD093136A1A
:1056A000E991F881CFB7F894EDBFFEBFCFBF089561
:1056B00091E0899FC00101C09927CBEED9E6B09156
:1056C000116ACB0FD21DBFB7F89488839983D0910C
:1056D0000F6AD0952D23BFBFB8CF07D0B6CF03D068
:1056E000B4CFD0910F6A2D2B0895D0910F6AD09529
:1056F0002D230895208221820895689401C0E894A2
:10570000D0910F6ABFB7F894C081CC2321F0CE7F2F
:10571000C083BFBF0895C181CD2BC183BFBF0EF031
:10572000DCCFCBCFBFB7F894C191D081DD2321F47A
:10573000C160C293BFBF089520822292BFBF0DC037
:10574000BFB7F894D081D260D193D081DD2311F41A
:10575000BFBF08952082BFBF00C0EBEEF9E6CD2F9A
:105760003496CC0F41F0E0F7F894219221922192E7
:105770002192BFBFF6CFB7CF20820895BFB7F8946C
:10578000A081AE7FA083BFBF0895F8DFB8CFE1E06E
:10579000F1E00E94092C0895E0E0F1E00E94092C5C
:1057A0000895C2E5DCE6E4EEF7ED0C2E9FEFA19143
:1057B000B191BF3F81F011968FEF83951D9011201D
:1057C000E1F3821183958993981788F38211982FBA
:1057D00082110C2EECCF9093216AC02DC455C0933A
:1057E000226A08955B6C7F6CA36CC76CEB6CED6CEC
:1057F000EF6C136D376DFFFF7E6CA06CC46CE86CB2
:10580000EA6CEC6C106D346D586D0895E2E0F2E0D6
:1058100000C0EF23F0950090FC6B0F22E02906C03A
:10582000E0E004C0EFEF02C0EBE000C0E093FC6BEF
:1058300000C0E091FC6B0C94A413EF23F095009052
:10584000FD6B0F22E02908C0E0E006C0E5E504C0DA
:10585000EFEF02C0E0E000C0E093FD6B00C0E0911C
:10586000FD6B0C94A2130000000000003103000047
:10587000010507310080216C0001004040310080AB
:105880000000000231030000010705310080236C95
:10589000000100404031008000000002110B0000B8
:1058A0000142401100812B6C00010040401100803A
:1058B0000000000211030000011540110080276C58
:1058C00000010040401100800000000211030000B0
:1058D000010340110085256C00010040401100804B
:1058E00000000002E0CBDFCBDECBDDCBDCCBDDCBC1
:1058F000DACBD9CBDDCBE4CBE8CBD7CBD4CBECCB5D
:10590000D2CBD1CBD0CBE8CBEBCBCDCBCCCBCBCB95
:10591000CACBC9CBFFFFFFFFFFFFFFFFFFFFFFFF6A
:105A000014BF287F0801017F080802FF080803FF70
:105A100008FF04FF088005FF0499000014D828003F
:105A200008000603086407FF081008FF04040000CC
:105A30000800090008000A0014E528FF140129FFE6
:105A400008C30DFF08E80EFF08000FFF080010FF55
:105A5000080011FF080012FF0800130008001400DE
:105A60000000000000000000080017FF089E181149
:105A7000080A1911101A7000040000FF04FF00FF4B
:105A80000000000000000000000000000000000016
:105A90000000000000000000000000000000000006
:105AA00000000000000000000000000000000000F6
:105AB00000000000000000000804290F08002A0F61
:105AC00008042B0F08002C0F08FF2DFF080F2EFFD6
:105AD00000000000080030070800310F088032FF86
:105AE00000000000086434FF084135FF08B436FFA9
:105AF000088037FF088038FF088039FF08283AFF00
:105B000008023B0008A03CFF08033D7F08073E7FDA
:105B1000080C3F7F0810407F0815417F0819427F1D
:105B2000081E437F0822447F0827457F082B467FB5
:105B30000830477F0834487F0839497F083D4A7F4D
:105B400008424B7F08464C7F084B4D7F084F4E7FE5
:105B500008544F7F0858507F085D517F0861527F7D
:105B60000866537F086A547F086F557F0873567F15
:105B70000878577F087E587F080059FF0406000008
:105B80000C4068000C4168000C4268000C4368003F
:105B90000C4468000C4568000C4668000C4768001F
:105BA00008005AFF08005BFF040100000409000020
:105BB0000C01A1000C0091000C0191000C0091005F
:105BC0000C1180000C108000141929FF141D29FFEE
:105BD0000C1717000CFF15000CFE150008015CFFE8
:105BE00008025DFF08035EFF08045FFF080560FF11
:105BF000080661FF080762FF08FF63FF08FF64FFF4
:105C000008FF65FF08FF66FF08FF67FF08FF68FFE2
:105C100008FF69FF08086AFF08096BFF083D6CFF71
:105C2000083E6DFF083F6EFF08406FFF084170FFA0
:105C3000084271FF084372FF084473FF08FF74FFB6
:105C400008FF75FF08FF76FF08FF77FF08FF78FF62
:105C500008FF79FF08FF7AFF08FF7BFF08FF7CFF42
:105C600008FF7DFF08FF7EFF08FF7FFF08FF80FF22
:105C700008FF81FF000082000000830008FF84FF0E
:105C8000080085FF080086FF08FF87FF08FF88FFE0
:105C9000080089FF08008AFF08FF8BFF08FF8CFFC0
:105CA00008008DFF08008EFF08FF8FFF08FF90FFA0
:105CB000080091FF080092FF08FF93FF08FF94FF80
:105CC000080095FF080096FF08FF97FF08FF98FF60
:105CD000080099FF08009AFF08FF9BFF08FF9CFF40
:105CE00008009DFF08009EFF08FF9FFF08FFA0FF20
:105CF0000800A1FF0800A2FF08FFA3FF08FFA4FF00
:105D00000800A5FF0800A6FF08FFA7FF08FFA8FFDF
:105D10000800A9FF0800AAFF08FFABFF0887ACFF37
:105D20000803ADFF0800AEFF0820AFFF08E0B0FF9A
:105D30000880B1FF0880B2FF0825B3FF083FB4FF19
:105D40000853B5FF0833B6FF10186C000455000067
:105E00000409000004010000000000000000000080
:105E10000C4368000C4268000C4168000C406800AC
:105E20000C4768000C4668000C4568000C4468008C
:105E30000C0875000C0975000C0A75000C0B750038
:105E40000C0C75000C0D75000C0E75000C0F750018
:105E50000C1075000C1175000C1275000C137500F8
:105E60000C1475000C1575000C1675000C177500D8
:105E70000C1875000C1975000C1A75000C1B7500B8
:105E80000C1C75000C1D75000C1E75000C1F750098
:105E90000C2075000C2175000C2275000C23750078
:105EA0000C2475000C2575000C2675000C27750058
:105EB0000C2875000C2975000C2A75000C2B750038
:105EC0000C2C75000C2D75000C2E75000C2F750018
:105ED0000C3075000C3175000C3275000C337500F8
:105EE0000C3475000C3575000C3675000C397500D6
:105EF0000C3A75000C1A75000C1B75000C0075002F
:105F00000C00750000000000000000000000000010
:105F10000000000000000000000000000C106C00F9
:105F20000C116C000C126C000C136C000C186C0043
:105F30000C196C000C8068000C8168000C826800F1
:105F40000C8368000C8868000C8968000C8A680063
:105F50000C8B68000C8C68000C8D68000C4069008C
:105F60000C4169000C4269000C4369000C44690053
:105F70000C4569000C4669000C4769000C0A690071
:105F80000C1B69000C1C69000C306C000C316C009F
:105F90000C026C000C0268000C0368000C04680022
:105FA0000C0568000C0068000C0168000CFD150071
:105FB0000C526C000C536C000C546C000C556C00B3
:105FC0000C566C000C576C000C586C000C596C0093
:105FD0000C5A6C000C2168000C2068000C22680030
:105FE0000C4869000C4969000C4A69000C4B6900B7
:105FF00004550000FFFFFFFFFFFFFFFFFFFFFFFF54
:10600000080000FF080401FF080F02FF08FF03FF5C
:10601000080004FF080205FF080D06FF08FF07FF40
:10602000080008FF080209FF08040AFF08FF0BFF29
:1060300008000CFF08030DFF080E0EFF08FF0FFFFE
:10604000080010FF080411FF080F12FF08FF13FFDC
:10605000080014FF080415FF080F16FF08FF17FFBC
:10606000080018FF080219FF08041AFF08FF1BFFA9
:1060700008001CFF08041DFF080F1EFF08FF1FFF7C
:10608000080020FF080421FF080F22FF08FF23FF5C
:10609000080024FF080225FF080D26FF08FF27FF40
:1060A000080028FF080229FF080D2AFF08FF2BFF20
:1060B00008002CFF08022DFF080D2EFF08FF2FFF00
:1060C000080030FF080231FF080D32FF08FF33FFE0
:1060D000080034FF080435FF080F36FF08FF37FFBC
:1060E000080038FF080439FF080F3AFF08FF3BFF9C
:1060F00008003CFF08043DFF080F3EFF08FF3FFF7C
:10610000080040FF080441FF080F42FF08FF43FF5B
:10611000080044FF080245FF080D46FF08FF47FF3F
:10612000080048FF080249FF080D4AFF08FF4BFF1F
:1061300008004CFF08024DFF080D4EFF08FF4FFFFF
:10614000080050FF080251FF080D52FF08FF53FFDF
:10615000080054FF080455FF080F56FF08FF57FFBB
:10616000080058FF080459FF080F5AFF08FF5BFF9B
:1061700008005CFF08045DFF080F5EFF08FF5FFF7B
:10618000080060FF080261FF080D62FF08FF63FF5F
:10619000080064FF080265FF080566FF08FF67FF47
:1061A000080068FF080469FF080F6AFF08FF6BFF1B
