:020000020000FC
:100000000C9448000C9454020C9454020C94EA0191
:10001000010090D900000000DE57EF687642EAAA9E
:1000200006C208C20AC20CC2FBC0E9C0F9C5FAC5C3
:100030000CC209C211C2BFC3C4C349C44CC4D5C396
:10004000DFC3E6C379C452C460C4C9C3BEC3C2C35C
:10005000F2C420C214C219C262C367C372C373C39D
:100060007BC387C39EC3A2C3ADC410C117C1A4C4C0
:10007000D7C3E1C3BDC3FDC406C518C5E1C6E4C608
:10008000E6C6E8C6EDC6FBC60BC7CEC1CBC0FBC0FB
:10009000F8942224E7E2F9E6EDBFFEBFE8EDF7E0D1
:1000A000E4BFF0930001A895E8EDF4E2E4BFF0931B
:1000B0006800E0914000E0934000EFBBE8EDE4BF52
:1000C000209201102BBEE8EDF0E6E4BFF0931001A2
:1000D000E0914101E211FCCF2092480120924901B8
:1000E000E1E0E0934001E0EFE093E205E3E0E0933C
:1000F000E305ECE0E093E405E8E0E0933704E09307
:100100003704E0933704E0933704E0E0F8E0268218
:10011000A0ECB0E0A087B187A0E8A583A3E0A78307
:10012000A2ECA683279827982F9A2F9A279A279A86
:10013000F89BFB9973D061D06998A0E8A0937004F4
:10014000A0935704609A479A279A279A209A219A4F
:10015000229A239A279A279AF89B06C0E0E0F0E6B5
:10016000AFEFA193F836E8F3E0ECF8E6FB99E0E4B2
:10017000FB99F8E6F899E0E0F899F8E62192F03872
:10018000E8F3E0914801F0914901F230D0F3E2E068
:1001900036D042D0C3D2C2E040D5E0910090EF3FCC
:1001A00011F0E8D419F086D4E5D409F490C1E1E067
:1001B00071C1E0E0FAE02082218222822382AFE056
:1001C000A083E0E0FBE020822182AEE6B1E0A487DC
:1001D000B587A1E0A583A5E0A083EAD2EFD2789409
:1001E00008D01AD0C2E610D58FB39927E0E017D215
:1001F00073C0E0E004C0EFEF02C0EBE000C0E0FD40
:10020000689AE0FF6898E1FD4F9AE1FF4F98E3FF9D
:10021000619AE3FD61980895E0E002C0E0E000C06B
:10022000F0E000C0F0FF04C0E0FD2F9AE0FF2F983F
:10023000F1FF04C0E1FD2F9AE1FF2F98F2FF04C007
:10024000E2FD289AE2FF2898F3FF04C0E3FD299A13
:10025000E3FF2998F4FF04C0E4FD2A9AE4FF2A98FA
:10026000F5FF04C0E5FD2B9AE5FF2B98F6FF04C0CF
:10027000E6FD2F9AE6FF2F98F7FF04C0E7FD2F9ABF
:10028000E7FF2F980895E0E0FFEFCCCFF894E8ED7A
:10029000F1E0E0933400F0934100FFCFF894A8958B
:1002A000E8EDE4BFE1E0E0930001FFCFCDD316D34A
:1002B0009681C1D30C92BED3CCC3C6D3BBD3978196
:1002C000BAD30CD309901C9001100C92119601978F
:1002D000C9F7B0D3BED30895E7E2F9E6EDBFFEBF9C
:1002E000222734E0EAE29BD1C091006996D43CD148
:1002F000203491F324FD10C026FFF9CFE8E9F3E0A4
:10030000059000160590159019F4F0010995E4CFB9
:10031000E43DB1F720FFEBCF003449F7622F637063
:10032000613029F720620DD17A3B21F46939A1F6B9
:100330002061DDCF24FFD0CF7B3B39F4693060F6FC
:10034000C62F6BD4246031E0D2CF7C3B21F422FF56
:10035000C3CF98D1CCCF7F3B51F6603011F40AD097
:10036000BBCF613009F40AD0B7CF68E08BC1C02F92
:100370004BD4B2CF87D3E0EE52D1AECF9BD3EEEECB
:100380004ED1AACF0053E1E00A9512F0EE0FFCCF58
:10039000FEB3FE27FEBB089530C20131C20132C256
:1003A0000133C20134C20135C20136C20137C20174
:1003B000535D0252440264B50161B70162B7016343
:1003C000B70165B70166B70173B70175B7016CB7BF
:1003D00001006C01EFB64F01E0910408E7FF13C084
:1003E000E72DE619E03C23FF08F02F9AE091010881
:1003F000E2FD82C0F0E7E72D7090000871927E2E3A
:10040000F401EFBE1895E091060BE093060B76140D
:1004100011F442104A943A9422F4332EE1E0E0932E
:100420006704F401EFBE1895E0E0F0E00895EDE018
:10043000F0E00895E0E9F9ED0895E1E0F0E00895D5
:10044000E0E9F9ED089503D0EDC301D0E9C3AFE0D1
:10045000B0E0C0E1D1E10895F8DFA193B193C19379
:10046000D193F1DFA193B193C193D1930895DFEFBD
:10047000672C94D06710FBCF2197D9F7089517D038
:1004800048F00895EBE001C0EAE0CADE209248019E
:1004900020924901A895F8942F98F0E208D0E8F747
:1004A000BFDEF0E404D0E8F7A4DEB6DEEFCE0090C5
:1004B000480100904901F0150895C0910069ADD33D
:1004C00059D3C9F4CF3911F0CB39A9F4D0DF209238
:1004D00005082092000A2092000B2092050B209222
:1004E00048012092490193D1FE01E050F048F69571
:1004F000E795F8940994FBCEF894209206082F987B
:10050000E8E07DDEE5E58CDEEFEFA89500C000C0F9
:1005100000C0E211EA95379BF8CFE211F5CFC4CFC6
:100520008E2F99277DDEE8E06ADEE6EA78D0F0914A
:100530000D00E2E0F0FDEAE062DE32E0672C2ED052
:10054000F6CF04D0702F02D0602F089507D0029507
:100550000F9304D00F900029F00E089505D00F7D61
:10056000075308F4095D089519D0421002C025FD13
:10057000B3CE7614C9F3F0E7E62D008163942064CE
:1005800042102F7B26FD2F7EFBE04F2E21FF23956F
:100590000A3011F00D3009F42C7F00C00F01A8952E
:1005A00023FD06C0E72DE619E03218F42F9801C0AC
:1005B0002F9AF0010895019101D003C00F93029585
:1005C00001C00F930F70005D0A3308F0095F1BD064
:1005D0000F910895092FF0DF082FEECF0AE013D016
:1005E0000DE011C0E0E0F1E1E6DFE5DFE4DF0EE27F
:1005F0000AD029DFCE01EEDFCD01ECDF26DFCE0110
:10060000E9DFCD01E7CFD8E1C9DF0090040805FE9E
:10061000FBCF21973799C1F7009302080895E09323
:100620000169FDE0E091016905910DBBE09301696D
:10063000002391F012F0E7DFF4CFE9990ED0EA99A8
:1006400011D0EB991AD0EC99CDDFEE9913D0ED993A
:10065000B4D2E899C3DFE5CF0895C591E09301696D
:10066000DCD292C200900069109031690AE2101049
:100670000895C9CF09E0C7DF89C2EC9BABCFEC98E6
:100680000EB39ACF6CBBE099BCD2E19907D0E39945
:100690009CD2E6991CCFE799F5CE089517D1B7D033
:1006A000C0930269D09303695FDF20FFFDCF0A3357
:1006B000D9F74CDF502EF02E44DFC0910269D09163
:1006C0000369C60FD71F42DF003031F00130F1F06F
:1006D000023069F0E4E024CFFDD008945208A0F085
:1006E0002AD1E5E0C8F032DF802F0ED1F6CF29DF26
:1006F000660F771F660F771F660F771F660F771FCE
:10070000609302697093036903D0CECF5AD100C0C1
:100710001DDFF21411F0E6E003CF0895BBD0C3E96A
:10072000D3E049D04EC0A8950895C487D5870895D1
:10073000C93008F0C9E0DCE0CD9FE001C450D547E6
:100740000895F6DFADC0C083D183C48BD58BCA0FAB
:10075000DB1FC283D3830895A68FA895C28FD38F42
:10076000D5D020F0C28DD38D2197B9F70895AA274F
:10077000BB27C48FD58FEC8FFD8FA895A28FB38F29
:10078000C48DD58DFE01B2D048F0C48DD58DFE014B
:10079000BCD020F0A28DB38D119779F708958FEF1B
:1007A00079D0868FA895B2D0E8F70CC1FADF76CD64
:1007B00071D0CEE2D5E0C68BD78B08956BD0C7E35E
:1007C000D5E0C08FD18F089565D081D00ED018D0DC
:1007D00027C260D07CD009D013D024C25BD0F5DF13
:1007E00002841384C015D1050895C489D58908955C
:1007F000C489D58900801180C019D10908954AD0D3
:10080000A281B38104881588A019B109089542D046
:10081000C081D18108953ED0C281D38108953AD05C
:1008200000801180C281D381C019D10909F02196BD
:100830000024021C08957CDFFE0100801180C2812B
:10084000D381F2CF0C2EC8E0DBE81884101419F025
:100850002C96C836D1F70895DCE0CD9FE001C45056
:10086000D5470895CE01C8E0DBE8088019808015DF
:10087000910530F00A801B808015910531F028F039
:100880002C96C83691F70894089588940895A0E0AE
:10089000B1E70895E8E2F9E60895FCDFA487B5879B
:1008A0008CE0099001928A95E1F73C97C481D5814B
:1008B0002197C095D095C28BD38BC081D181C6873B
:1008C000D787C08BD18B278E02D07EC0E3DFC0815B
:1008D000D18101C0DFDFC48BD58B089584819581E0
:1008E000A685B785C485D5850895D4DF25D038F091
:1008F000C489D58950D020F08991C48BD58B0895B7
:1009000021968FEF0894F9CFC5DF868F15D090F030
:1009100053D0C481D5812197A489B589CA23DB230B
:100920001196A48BB58BA485B585CA0FDB1F868D68
:10093000888388940895AEDF0488108001140588A8
:100940001180010440F0048812800114058813808E
:10095000010419F010F008940895889408959ADF1E
:10096000C489D589A685B785CA17DB0730F0A08969
:10097000B189CA17DB0719F010F00894089588941C
:10098000089588DFC685D78506D0A78DAE7F08F489
:10099000A160A78F0895C034B0E1DB0748F0D631DD
:1009A00048F0D03628F0D03828F0D03908F002C00E
:1009B0000894089588940895D3DF10F403D004D0E8
:1009C000089568DF2BD026C0C489D5890288138892
:1009D000C021D121C687D78784819581C80FD91FAF
:1009E0002197C08BD18BCEDF40F0A685B785C4851B
:1009F000D5850D9009920197E1F70895078C00FCC9
:100A000007C06CDF09901D90011419F40197D1F70C
:100A100018940895F3DF09F050CC0895078C00FC7A
:100A200008955CDF09901D90102001103FCC0197C4
:100A3000C9F7089590E0809102108370E1F78DE985
:100A400084BF90930010089506880F9207880F9234
:100A50000895008C0F92018C0F92089528602F9AB0
:100A6000FF93F4E69BDDFA95E9F7FF910895277F60
:100A700095CDC2E066DE80E180930110B0DE209269
:100A80000110089507DFEF01DFDF2DD069F09BE053
:100A9000D2DFE895CFDF92E0CEDF00801180E895CD
:100AA0003296F03AD1F7C6DFFE01D3CFC2E049DE7D
:100AB00002D0F4CBEFDEFF93EF93C6DFDADF81F4F1
:100AC00012D071F094919F3F59F09BE0B4DF008207
:100AD000B1DF92E0B0DF04900192F03AE1F7AADFD3
:100AE000EF91FF91B6CFE0E0F0E994918191891701
:100AF00011F4F03AD1F7E0E0F0E908950000FFFFCB
:100B0000010000002D00000000A0FFFF000208020D
:100B100066019FD90090FF9F0002080262029BD9E4
:100B20000014FF150100181265039ED980109F1054
:100B30002000080263049CD900111F11010000006D
:100B400073050000501058100100000075060000E9
:100B50000060FF670002000061079AD940104F1043
:100B6000010000006C0800000011001101000000ED
:100B70002D09000033DEA0930469B0930569C0938A
:100B80000669D09307690895F5DF06C0E0E1E093B8
:100B90000110F0DF20920110E0ED09F4E6ED0ED037
:100BA000909107698091066915DD909105698091A2
:100BB000046910DD02C0E0ED01C0ECEDFDE005913F
:100BC000002311F020DDFBCF089508DD7FDEF3DF89
:100BD00061DE8489958900E1080F090FF02EE2E9B2
:100BE0001EDD83DE38F0082FF00EE6DC53DE0489CC
:100BF0000F70B9F7E0DFF1940F2DDEDC9CDE40F7DB
:100C0000089564DECCDDDDCE05D00091316900931E
:100C10000069089517DE3BDE40CE1EDE38DE3DCE95
:100C2000E89404C06894CA0FDB1F00C0EF93FF93E1
:100C30006FEF7FEFCB01FF27A8950EF019900EF410
:100C40001A9008941794062E0F1E969587957795FF
:100C5000679500FE08C0EDEE9E27E8EB8E27E3E8DF
:100C60007E27E0E26E27169471F7119728F790958A
:100C70008095709560950E01DB01EC01862387233A
:100C800089238095FF91EF910895FFFFFFFFFFFFFC
:100D0000A1811B5B34316D2E2E2E5B524553455411
:100D10002D885DA11B5B34346D2E2E2E5B524F4D02
:100D20002E4439392E6C65645D00A1814944205BF5
:100D3000905D814C3A208708523A201B5B33326D1C
:100D40004439395230303031A1533A208705553A71
:100D500020870681413A208707423A20C702433A5A
:100D6000208704453A208703463A20870181524F65
:100D70004D205B987C527C537C645D202D205B6110
:100D80007C627C637C657C667C6C7C737C755D3E80
:100D90002000813A31301B5B39346DA81B5B393040
:100DA0006D3030A0000081811B5B34356D2E2E2EFE
:100DB0005B4572726F722023885DA0202D203C62FB
:100DC0007265616B3E20746F20726573756D65008E
:100DD0001B5B39306D001B5B33326D001B5B6D009C
:100DE000A1811B5B34346D5B532D3E5D0000A181FE
:100DF0001B5B34346D5B3C2D525D0000FFFFFFFF39
:100E0000ACAAA9A5A3A69C9A999593968E8D8BB111
:100E1000B2B4B874726C6A696563665C5A595553AA
:100E2000564E4D4B4771E8E4E2D1C9C5D8D4D2CA79
:100E3000C6CC78171B1D1E2E363A272B2D3539337D
:100E40001ED00ED01CD00CC00BD019D009C017D0AA
:100E500007D015C005D0E991EF73E081ED930895B7
:100E6000E991EF70F881FF0FEE1FFF0FEE1FFEE814
:100E7000E081ED93E991EF73E081ED930895FEE851
:100E8000E881E695E695E081ED93E991E370E295DE
:100E9000F881F07FF295EF2BFEE8E081ED93089565
:100EA000FEE8E881E081ED930895FFFFFFFFFFFF7B
:100F0000005EBCE2613FDD83C29C7E20A3FD1F41E9
:100F10009DC3217FFCA2401E5F01E3BD3E6082DCD9
:100F2000237D9FC1421CFEA0E1BF5D0380DE3C62C9
:100F3000BEE0025CDF81633D7C22C09E1D43A1FFB9
:100F40004618FAA427799BC584DA3866E5BB5907A9
:100F5000DB856739BAE406581947A5FB7826C49A99
:100F6000653BD987045AB8E6A7F91B45C6987A2489
:100F7000F8A6441A99C7257B3A6486D85B05E7B979
:100F80008CD2306EEDB3510F4E10F2AC2F7193CD69
:100F9000114FADF3702ECC92D38D6F31B2EC0E5059
:100FA000AFF1134DCE90722C6D33D18F0C52B0EE49
:100FB000326C8ED0530DEFB1F0AE4C1291CF2D7339
:100FC000CA947628ABF517490856B4EA6937D58B29
:100FD0005709EBB536688AD495CB2977F4AA481619
:100FE000E9B7550B88D6346A2B7597C94A14F6A809
:100FF000742AC896154BA9F7B6E80A54D7896B35F9
:1010000087C0FFCFFFC7FFCFFFC7FFCFFFC7FFCF0F
:10101000FFC7FFCFFFC7FFCFFFC7FFCFFFC7FFCF80
:10102000FFC7FFCFFFC7FFCFFFC7FFCFFFC7FFCF70
:10103000FFC7FFCFFFC7FFCFFFC7FFCFFFC7FFCF60
:10104000FFC7FFCFFFC7FFCFFFC7FFCFFFC7FFCF50
:10105000FFC7FFCFFFC7FFCFFFC7FFCFFFC7FFCF40
:10106000FFC7FFCFFFC7FFCFFFC7FFCFFFC7FFCF30
:10107000FFC7FFCFFFC7FFCFFFC7FFCFFFC7FFCF20
:10108000FFC7FFCFFFC7FFCFFFC7FFCFFFC7FFCF10
:10109000FFC7FFCFFFC7FFCFFFC7FFCFFFC7FFCF00
:1010A000FFC7FFCFFFC7FFCFFFC7FFCFFFC7FFCFF0
:1010B000FFC7FFCFFFC7FFCFFFC7FFCFFFC7FFCFE0
:1010C000FFC7FFCFFFC7FFCFFFC7FFCFFFC7FFCFD0
:1010D000FFC7FFCFFFC7FFCFFFC7FFCFFFC7FFCFC0
:1010E000FFC7FFCFFFC7FFCFFFC7FFCFFFC7FFCFB0
:1010F000FFC7FFCFFFC7FFCFFFC7FFCFFFC7FFCFA0
:1011000001009BD901000000DE57EF687222C3FE88
:10111000A895F8942224E8EDE4BF20921001E8EDB0
:10112000F1E0E4BFF0936200EFE1F9E6EDBFFEBF4E
:10113000E0E0F9E6C0E0DAE021922197E9F7AFD4E8
:1011400009F0B2D4BED409F0C1D4EFB3E093026881
:10115000E0910468E395F999E0930468E0910368ED
:10116000E395FB99E0930368E0910068F0910168D2
:101170003196E0930068F09301688CD4489A409AC5
:10118000E0E2F8E02682A0E8B1E0A087B1872582FE
:10119000A3E0A783A0E4A683A9E0A093000A20927D
:1011A000200A2092210AAFEFA0930C0BA0930D0B05
:1011B000A1E0A093000B2092010B209274042092D6
:1011C000760464986698C9D4C8D424D4C6D4E0916F
:1011D0007F68E21175C0E0915068E2110CC370C0E5
:1011E0000C9410000C9411000C9412000C94130039
:1011F0000C9414000C9415000C9416000C94170019
:101200000C9418000C9419000C941A000C941B00F8
:101210000C941C000C941D000C941E000C941F00D8
:101220000C9420000C9421000C9422000C942300B8
:101230000C9424000C9425000C9426000C94270098
:101240000C9428000C9429000C942A000C942B0078
:101250000C942C000C942D000C942E000C942F0058
:101260000C9430000C9431000C9432000C94330038
:101270000C9434000C9435000C9436000C94370018
:101280000C9438000C9439000C943A000C943B00F8
:101290000C943C000C943D000C943E000C943F00D8
:1012A0000C9440000C9441000C9442000C944300B8
:1012B0000C9444000C9445000C9446000C94470098
:1012C000C0E4D8E68DDFF993E9938CDFF993E993D5
:1012D00097DFE4E4F8E6D193C193B193A193A09191
:1012E0004768AF77A16020925069A093516915D3E8
:1012F000A0910091B0910191B883A983AFEFBFEFA6
:10130000E09102A1EF3941F4E09103A1E93D21F41C
:10131000A09100A1B09101A1BA83AB832C8203D329
:10132000288229822A822B822C8200D3E0E0F1E9F4
:10133000A081B181B883A9839BB781E08BBFA081D5
:10134000B1819BBFBA83AB832C82E8EEF3E0E093DC
:101350002369F09324690091FE154427E0914468C5
:10136000E093256921E09DC19091366980E0FA8182
:10137000943081F08B81953069F031FD7BC18D8196
:10138000983009F07BC1EA81E0932068EB81E0931B
:101390002168FC81F09322682092236920922469BD
:1013A0005DD123E083C2F6D18E8180934A688F811C
:1013B00080934B68888580934868898580934968C5
:1013C0008A854CD127E076C2EAD127E07FC2E7D1F7
:1013D000909136699D3080E090E011F09B858C857E
:1013E00090934E6880934F68888580934C68898578
:1013F00080934D688A8582FD04D283708093506803
:1014000028E071D2809150688211EED14AC190914A
:101410003669953011F0983011F4EA8116C0973092
:1014200011F09A3019F4C0D1EC810FC0993011F04D
:101430009C3019F4AFD1EE8108C09B3011F09E3082
:1014400019F4ADD1E88501C019C1EC3080F4F0E0A9
:10145000E55DF54F0994D3C0D3C0D4C0D4C0D3C088
:10146000D2C0D5C0D5C0DBC0E1C0E9C0EEC019C153
:101470009BD18C818093A46B38854985823011F48F
:1014800030FD0FC128E1E19A30FD31D230FF32D278
:10149000C7E0E4E8FBE6E0DEC091A46BE1D1DCDE6E
:1014A000DAD08E819F81D5D1EDEEDE2EE8EBCE2E07
:1014B000E3E8BE2EE0E2AE2EEFEF9E2E8E2E7E2EC5
:1014C0006E2EB4D1EEC070D10C8009140D800804CA
:1014D0000E8007040F80060428E211F428E4A6D148
:1014E000D3C162D128E7ADD1D6C15ED128E5D3C141
:1014F0005BD128E03E7F4427C7C156D1B1D190913E
:101500003669963019F08C8130FDAEDE30FDB0DEEC
:10151000C8C030FDADC090913669933009F405C064
:10152000953011F441D101C0A9C09AD17FDE8093DA
:10153000486911D07BDE809349690DD077DE8093B6
:101540004A6909D073DE80934B6905D092959095D6
:1015500090934C69F8C1991F90FD08950894879560
:1015600082D18695E9F7089530FF82C0909136695F
:10157000933009F420C0953011F416D11CC09B3073
:1015800011F4229606C09D3019F40ED1249601C0A4
:1015900075C078E069910894679565D16695E9F71B
:1015A0007A95C1F7A8E0B0E02897E4E8FBE656DEBC
:1015B000A8E0B0E01BC0CFD081F478F0A0E0B2E7A3
:1015C00060E8C9D011F4E8F748F08FB74CD18FBF6D
:1015D0006795B8F76D93A13898F363C0A050B247F0
:1015E000C0E0D2E7E4E8FBE639DE00C0C4E8DBE6B1
:1015F00037D130FD37DE30FD41DE53C052C05FC110
:101600005DD13ACE5CC15AD1EFD002E04AC05BC195
:101610009E3009F046C056D123D13CDE42C09E30F8
:1016200009F03FC04FD11CD133DE3BC047D1C1E0F0
:1016300001D2CF3919F4D93D09F4E3D41DCE3ED1FE
:10164000C1E00ED109DE8FEF11CE38D1C3E008D151
:1016500003DE8FEF0BCEC6E2D9E6089590910A0B18
:10166000982392111EC0089584E40CC082E50AC03C
:101670008DE408C083E406C085E404C08CE402C0A5
:1016800084E500C06AD20DC0C0912369D09124695D
:10169000219738F0C0932369D093246911F4B1D015
:1016A000B3CFEFE1F9E6EDBFFEBF57D256D2AFD0D0
:1016B0002CBA6AE050D01130A1F76A95D9F74BD017
:1016C00081F7E8F3913808F43094C5DF7727EE27E7
:1016D00061E041D0A9F6661FE0F769937627C6332B
:1016E00068F639D069F620F0E627FFE8E081F0CF10
:1016F0007211C2CFE09337693D7FE2113260C6526A
:10170000C0933669A8DFE881ED3F69F000FD7CCF2A
:10171000F981EF2BEA81EF2B29F4E0913669E33070
:1017200009F472CFB1CF6981603F08F4BACF6F700E
:10173000EEE8F9E9660F660FE60FF21D019002224E
:1017400009F496CF019000FE02C031FD93CF0190C5
:101750001080F0010994A89511270EB0032404FE0F
:10176000FCCF9091200A2092200A2092210A0EB0EC
:10177000032404FCFCCF8091200A2092200A2092AE
:10178000210A8D31111F813810FD8F30111F012E5C
:1017900006940895E0E4F8E684E01DD00CC0E4E48B
:1017A000F8E686E018D007C00FD029F00AD019F06B
:1017B00005D009F00CD0821174CF0895EAE4F8E660
:1017C00009C0E8E4F8E606C0ECE4F8E603C0EEE49D
:1017D000F8E600C082E0DE01129601901D9001142F
:1017E00011F48A95D1F70895C1E024D1CF3911F4CD
:1017F000D93D09F00895B1D1E09105A1E0FD01D0F6
:10180000FFC3E8EDE4BFE5E8E09301100895F0E4DC
:101810004211F0E1E0914801E0914901EF23E2112A
:1018200003C000C077D18AC179D18EC117D00E0113
:1018300012DF6A8A7B8A8C8A9D8A0F8A188E298E8B
:10184000089509DF6A887B888C889D888F89988DA8
:1018500000C006D0E7DCC80FD91FDECC01D014CD04
:10186000E4E6FBE6089530F09694879477946794C5
:1018700030F009C0969487947794679420F09D2463
:101880008C247B246A24089554D0988289827A8299
:101890006B822C8259C0E2DFDE018091A46B49D0BB
:1018A00088832982BA83AB832C824EC0E0E4F8E6B9
:1018B00092E045C0E4E4F8E690E041C0E19A33D01C
:1018C00024D042C0E19A32D020D03EC029D03CC0C2
:1018D000E19A32D0ED01ECE3E883E983EA83EB831C
:1018E000EC83ED8334C0E19A18D00FD02DC0CEEC3C
:1018F000D9E92AC0C091A46BC5DCDE011AD00882E8
:10190000B983AA832B822C821FC0E0910110E4705E
:10191000FC81FB7FFE2BFC830895C5E5D9E6089585
:10192000C0E5D9E60895CAE5D9E60895CFE5D9E638
:101930000895C8E4D9E60895A0E4B9E60895F9DF6A
:1019400084E05AD09883F5DFF7DFAADC00C097E780
:1019500012D09DEA10D0F0DF86E09091240895FF28
:10196000FCCF9D91909322088A95B9F78AE2F5D031
:10197000E19B97CE08950090200A0916E0F320928B
:10198000200A2092210A749B769970CE0895010056
:10199000B4090201D3090401E4090401E7090000C4
:1019A000FE0A0000FE0A0000FE0AFF01070A080105
:1019B000380A7001630A2001710A4001750A10019A
:1019C000780A10017D0A1000890A1000B40A02008A
:1019D0003214FFFFF89468D0F89478D00C943A0948
:1019E000F89458D069D00C943A090E948E0DF8945E
:1019F000A895FFCF0C943C09019009928A95E1F7D4
:101A0000089529928A95E9F70895208221822282F9
:101A100023820895E4E8FBE60E942809C4E6D9E69B
:101A20000E942A09E4E6FBE60E942809C4E6D9E6FA
:101A30000C942A09E4E8FBE60E942C090C941C098A
:101A40001FD005FE0EC001800DC01AD006FE09C0D1
:101A500001800AC015D007FE04C0018007C010D065
:101A600039F00895000C111C000C111C000C111C05
:101A700010820FB6F8942182228223820FBE08952D
:101A80001180100C11821280121C128203800394A8
:101A900003820895C0E0D8E6AAE1B0E01FC0C0E02C
:101AA000D8E6AEE1B0E027C0C0E0D8E680E4A9DF28
:101AB000EFEFE0931F680895C0E4D8E6AAE3B0E032
:101AC0000DC0C0E4D8E6AEE3B0E015C0C0E4D8E68F
:101AD00080E897DFEFEFE0937F6808950E94FC08AD
:101AE000F001A095B095C095D095A083B183C28335
:101AF000D383248208950E94FC08F0018083089516
:101B0000E2E0F2E000C0EF23F095009020690F22A0
:101B1000E02906C0E0E004C0EFEF02C0EBE000C047
:101B2000E093206900C0E09120690C94FA08EF234B
:101B3000F095009021690F22E02908C0E0E006C07E
:101B4000E5E504C0EFEF02C0E0E000C0E0932169EA
:101B500000C0E09121690C94F8080895FFFFFFFF91
:1020000011C1089581E084C082E082C083E080C075
:10201000CAD0CDC085E07CC086E07AC087E078C0B9
:1020200088E076C089E074C08AE072C08BE070C03E
:102030008CE06EC070C000008EE06AC08FE068C0A7
:1020400080E166C081E164C082E162C083E160C07A
:1020500084E15EC085E15CC086E15AC087E158C07A
:10206000A8C0000089E154C08AE152C08BE150C091
:102070008CE14EC08DE14CC08EE14AC08FE148C07A
:1020800080E246C081E244C082E242C0C5C0000096
:1020900084E23EC085E23CC086E23AC087E238C0B6
:1020A00088E236C089E234C08AE232C08BE230C0B6
:1020B0008CE22EC08DE22CC08EE22AC08FE228C0B6
:1020C00080E326C081E324C082E322C083E320C0F2
:1020D00084E31EC085E31CC086E31AC087E318C0F2
:1020E00088E316C089E314C08AE312C08BE310C0F2
:1020F0008CE30EC08DE30CC08EE30AC08FE308C0F2
:1021000001009FD902010000DE57EF68D4D0D5C985
:10211000E82F0C942812E89B06C0E898209213013F
:10212000C09222081895FF93EF93EFB7EF93DF93D8
:10213000CF93BF93AF93E0911C0BF0911D0BA09137
:10214000026AB091036AE093026AF093036AEA1BA1
:10215000E093046AFB0BF093056A6894B2E0E03701
:10216000FB0708F4ED9AB3E0EC30FB0730F0E8949D
:10217000B4E0E833FB0708F4ED9AF091140BE0E1CA
:10218000A0911D6AEE9BFE27EE98E3E0A211E4E029
:10219000E0934102F093140BEFEFE093160BE09104
:1021A000066AFFE1099401E00093530118950C942D
:1021B0004D293F01E091D26AF091D36A0091100657
:1021C0000193009111060083E091D46AF091D56AE1
:1021D000019100930C060191009308060191009370
:1021E00009060191009300060191009301060191F7
:1021F0000093A00001910093D26A01910093D36AE9
:10220000019100930B06019100930A06E093D46AB2
:10221000F093D56AF30118950FB72092031021604F
:102220000FBF1895A895F89422242DBAE8EDE4BFC5
:10223000E5E8E0930110EFE1F9E6EDBFFEBFE0E075
:10224000F9E6C8ECDAE021922197E9F72092050837
:10225000ACE4A0931202AEE4A0931302A3E0A09317
:1022600041022092730463984998419A4A98429A8D
:102270002998219A2092000AE0E4FAE02082218243
:1022800022822382A3E2A183A0E0A2AFA3AF20A277
:1022900021A2A0E6BAEEA6A3B7A3A3E0A083A0E87C
:1022A000A09312040A98029AE0E0FBE02082A7E1E2
:1022B000A1832582A0E8A487A0E0A587A3E0A0834E
:1022C000E0E1FBE02082A2E0A183A1E4A483A1E0FD
:1022D000A683A583A3E0A083A0915101A0FDFCCF1C
:1022E000A9E1A0935001A1E0A0935301A093520152
:1022F000A4E0A093B504A598E0E0F6E0A1E1A083F6
:10230000A0E0A183ABE0A283A0E0A383A0E0A4832C
:10231000A2E0A0930506A2E4A087A2E4A187A8E01A
:10232000A09315040B98039A0E98069A0C98049A99
:102330000598A4E0A0934109A1E3A09340090E945D
:10234000202BE8EDE4BFE9E0E0930001E1E0E09359
:1023500050000E94432B0E94452C0E94851B0E9426
:10236000E71E0E94152B0E94152B0E94D8250E9463
:102370003A2657D215D698D40E941C280E94C3280A
:102380000E9488210E94152BE1E0E09350680DD156
:10239000EFEFE093160BE0935301E09304100C94DD
:1023A000DC28EDE5FDE60C94A22AE7E08091186BAD
:1023B00084FFE093010B0895EAE0F9ED8091186B3A
:1023C00084FF0C943D130895E7E1E093010BE2E2F2
:1023D000F9ED0C943D13E0E0909151689F7709F07E
:1023E000E260F0911D6AF0FDE460809130709091A0
:1023F000516882FD909597FFE160FFE10E94C02344
:10240000F0E0E0FDF160F0931B6D0895EE27089574
:10241000189408950895F894C0D0F894D0D00C94EE
:10242000EB13F894B0D0C1D00C94EB130E94242B82
:10243000F894A895FFCF0C94ED13E770F0E0EA5BF9
:10244000FB45E08108950102040810204080ECE380
:10245000F894AFE1B9E6ADBFBEBF0E943C2BA89592
:10246000FECF019009928A95E1F7089501901990A5
:10247000011411F48A95D1F7089529928A95E9F704
:102480000895208221822282238208959FEF9993CA
:102490008A95E9F70895E0E0FFE80990E025E081FA
:1024A0008A95D9F7EE230895799FE001689FD001BE
:1024B000699FB00DC11DD21D789FB00DC11DD21DE9
:1024C000089580E406C080E204C080E102C088E094
:1024D00000C0C083D1838283238224822582CDCF12
:1024E00011D00BC00FD007C00DD003C00BD0AA0F66
:1024F000BB1FAA0FBB1FAA0FBB1FAA0FBB1FAA0F90
:10250000BB1F0895B381A081AB0FB181B21DDC91D7
:10251000CC93A481B581AD1BB209AC0FB21DA483CD
:10252000B583C281D381D395DC1708F0DD27D3832F
:1025300008951FD005FE0EC001800DC01AD006FE02
:1025400009C001800AC015D007FE04C0018007C081
:1025500010D039F00895000C111C000C111C000C57
:10256000111C10820FB6F8942182228223820FBEA2
:1025700008951180100C11821280121C12820380A7
:10258000039403820895C0E0D8E6AAE1B0E01FC03A
:10259000C0E0D8E6AEE1B0E027C0C0E0D8E680E415
:1025A0006CDFEFEFE0931F680895C0E4D8E6AAE37C
:1025B000B0E00DC0C0E4D8E6AEE3B0E015C0C0E4C2
:1025C000D8E680E85ADFEFEFE0937F6808950E9435
:1025D000AD13F001A095B095C095D095A083B183BF
:1025E000C283D383248208950E94AD13F0018083B7
:1025F0000895E0913B70E53008F0E2E0F0E0EE5F36
:10260000FC4E099421C01EC00AC006C000C08091C3
:102610008868209288681AC080910A6D17C09091CE
:102620004C6880914D68892B31F00CD009D014D0C2
:1026300009D006D014C006D003D014C00C94D72AF9
:102640000C94DC2AFBDF05C0FBDF03C08211FACF4C
:10265000FBCF82E390E009C088EC90E006C088EEF2
:1026600093E003C088EE93E000C00C946D2AE091E3
:10267000D26AF091D36AEF2B0895CF93C091D26ABA
:10268000C21106C0C091D36AC21102C0CF9103C06B
:10269000CF9188940895CF93C2E0C0930A06C1E019
:1026A000C0930D06C191C0930006C191C09302066C
:1026B000C191C0930306C191C0930406C191C09318
:1026C0000C06C191C0930806C191C0930906C1913F
:1026D000C0930006C191C0930106C191C093A000B0
:1026E000C191C093D26AC191C093D36AC191C09382
:1026F0000B06C191C0930A06E093D46AF093D56AA1
:10270000CF91089408957695679576956795769517
:102710006795769567958091061190910711861BB4
:10272000970B6091041170910511BEDEC695B795A7
:10273000C695B795C695B795C695B7957C2F6B2F5F
:1027400008950C9410000C9411000C9412000C9439
:1027500013000C9414000C9415000C9416000C94A7
:1027600017000C9418000C9419000C941A000C9487
:102770001B000C941C000C941D000C941E000C9467
:102780001F000C9420000C9421000C9422000C9447
:1027900023000C9424000C9425000C9426000C9427
:1027A00027000C9428000C9429000C942A000C9407
:1027B0002B000C942C000C942D000C942E000C94E7
:1027C0002F000C9430000C9431000C9432000C94C7
:1027D00033000C9434000C9435000C9436000C94A7
:1027E00037000C9438000C9439000C943A000C9487
:1027F0003B000C943C000C943D000C943E000C9467
:102800003F000C9440000C9441000C9442000C9446
:1028100043000C9444000C9445000C9446000C9426
:102820004700DED5EFE7E0930F6DE5E4FDE6C0E697
:10283000D3E749DEEBE4FDE6C0E8D3E744CE809180
:1028400052680895F894E0917D6A20927D6A7894A8
:10285000E03009F40895EF3208F0DCCDC0917B6AD6
:10286000DAE6E95CF0E0FB4E09950C946614D2CDF3
:10287000F2C01BC11FC1CECDCDCDCCCDCBCDCACDED
:10288000C9CD43C157C175C183C196C1A9C1BCC1DE
:10289000CFC1E2C1F5C1BDC0BDCDBCCDBBCDBACDB0
:1028A000B9CDB8CDB7CDB6CDB5CDB4CDB3CDB2CD14
:1028B000C0C0B0CDAFCDAECDADCDBAC000C2FFC1AE
:1028C000FEC1FDC1FCC1FAC116C2FAC1A895F894B7
:1028D0006091386D7091396D789415DFEB01CF5DA3
:1028E000D040E7E1FDE60C2E24DE6894E0911D6AFD
:1028F000F0913070EF27E0FDE894D0912E6DC091FB
:102900002F6DC7FF05C0C095D195CF4FC7FDCFE74D
:10291000DD0FCC1FD8E7CD9F000C111CC12DE5E4C5
:10292000FDE6E0DD16F0B0933D6D16F4B0933E6D1C
:10293000D091306DC091316DC7FF05C0C095D19564
:10294000CF4FC7FDCFE7DD0FCC1FD8E7CD9F000CE1
:10295000111CC12DEBE4FDE6C5DD16F4B0933D6D11
:1029600016F0B0933E6DA0913D6DAB0FA795A0936F
:10297000206AA25308F4A0E0A0931C6DA0913D6DC5
:10298000B0913E6DAB1BA058EFE0FDE60A2ED1DD05
:10299000C091336DCA5508F4C0E0C43608F0C4E6EF
:1029A000C695E3E1FDE60C2EC4DDE091A26AF0914C
:1029B000A46AEF1708F4EF2FE093A56AE093A66AE4
:1029C00080E0A0913470A093A306B0ECAB9FB091CF
:1029D000136DB11508F08160A0913570B091176D3D
:1029E000B25308F4B0E0BA1708F08460A0913670D2
:1029F000B091206ABA1708F088600E94D62309F0C7
:102A0000826080930A6D90911A70982B90931A703F
:102A1000089520925168E2E5F8E6219221922192F0
:102A2000219221922192219221922192BEDD3CC1DC
:102A30000895E0917E6AE33019F099818A8103C09C
:102A400090E089818F77EFB7F89480934C6A9093E8
:102A50004D6AEFBF0895E881E4FBEE0FE0F9E6FB75
:102A6000EF71E43010F4E6950DC0E450F0E0809191
:102A7000197084FDE35C84FDFF4884FFE25784FF06
:102A8000F545E081E7F994D1EF138FDD0FC103071E
:102A90000C1015191E22272B3034393D42464B4F5E
:102AA00054585D61666A6F73787EE98181D1EF1356
:102AB0007CDDFCC0E9817CD1FE27F0E08A81909129
:102AC0005268809352688927F82BE0917E6AE5303E
:102AD000C8F08B8190915368809353688927F82BB5
:102AE000E63080F08C8190915468809354688927F7
:102AF000F82BE73038F08D819091556880935568B8
:102B00008927F82BF21151DDCFC0FF27E0914E6AE3
:102B100080914F6A8695EE1FE095EF71888184FB66
:102B2000880F80F9909152683CD180935268F211DD
:102B30003CDDBEC0FF2788818295880F9091526846
:102B4000E0914E6AEE0FE095E07E2BD180935268C3
:102B50008881880F829590915368E0914E6AEE0FBC
:102B6000EE1FE095E1701DD180935368F2111DDDD9
:102B70009FC0FF278881880F90915368E0914F6A2A
:102B8000E095EE710ED180935368F2110EDD90C086
:102B9000FF27E0914F6AE5FD089589819091536880
:102BA000F7D080935368898190915468F5D08093D1
:102BB0005468F211FADC7CC0FF27E0914F6AE5FD12
:102BC0000895898190915468E3D0809354688981F5
:102BD00090915568E1D080935568F211E6DC68C0A9
:102BE000FF27E0914F6AE6FD08958981909155682D
:102BF000CFD080935568898190915668CDD08093CD
:102C00005668F211D2DC54C0FF27E0914F6AE6FD0E
:102C10000895898190915668BBD0809356688981C8
:102C200090915768B9D080935768F211BEDC40C0CC
:102C3000FF27E0914F6AE6FD0895898190915768DA
:102C4000A7D080935768898190915868A5D08093C8
:102C50005868F211AADC2CC0FF27E0914F6AE6FD0C
:102C6000089589819091586893D08093586889819C
:102C70009091596891D080935968F21196DC18C0F0
:102C8000FF27E0914F6AE6FD089589819091596888
:102C90007FD080935968898190915A687DD08093C4
:102CA0005A68F21182DC04C001D002C0B3DBADC3AC
:102CB0008091526880915368ADDBA7C376CC0895AC
:102CC000A5DBC1F430D031F482E0CEEFD5E10E9433
:102CD0001B26A3CB80917E6A853038F02196E0E2F6
:102CE000F8E683E0C3DB31F098CBF981E09122680C
:102CF000FE1393CB0895E881E93008F00895F0E0E1
:102D0000ED57F94E099408C008C008C008C00895DE
:102D1000089508950895089508957DCB7CCBE1E052
:102D2000E093506842CCF0914C68E0914D68EF2BF5
:102D30000895E23060F10090057010900170011864
:102D4000039400928E680090047010900570011832
:102D5000039400928F68FE2FE03408F0FFE30090A8
:102D60008E680F9E000C111CF0910170F695F10D0C
:102D7000E03438F0EF5300908F680E9E000C111C69
:102D8000F10DEF2FE7FDEFE7E23008F4E2E0089500
:102D90008295880FE0EE05C0869586958695EFE1D1
:102DA00000C08E23E095E9238E2B9827F92B0895F8
:102DB000FE2F8091506A82110895F0910F70F07883
:102DC000EC99EF2780911970F0E880FDEF27809152
:102DD0002268F0911D6AF07887FDEF27E7FBEF7717
:102DE000A8DFE7F9F0915168E09351680895749B6A
:102DF00005C0E2ECF8ED41CC7499FBCFEAEDF8EDBB
:102E00003CCCA881A3700E949027B981CF93DF9317
:102E10000E942C27DF91CF91689409F4E89440F543
:102E2000F881EA81FC7039F0F43031F0FC3041F087
:102E3000E4FF14C00CC01CC0DEF0AE17C1F018C017
:102E4000AE2F0E943127A1F498F4216010C0AE2F5C
:102E50000E94352769F460F4216009C04EF0E3FB5D
:102E6000ECDAAE230EF0EE27EA2709F001C099CA8A
:102E70000895A881A3700E949027B9810E942C27F1
:102E800021F408F008C3EA2F09C3FDC2AA81B98161
:102E90000E949127E881E370E093296DBB810E9435
:102EA0002C27B9F4A0932A6DB3950E942C2789F49E
:102EB000A0932B6DB3950E942C2759F4A0932C6DF1
:102EC000B3950E942C2729F4A0932D6DC9E2DDE66D
:102ED000E7C2D9C2E89402C0689400C089F40E9495
:102EE000DD25E53068F0A881A3700E949027B981A4
:102EF000AA810E94302729F418F42160EA2FCEC25B
:102F0000CAC2C1C2B9F50E94DD25E13198F1B9818B
:102F1000AA810E949127E9E2FDE6A881A370A0831F
:102F2000AC81A183BD81B283BE81B383BF81B483F1
:102F3000BB810E943127F9F4A0932A6DB395A0912B
:102F40002B6D0E943127B9F4A0932B6DB395A091FE
:102F50002C6D0E94312779F4A0932C6DB395A0912C
:102F60002D6D0E94312739F4A0932D6D2160C9E2A7
:102F7000DDE696C290C287C20E94EA2578F0A0E002
:102F80000E949027BCE10E942C2749F4E881E0FBD5
:102F9000A5F90E94312719F4216097C27CC273C23F
:102FA000E0EFE093826A0E94A113E093836A0E949B
:102FB000B113D093846AC093856AB093866AA09354
:102FC000876ACEE8DAE6E0E8E88385E00E944B1203
:102FD000E883C8E8DAE6E0EDE883E0E0E983E0E0F2
:102FE000EA832B822C8285E00E944B12E88322D058
:102FF00000C0F7E0E0910A0BEF230DC0E091986A62
:10300000F091996AEA953AF4FF0FF760FF77E09143
:103010000A0BEF2300C0E093986AF093996A089531
:10302000F0914C68E0914D68EF2B0895E091976A1C
:10303000EE2308952092976A0895F091966AE0939E
:10304000966AFE1B08F4F195F53008F0F3CF089569
:10305000CF93DF93E2E8FAE6A991AF70B191BF7028
:10306000AB1731F4A991B191AB1711F4E838D1F74E
:10307000DF91CF9108958F93ECE6FAE6A0917E6AF6
:103080008A2F8C0FB081A193BA17A081B991BA078A
:10309000B1938C13FACFC0917B6A8F910895E2E0CF
:1030A00013C0E3E011C0E4E00FC0E5E00DC0E6E0CE
:1030B0000BC0EAE009C0E3E0F4E007C0E4E0F7E0B9
:1030C00004C0E6E0F9E001C0FE2FAE1718F0FA17D1
:1030D00008F00895E0918C68F0918D683196E09346
:1030E0008C68F0938D68E0918468E395E093846840
:1030F000EF91EF9100C0E0E0AAC08BD1E5E2A7C05C
:10310000CEDFEFE1A4C0CBDFE0D1E1E0A0C0C9DFBA
:10311000DCD1E6E29CC0C5DFD8D1E2E098C0CEDFCA
:10312000D4D1E3E094C0BFDFB3D1E4E090C0C3DF0B
:10313000ACD1E1E28CC0B3DFA8D1E2E288C0AFDF5E
:10314000A7D1E3E284C0B3DFE5E081C0ACDFE6E015
:103150007EC0ABDFE7E07BC0A4DF9AD1E8E077C0B8
:10316000A2DF96D1E9E073C09ADFAFD1EAE06FC089
:1031700096DFABD1EBE06BC092DFA7D1ECE067C08C
:1031800090DFA3D1EDE063C08CDF9FD1EEE05FC0A4
:1031900088DF9BD1EFE05BC084DF97D1E0E157C0CF
:1031A00080DF93D1E1E153C07CDF8FD1E2E14FC0FA
:1031B00078DF8BD1E3E14BC072DFE091806AE39569
:1031C000E211E093806AE4E144C069DF61D1E5E1A6
:1031D0003EC071DF5DD1E6E13AC0A43011F098F451
:1031E00025C0E881E3FD05C0E2FF1DC042DEE7E146
:1031F0002EC0E2FF04C03FDF6DDEE8E128C03BDF08
:103200006BDEE9E124C0E881FE2FE370F3FD06C028
:10321000F2FF09C04ADF3ADEEAE119C052DF2BDFD4
:1032200071DEEBE114C034D1EDE111C031D1E4E243
:103230000EC0E0E20CC03FDFE091816AE395E2114D
:10324000E093816AE23009F4DCDDECE104C0209215
:10325000806A2092816AE0937D6AE0910C6AE09333
:103260007C6A2062089521DFEA81E7DED9DE39F445
:10327000DDDE29F4C3DE19F4FFD1E7E2E8CF3BCF6E
:1032800014DFEA81DADECCDE39F4D0DE29F4B6DEF2
:1032900019F4F2D1E8E2DBCF2ECF07DFEA81CDDEF1
:1032A0002ACF03DFEA81C9DEBBDE31F4BFDE21F4C1
:1032B000A0DEE2D1EAE2CBCF1ECF2197C9DE09F032
:1032C0001CCFE1E0E093976ADFD1EBE2C0CFF1DE03
:1032D0002197BEDE09F011CFFE81EF81F06CF093F3
:1032E0004B6AE0934A6AE1E0E093976AC9D1ECE265
:1032F000AECFEEE2ACCFE0917E6AE350EB30F8F473
:10330000E0937E6AF0E0EE55F64E0995D1F4E09137
:103310007E6AAAE5B3EBAE0FB21DBC91CB0FAE2F08
:10332000AB1BA0937E6AC0937B6ADAE6E881E93042
:1033300040F4F0E0ED54F64E0995EDE288CFCADE98
:10334000DACEDBCE1FC01CC01DC02DC019C025C0E9
:103350002AC026C022C016C023C0000000020004FC
:1033600002060400060008C007C006C005C006C06B
:1033700005C004C003C002C0A2D008958CD0089537
:103380001894089598940895E8E4F8E621C0ECE4D0
:10339000F8E61EC0EEE4F8E61BC0E0E4F8E610C074
:1033A000E4E4F8E605C0F3DFD1F0EEDFC1F0F2CFE0
:1033B000A581BD81AB1799F4A481BC81AB1779F4C9
:1033C000A381BB81AB1759F4A281BA81AB1739F441
:1033D000A181B981AB1719F4A081B881AB17089509
:1033E00000C0C2E5DAE683E5899380E0ADE2B0E7AC
:1033F00003D002D0288208959D91E8E083959695A8
:1034000008F48993EA95D1F70895E2E3E093906890
:103410000895E091516AE395E33008F0E0E0E0932D
:10342000516AF0E0EB5EF54E099402C012C01BC079
:10343000E0919068EA95E7FDE0939068E09119705B
:10344000E5FF05C0E0910D70EF73E068E2C0E0E0D9
:10345000E0C0E0911970E5FF03C0E0910E70DEC09E
:10346000E0910070DBC0E0911870E3FFD2CFF091E3
:10347000A86AE0E0F2FDE160F3FDE260F1FDE460E6
:10348000F5FDE860D0C0C0D0C4CFBED0D1D0C1CF90
:10349000BBD0D2D0BECFB8D0D1D0BBCFD3D0B9CF94
:1034A000E991DE01A4D0E85FE883ED91E983ED9135
:1034B000EA83ED91EB83ED91EC83C9D0AACFE0E0F4
:1034C000F0E0A0E0B0E0E4D0EBC0E2E5FAE6E081B5
:1034D000A191C081C211CC13E3E5E093526AE7E702
:1034E000FAE1EA0FF21D90D082D0099592CFA0C0E8
:1034F000AFC00EC00FC010C011C012C013C014C0A6
:1035000015C016C017C018C019C018C017C016C003
:1035100017D027C060D067C056D059C016D01AC087
:103520001DD05DC022D025C028D02BC02ED031C0E8
:1035300034D037C03AD03DC040D042C079D078C0F6
:10354000E091236DF091246D92C0E0910C6DE068E4
:10355000F2E08DC0E091256DF2E089C0E5E1F3E095
:1035600086C0E0918768F7E082C0E091136DF8E0D3
:103570007EC0E0910468F9E07AC0E0911D6BFAE04A
:1035800076C0E091196BFBE072C0E091256DFCE024
:103590006EC0E091266DFDE06AC0E0910F6DFEE027
:1035A00066C0E091226BFFE062C0E091356DF0E112
:1035B0005EC0E091336DF1E15AC0E0E0F2E157C046
:1035C000E0E0F3E154C0E0911F6DF8E150C0E091FC
:1035D000206DF9E14CC0E091176DFAE148C0E0912F
:1035E0001B6DFBE144C0E0911C6DFEE240C0CAE2ED
:1035F000DAE60895A2E2BAE60895A4E2BAE60895EA
:10360000A091216ABAE60895F8DFA093216A08958F
:1036100047C0EDDFF1E0F883E98349C0E8DFF2E07D
:10362000F883E98344C0E3DFF3E0F883E9833FC034
:10363000CFE041C0C0EF3FC0CCE33DC0CFE03BD0C6
:10364000CCE339C0D4DFE0DF2882E9833AC042C04E
:10365000C2E3DAE6E4E0E883A0E8B8E6ED91EC83C3
:10366000ED91EB83ED91EA83ED91E98333C0E9833A
:10367000FA83F7E0F8832AC0EF9AC2E8DAE634C0AA
:10368000EF9AC8E8DAE630C0EF9ACEE8DAE62CC066
:10369000AEDFE883F983AA83BB83E0E1EC831FC03C
:1036A000F091376AFF0F28F1FF0F18F12BC0A2DF4E
:1036B000E3E021D0AAC8A4DFE1E01DD0CD93A5CFDF
:1036C0009FDFE3E018D0A1D8A0CF9ADFE7E013D0C6
:1036D0009AD89BCF92DFFFE315D091D896CF8DDF9C
:1036E000FFE310D08ED891CF85DFFFEF0BD085D8C8
:1036F0008CCFF0E007C0F091376A02C0FF1FC8F31B
:10370000E695E0F3F093376A08950895CEE0DAE69F
:10371000A0910D6A20927D6AE881EF56F0E0F44EA8
:103720000994FFC014C113C112C111C110C10FC14E
:103730000EC10DC10CC10BC10AC109C108C107C12D
:1037400006C105C104C103C102C101C100C1FFC05E
:10375000FEC0FDC0FCC0FBC0FAC0F9C0F8C0F7C095
:10376000F6C0F5C0F4C0F3C0F2C0F1C0F0C0EFC0C5
:10377000EEC0EDC0ECC0EBC0EAC0E9C0E8C0E7C0F5
:10378000E6C0E5C0E4C0E3C0E2C0E1C0E0C0DFC025
:10379000DEC0DDC0DCC0DBC0DAC0D9C0D8C0D7C055
:1037A000D6C0D5C0D4C0D3C0D2C0D1C0D0C0CFC085
:1037B000CEC0CDC0CCC0CBC0CAC0C9C0C8C0C7C0B5
:1037C000C6C0C5C0C4C0C3C0C2C0C1C0C0C0BFC0E5
:1037D000BEC0BDC0BCC0BBC0BAC0B9C0B8C0B7C015
:1037E000B6C0B5C0B4C0B3C0B2C0B1C0B0C0AFC045
:1037F000AEC0ADC0ACC0ABC0AAC0A9C0A8C0A7C075
:10380000A6C0A0C09FC09EC09DC09CC09BC09AC0C7
:1038100099C098C097C096C095C094C093C092C0FC
:1038200091C0B0C0AFC0AEC0ADC0ACC0ABC0AAC04C
:10383000A9C0A8C0A7C0A6C0A5C0A4C0A3C0A2C05C
:10384000A1C0A0C09FC09EC09DC09CC09BC09AC08C
:1038500099C098C097C096C095C094C093C092C0BC
:1038600091C090C08FC08EC08DC08CC08BC08AC0EC
:1038700089C088C087C086C085C084C083C082C01C
:1038800081C080C07FC07EC07DC07CC07BC07AC04C
:1038900079C078C077C076C075C074C073C072C07C
:1038A00071C071C070C06FC06EC06DC06CC06BC0A5
:1038B0006AC069C068C067C066C065C064C063C0D4
:1038C00062C061C060C05FC05EC05DC05CC05BC004
:1038D0005AC059C058C057C056C055C054C053C034
:1038E00052C051C050C04FC04EC04DC04CC04BC064
:1038F0004AC01AC019C018C017C016C015C014C0DD
:1039000013C012C011C010C00FC00EC00DC00CC03B
:103910000BC00AC009C008C007C006C00DC009C05E
:103920000EC0A150219670C0A0937E6AC0937B6A9E
:103930007DCCA150219625C1A15021962BC2A1502A
:10394000219617C1E091806AE33008F074CCEA9ABE
:10395000E991A1506894F0914C6AFE13E894B091FB
:103960004D6AB211E894BF2BF0914A6AFE1739F400
:10397000F0914B6AF7FD03C0B21128C045C00EF0AC
:10398000BCCB32C053CCEA9AE981F881A25022968E
:10399000E33021F4F03C11F4EB9A57C0B0914B6A3C
:1039A000BF17B0914A6ABE0741F4E0914C6AF091AA
:1039B0004D6AEF2BE2110AC027C0B0914D6ABF17C4
:1039C000B0914C6ABE0709F098CB0EC0E09111701F
:1039D000EC67E0934E6AE0911270E160E0934F6A09
:1039E000E1E0E093506A16C0EC9AE0911170E09526
:1039F000E378E0934E6AE0911270E095EE7FE093F9
:103A00004F6A2092506A06C020924E6A20924F6AF6
:103A10002092506AA0937E6AC0937B6AE881E29507
:103A2000EF70EB5EF0E0F24E09942BC040C055C041
:103A300054C069CB68CB67CB66CB96CB95CB9CCB80
:103A400097CB71C070C0C9CBC4CBA0937E6AC09322
:103A50007B6AEA98E881E295EF70EF5CF0E0F24E65
:103A6000099449CB48CB47CB46CB45CB44CB43CB42
:103A700042CB41CB40CB3FCB3ECB3DCB3CCBADCB88
:103A8000A8CBE991EF70E95BF0E0F24E099494CB9A
:103A90009CCBCFCBCECBC7CBC6CBC5CBC4CBC3CBBC
:103AA000C2CB4DCB4CCBBFCBBECBBDCB44CBE99136
:103AB000EF70E35AF0E0F24E0994B5CBB4CB37CBBC
:103AC00036CBB1CBB0CBAFCBAECBADCBACCBABCBA6
:103AD000AACBA9CBA8CBA7CBA6CBE991EF71ED5888
:103AE000F0E0F24E09949FCB9ECB9DCB9CCB9BCB21
:103AF0009ACB99CB98CB97CB96CB95CB94CB93CBBA
:103B000092CB91CB90CB8FCB8ECB8DCB8CCB8BCBE9
:103B10008ACB89CB88CB87CB86CB85CB84CBFFCA9E
:103B200002CBF5CAF8CAE991EF71E756F0E0F24E20
:103B3000099416CB08CB0ACB0CCB75CB74CB73CBCB
:103B400072CB71CB70CB6FCB6ECB6DCB6CCB6BCBA9
:103B50006ACB69CB68CB67CB66CB65CB64CB63CBD9
:103B600062CB16CB19CB1CCB1FCB22CBF5CA08CB13
:103B70000BCBA0937E6AC0937B6AE881E211BBCA3B
:103B8000BFCAA0937E6AC0937B6AE991E653F0E0D6
:103B9000F24E0994B0CAAFCAAECAADCAACCAABCA7B
:103BA000AACAA9CAA8CAA7CAA6CAA5CAA4CAA3CA91
:103BB000A2CAA1CAA0CA9FCA9ECA9DCA9CCA9BCAC1
:103BC0009ACA99CA98CA97CA96CA95CA94CA93CAF1
:103BD00092CA91CA90CA8FCA8ECA8DCA8CCA8BCA21
:103BE0008ACA89CA88CA87CA86CA85CA84CA83CA51
:103BF00082CA81CA80CA7FCA7ECA7DCA7CCA7BCA81
:103C00007ACA79CA78CA77CA76CA75CA74CA73CAB0
:103C100072CA71CA70CA6FCA6ECA6DCA6CCA6BCAE0
:103C20006ACA69CA68CA67CA66CA65CA64CA63CA10
:103C300062CA61CA60CA5FCA5ECA5DCA5CCA5BCA40
:103C40005ACA59CA58CA57CA56CA55CA54CA53CA70
:103C500052CA51CA50CA4FCA4ECA4DCA4CCA4BCAA0
:103C60004ACA49CA48CA47CA46CA45CA44CA43CAD0
:103C700042CA41CA40CA3FCA3ECA3DCA3CCA3BCA00
:103C80003ACA39CA38CA37CA36CA35CA34CA33CA30
:103C900032CA31CA30CA2FCA2ECA2DCA2CCA2BCA60
:103CA0002ACA29CA28CA27CA26CA25CA24CA23CA90
:103CB00022CA21CA20CA1FCA1ECA1DCA1CCA1BCAC0
:103CC0001ACA19CA18CA17CA16CA15CA14CA13CAF0
:103CD00012CA11CA10CA0FCA0ECA0DCA0CCA0BCA20
:103CE0000ACA09CA08CA07CA06CA05CA04CA03CA50
:103CF00002CA01CA00CAFFC9FEC9FDC9FCC9FBC985
:103D0000FAC9F9C9F8C9F7C9F6C9F5C9F4C9F3C9B7
:103D1000F2C9F1C9F0C9EFC9EEC9EDC9ECC9EBC9E7
:103D2000EAC9E9C9E8C9E7C9E6C9E5C9E4C9E3C917
:103D3000E2C9E1C9C2CAC1CAC0CABFCABECABDCAF5
:103D4000BCCABBCABACAB9CAB8CAB7CAB6CAB5CA5F
:103D5000B4CAB3CABCCABBCABACAB9CAB8CAB7CA53
:103D6000B6CAB5CAB4CAB3CAB2CAB1CAB0CAAFCA6F
:103D7000AECAADCAC0C9BFC9BEC9BDC9BCC9BBC92D
:103D8000BAC9B9C9B8C9B7C9B6C9B5C96CCA78CAB8
:103D900084CA87CAA0937E6AC0937B6AE991E03F98
:103DA00008F4A9C9EF70E952F0E0F14E0994A1CAF4
:103DB000A2C9A1C9A0C99FC99EC99DC99CCA9BC9C6
:103DC0009AC999C998C997C996C995C994C9E0E093
:103DD000E093066A2092376A0895FFFFFFFFFFFF16
:103E000026C04DC04FC054C059C060C067C07AC101
:103E1000A0C1D4C1E2C104C20BC219C221C229C2CD
:103E200031C23CC267C081C0BEC00AC11FC13EC111
:103E30003FC140C141C142C143C144C145C146C166
:103E400047C148C149C14AC14BC14CC14DC1E2E063
:103E5000E093110B332423C0E0918868F0918968C6
:103E60003196E0938868F09389680AC0E0918A6887
:103E7000F0918B683196E0938A68F0938B6800C06C
:103E8000E0918468E395E093846800C0332403C024
:103E9000E3E03E2E00C0E998ED98E1E02EC20E94DA
:103EA0007E2600C0ED99F2CF8EF73394E3E025C271
:103EB000ED99ECCF5EF73394E4E01FC2ED99E6CFC5
:103EC0002EF733940E94F716E5E017C2ED99DECF86
:103ED000EEF633940E94FC16E6E00FC2ED99D6CFC1
:103EE0002EF4339409F43A94E6E007C2E32DE4316A
:103EF00008F4CCCF30920C6AE091046AF091056A24
:103F0000F695E795F695E795F695E795E21DE001BC
:103F1000FBEAEF9F10923A6A0E01EEE0FAE6CFE07C
:103F20002192CA95E9F7E3E1E8C10EF0ED99AECF31
:103F3000E091046AF091056AF695E795F695E795A4
:103F4000F695E795E21DE001FBEAEF9F10923B6AD0
:103F50000E01EE27749BEFEFF0911D6AE0931D6A4E
:103F6000FE13EE9AE998EA98EF98EB98EC98209275
:103F70000D6A20920B6AE0918568E395E43650F073
:103F8000E0918468F0918668E0938668EF1BE09387
:103F90008768E0E0E0938568E0911F6AE395E0932D
:103FA0001F6AE7E1AAC1ED9957CFE0910D6AEF30A2
:103FB00008F05CCFFEE0EF0FFAE6F21D3192EE5012
:103FC000E0930D6AE0910B6AE325E0930B6A2EF50E
:103FD00009F04CCFE3E0E093110BE0E8F8E6A081B4
:103FE000B1811196A083B183A281B381A21DB21DBC
:103FF000A283B383E091046AF091056AF695E79590
:10400000F695E795F695E795E21DE001FBEAEF9F4F
:1040100010923E6A0E01E6E170C1E091046AF091EF
:10402000056AF695E795F695E795F695E795E21D0D
:10403000E001FBEAEF9F10923C6A0E01E5E15DC1F1
:10404000ED9B0EF409CFE091046AF091056AF695B4
:10405000E795F695E795F695E795E21DE001FBEA11
:10406000EF9F10923D6A0E01E7E147C1E2E0E09365
:10407000110B2092026A2092036AED9B0EF0ECCEA7
:10408000E091046AF091056AF695E795F695E79553
:10409000F695E795E21DE001FBEAEF9F10923F6A7B
:1040A0000E0120920B6D32DBE7E027C1E8E11EC074
:1040B000E9E121C0EAE11AC0EBE11DC0ECE116C064
:1040C000EDE119C0EEE112C0EFE115C0E0E20EC073
:1040D000E1E211C0E2E20AC0E3E20DC0E4E206C0A0
:1040E000E5E209C0E6E202C0E4E105C0ED99B4CE24
:1040F000330C30F802C11EF030FCAECEFEC030FEF4
:10410000ABCEFBC0E2EFF8ED0E944B130EF0BECE3B
:10411000C091376AD0911970EB99D860D3FFC07005
:10412000D0911870EB99D260E0919068EC3F08F064
:10413000DB7FD2FDDE7FEA99D0FFCC7FEC9BD1FF05
:10414000C370EF99CFEFC093376A749B7699A0CE76
:1041500000C0E99AD0912A70C0910A0BCD23D0916A
:104160002970CD0FCF70C093386AC15BDCE0F001DD
:10417000CD9F00921C0B10921D0B0F01E091046A61
:10418000F091056AF695E795F695E795F695E7952A
:10419000E21DE001FBEAEF9F1092406A0E01E0E0B1
:1041A000E093110BE091376AE0FF06C0C090226AED
:1041B000E89AEDE0E0931301E9E09FC0F091376ADF
:1041C000E091236AF1FDE0932208E8E6F1E0E09354
:1041D0001C0BF0931D0BEAE090C0D0912C70C091A5
:1041E0000A0BCD23D0912B70CD0FCF70C093396ABD
:1041F000CE5AD091386ACD1BDCE0F001CD9F009201
:104200001C0B10921D0B0F01E091376AE2FF06C0F4
:10421000C090246AE89AEDE0E0931301EBE06DC0F2
:10422000E0EFF0E0E0931C0BF0931D0BECE065C0B9
:10423000F091376AE091256AF3FDE0932208E0EE01
:10424000F1E0E0931C0BF0931D0BEDE056C0F091F4
:10425000376AE091266AF4FDE0932208EEE04DC053
:10426000F091376AE091276AF5FDE0932208EFE0CC
:1042700044C0F091376AE091286AF6FDE093220885
:10428000E0E13BC0F091376AE091296AF7FDE093E5
:104290002208E2E0E093110BE1E12FC0E001E091A0
:1042A000026AF091036AF695E795F695E795F6951B
:1042B000E795E21DFBEAEF9FE12DEC51F091396AA1
:1042C000EF0FE093416A0E01F091376AFC7F91F0A5
:1042D000EAE3FAE6C191C783C191C783C191C7835D
:1042E000C191C783C191C783C191C783C191C7835E
:1042F000C191C7832092376AC9CDE093066AAF9116
:10430000BF91CF91DF91EF91EFBFEF91FF911895A2
:10431000EFE2FBE6A2E0BAECD0E0C1E0D583C083D7
:10432000B183A28326822782208624823A96D3955F
:10433000DA32A1F719C213D0ED91FD91FC83FD9102
:10434000F887FD91F987F2D1EFB7E0FB1AD3E88542
:10435000E03108F0E0E0E551F0E0FC4D0994AD817A
:10436000AA0FAA0FB0E0A03218F4AC57BF480895C6
:10437000A052BF480895C3EDDCE6CF93DF930E94BF
:104380002E2ADF91CF912A97D6DF8E819F8196FBCF
:104390009827907409F0BDD08881815041F008F0D1
:1043A00088838D81882349F7A6D1B6D1DDC1F981F3
:1043B000EA8181918C3008F080E090E08A519E4D36
:1043C0008F939F930895F983EA83EBCF0BC00DC0C1
:1043D00011C02CC036C03FC042C048C055C05DC0EF
:1043E00063C069C00B807CD0DCCF019079D0119084
:1043F0001882E9CF0E94AA229F938F938191982FD0
:1044000092958F709F70092E081A03941F90109C2C
:10441000180E65D08191982F92958F709F70092EFC
:10442000081A1F90109C180E1882CDCF0E94AA2245
:1044300001909191091A0394182E109C190E4FD0D7
:10444000B8CF0E94AA2201909191091A182E109CAF
:10445000190E1882B8CF91918191FC01AACF919148
:1044600081910F01FC018D810995A3CF0E94AA22A1
:1044700001909191981708F4A6CF0394102C100C7A
:10448000100CE119F20995CFE89410800B801014FC
:1044900060F021F43196319696CF689411900B809C
:1044A0000114C8F7039415C0689411900B80101480
:1044B00090F70A940EC00E94AA2201909191091AC5
:1044C0000394182E109C190E0B80101408F407D0BA
:1044D00070CF06D0119018820EF475CF62CF012CE8
:1044E0000B82A3EDBCE61D80A10DB21D0C920895B8
:1044F000FBECECE503C0FBECE6E800C08C81853109
:1045000008F080E0880FE80FF21D91918191FC0185
:1045100008958E8186F98E839AEC84E016F49AECE5
:1045200088E099838A8391E09883089513D08F77E8
:10453000089510C00FD009F4917008950BD009F4BC
:104540009370089507D009F49770089503D009F483
:104550009F70089580911A0B90910A0B89270895F6
:10456000E3EDFCE6D091186BDF70D395D4FDDA95BE
:10457000C091A76AC211D061189431F4C191CD17CE
:1045800008F02F9A08F42F98189431F4C191CD17A0
:1045900008F02F9A08F42F98189431F4C191CD1790
:1045A00008F0289A08F42898189431F4C191CD178E
:1045B00008F0299A08F42998189431F4C191CD177C
:1045C00008F02A9A08F42A98189431F4C191CD176A
:1045D00008F02B9A08F42B98189431F4C191CD1758
:1045E00008F02F9A08F42F98189431F4C191CD1740
:1045F00008F02F9A08F42F98D091D76AD21170C082
:10460000D091186BDF70DF3009F4DEE0B096C29114
:10461000DC17881FC291DC17881FC291DC17881F26
:10462000C291DC17881FC291DC17881FC291DC176A
:10463000881FC291DC17881FC291DC17881F0E9457
:10464000522BC291DC17881FC291DC17881FC291C0
:10465000DC17881FC291DC17881FC291DC17881FE6
:10466000C291DC17881FC291DC17881FC291DC172A
:10467000881F0E94522BC291DC17881FC291DC1741
:10468000881FC291DC17881FC291DC17881FC29156
:10469000DC17881FC291DC17881FC291DC17881FA6
:1046A000C291DC17881F0E94522BC291DC17881F11
:1046B000C291DC17881FC291DC17881FC291DC17DA
:1046C000881FC291DC17881FC291DC17881FC29116
:1046D000DC17881FC291DC17881F0E94522BECC781
:1046E000EF010E94652B0E94672B0E94692B0E949C
:1046F0006B2BFE01E1C7ACE6B0E708D08093AB6A54
:1047000005D0E091AA6A8093AA6A089581E0EE91AB
:104710000DD0881FE0F70895ACE6B0E780E8ED9192
:1047200005D08795E0F78093AC6A0895E7FBEF77B3
:10473000E53410F0EE2712C0EF771E2EE770F0E0A0
:10474000E05AF8430080169416941694E2E5F8E6D1
:10475000E10DF21DE0810EF4E025E021E1950895E0
:104760000102040810204080ECE7F0E7ACEBB8ED64
:10477000DAE08191CD91C2118883E238D1F70895B2
:104780001FB6F095F8940090A86A0F220E2A0092A6
:10479000A86A1FBE08951FB6F095F8940090A96A04
:1047A0000F220E2A0092A96A1FBE0895E091A76AFF
:1047B000EE230895E0913A70E0938506FFB7F894F0
:1047C000E091A76AE211EA95E093A76AFFBFE1E0F2
:1047D000E0938606089511C00EC019C021C029C0FB
:1047E00031C039C03FC047C04FC073C074C07EC025
:1047F0005CC065C051C00EF4EDC001C136F483FD4C
:10480000FEC082FDE7C080FF90FFF9C0E3C036F430
:1048100083FDF5C082FDDEC080FF90FFF0C0DAC0EE
:1048200036F483FDECC082FDD5C081FF90FDE7C06A
:10483000D1C036F483FDCEC082FF80FDE0C090FD84
:10484000DEC0C8C036F483FDC5C082FF81FDD7C07D
:1048500090FFD5C0BFC0EEF783FF91FDC1C082FFBE
:10486000BFC0AFC036F483FF91FDBAC082FFB8C0AD
:1048700090FFC5C0A6C0EEF783FF91FDB1C082FFD7
:10488000AFC090FDBCC09DC0EEF783FF82FFA8C003
:1048900091FD089596D0AAC0AEF782FD0895B3E0C9
:1048A000B823B21183FDABC095C066F782FD0895B1
:1048B000B3E0B823B21183FDA2C089D09DC016F722
:1048C00082FD0895B3E0B823B21183FD98C076D07D
:1048D0008DC001D00BC06894E0E1B4FD12C0B6FDFC
:1048E00015C081FD089580FF11C00BC0E894E0E27F
:1048F000B5FD07C0B7FD11C080FD089581FF0DC053
:1049000000C06091B5707091B67013C0E0E4B6FD60
:104910000BC080FF90FF089507C0E0E8B7FD04C01A
:1049200081FF90FD089500C06091B3707091B470E4
:1049300000C0B0FD0BC0B3FF089583FF91FD089543
:10494000FE2F0E94D2240E940A1227C0B1FD0FC080
:104950000E94081209F491FD08953CD06295729569
:10496000EFB7E894E6FF68940E940A1216C00E940E
:10497000081211F491FFB3FD089541D00E940A126C
:1049800009C08091AA6A9091A86AA985B091AD6A80
:10499000B3F90895E0E0FFE305C0E091AD6A089443
:1049A000EE1FF3E0EF23B091AD6AF095BF23BE2B6D
:1049B000E093AD6A0895BADD69F00895BADD51F06B
:1049C0000895B8DD39F00895B9DD21F00895BADD14
:1049D00009F00895E0E4EF830895A8DD81F00895DB
:1049E000A8DD69F00895A6DD51F00895A7DD39F03E
:1049F0000895A8DD21F00895A9DD09F008952F821A
:104A00000895000006227B000622780001000000C5
:104A1000010F010001000000010201010401080F63
:104A20000100010401080001000002008102108160
:104A300002FF210703A002FE810701FF0000020020
:104A4000F10210F102FF210703A00000010114028E
:104A500011F102FF2107028000000801010430105B
:104A6000010F0100080101043010010408080F01C2
:104A7000000001000000090F010450200702FF00A0
:104A80000100000008040100080001000108010203
:104A900053110801010406010704C004C040090FB6
:104AA000010702FF0000010F010101010450200471
:104AB0006010090F010702FF00000B030104804092
:104AC0000A00010702FF0000080401010F030104AE
:104AD000010801010101080705FF000008000100AD
:104AE000010F0A01000A0702FF000200F102FFB9EC
:104AF0000200B90702FF000001000100010F0101DF
:104B000000130702FF00010F01010001010F010165
:104B100000110704FF00010F01010001010F010155
:104B20000001010F0101000F0706FF000100010055
:104B3000010001080F010801010702FF0000010048
:104B400011080F010801010702FF00000800010021
:104B5000010F14010000000001000000CA0CCA107F
:104B6000CA18CA2ACA3ECA4CCA5ACA64CA76CA8471
:104B7000CA8CCAA6CAC8CAE0CAEACAFCCB06CB1607
:104B8000CB30CB3ECB50CA0CCA14CA22CA72CA72EE
:104B9000CA72CA72CA72CA80CA88CABACABACADC17
:104BA000CAF8CAF8CB2CCB2CCB2CCB4CCB4CCB584B
:104BB0002092AE6A2092AF6A089504D0FE2FE0E200
:104BC000EF1B0895E091AF6AF091AE6AEF1B08F415
:104BD000E1950895E091AF6AF091AE6A8894EF1381
:104BE00008940895C091AF6AC055D0E0D549B993F3
:104BF000E993F993A993C05BC03208F0CC27C09326
:104C0000AF6A0895C091AE6AC055D0E0D549B99158
:104C1000E991F991A991C05BC03208F0CC27C0930B
:104C2000AE6A089590E3889410C0A881A823A817BD
:104C300011F492E106C0A881A823A817B1F393E16B
:104C400000C0A881A817A9F00894A0910210A1FDA6
:104C5000FCCFA0FDFACFADE9A4BF9093001008F4FB
:104C60008993A4BFA1E0A0930010A0910210A1FD20
:104C7000FCCF089598D089D009D00E94A513E09365
:104C80009F6AF093A06A20929A6A089582E0109039
:104C90004E6800904F68F0914C68E0914D68EF01CC
:104CA000CD2BD9F4E0911070F4E6EF9FF0E0E21123
:104CB000F0ECE0910F70EF770E0E121C1F2A81E0CE
:104CC000E0910070EF77F0E0C0911970C5FF05C06A
:104CD000F0910D70E0910E70F06CE0934A6AF093E1
:104CE0004B6A00924C6A10924D6A0128E0E0F0E2B3
:104CF0000210EF2F45DDCEEFD5E19DCF1BD1E09126
:104D00009A6A20929A6AEE3020F4F0E0E757F94D63
:104D1000099408950CC00DC00EC00FC010C00895B6
:104D200008950FC01EC029C010C013C016C00C9437
:104D30000B120C940D120C9411120C941B120C9467
:104D40001612F8946FDF0C940B12A0E0B3E48CE120
:104D50005EC0A0E0B8E988E25AC0A2E0B0E080E816
:104D600056C0F89481E0CEEFD5E165DFE2E7FDECD7
:104D70003DC00001111213141D00E0E8FDEC36C027
:104D800000020506090A37383900D4D004D0D6D03D
:104D900002D0D8D000C0B0E078D0B395A0919D6A81
:104DA000BA17D1F70895E091FF15E03069F0EF3FB1
:104DB00009F038DFBFD009D0C1D007D0C3D005D0AB
:104DC000CFEFD5E180E037DF0895B0E0A89506D0B9
:104DD000B395A0919D6ABA17D1F708953AD028F4F7
:104DE000D0919B6ACE2F8A2F20CF0895F894A1915D
:104DF000EF93FF9395D0A895FF91EF91B191B150AA
:104E000010F40C940B12EF93FF93E8DFF5CFF894B6
:104E10008F93BF9385D0A895BF918F91B3958A95B5
:104E200009F40C940B128F93BF93D8DFF5CFE09168
:104E30009B6AE431EEE0EB0751F0E0910B70F091EA
:104E40000C70EF1721F0EF91EF919894089518945A
:104E500008954AD033960994F0DF46D031960994EC
:104E600026F0E5DF41D032960994E1DFAF93F4DF1D
:104E7000EF91E3FB0E941D12E095AE23E0950EF04A
:104E8000EE27AE2B31D0329609942ED0309609946D
:104E9000A0E027C0EA81A98121C0EA81F0919B6A44
:104EA000A081F0919C6AA08319C0EA81F0919C6A6C
:104EB000A08114C0EA81F0919C6AB0919B6A92DE55
:104EC0000DC0E981FA81A08109C0E981FA81A0833E
:104ED00005C00F92C895A02D0F9000C0189408949B
:104EE0000895189488940895CB2FD0919D6ACD177A
:104EF00078F4D0E0CC0FDD1FCC0FDD1FF0919E6A5F
:104F0000DF0FE881E43149F0F0E0E356F34D089516
:104F1000C0E0DEEDEDE9FCE20895E981FA81089553
:104F2000B0E0B03099F4A03029F0A13039F0A230CF
:104F300049F00CC0A4EDBAEDF0E00BC0ADE7BEED5A
:104F4000F0E007C0A4E8B0EEF1E003C0A0E0BAEDE5
:104F5000F0E0A0939D6AB0939E6AFC5EF0939B6A1A
:104F6000F45AF0939C6A089503C007C009C012C0A8
:104F7000A0910014A0930070B1CFA0910070AECFAB
:104F8000AA2339F032F0E0E0F0E7B0919B6A2ADE24
:104F9000A5CF7ECFE0E0A3E0A1CF7ACF02C003C0CF
:104FA00077CFADE09BCF0E94061219F4A0939A6AC6
:104FB00095CF6ECF03C007C009C015C0A0910B14D8
:104FC000A0930B708BCFA0910B7088CFAF3F11F4E3
:104FD000A0910C70A03F30F4EBE0F0E7B0919B6A39
:104FE00001DE7CCF55CFEBE0A1E078CF03C007C056
:104FF00009C011C0A0910C14A0930C706FCFA091A8
:105000000C706CCFA03F30F4ECE0F0E7B0919B6AFD
:10501000E9DD64CF3DCFECE0A1E060CF39CF06C041
:1050200037CF36CF35CF05C033CF32CFE1E0F1E90E
:1050300050CFE0E0F1E94DCFEDE5FDE66BC2D7EDF5
:1050400062C263D212D261D2E0910210E1FDFACFC6
:10505000C1DDC0F7D7DDC081CA17B1F3A083FB2F34
:10506000CDE9D3E1C4BFD0930010A083D1E0C4BF89
:10507000D0930010D1E0D0930410D0930310E2CF6E
:1050800082E390E00E946D2AFBCF82E390E00E94D1
:105090006D2A0E94BB21F9CFA895E0910B6DE3FD2D
:1050A00006C0E395E0930B6D419A619A02C0419866
:1050B0006198F5D384E690E00E946D2AEDCF25D269
:1050C0000E9422140E940A12D0D1F9CF4B98439A21
:1050D000EDE5FDE624D24B9A86E090E00E946D2A31
:1050E0004B98F6CF88EE93E00E946D2A6AD20E9418
:1050F000F912FCCF0C94B0220C94EB11E091B27039
:105100000E947F2B0E94DF2B0895E0919068E7FFBB
:1051100005C0EC3F30F4E0910A0BEF73EA95E093A1
:1051200090680895F1E0EF2F8091206A823308F4AF
:10513000E0E031DBE091356DF0918071F07FEF17A9
:1051400008F0EF2FF0918071F295F07FEF1708F4DF
:10515000EF2FF091D66AFE1719F008F0F250F39590
:10516000F093D66AF69509F4F0E1E0E8E0930C0BD1
:10517000F0930D0B0C941F14E0911F6A20921F6A8C
:10518000E0931E6A0895F6EDE8E1DAE6CAED82E101
:105190000E94311214D037D03FD047D04FD057D0D3
:1051A0005FD067D06FD011272227D9E0C9E9C0931B
:1051B000166BD093176B089578940C94E628EAED5B
:1051C000FAE6E093136BF093146B08950E941F2886
:1051D00020921A6B20921B6B20921C6B1D7FE0911A
:1051E0001A6BF0911B6BC0911C6B3196C21D11FDA7
:1051F000EFCF2223D1F3E0931A6BF0931B6BC09394
:105200001C6B33D1ECCFEAE0F9E2E0933F69F09315
:105210003E6908950C942128E3E1F9E2E0935F6987
:10522000F0935E6908950C944028ECE1F9E2E09374
:105230007F69F0937E6908950C944528E5E2F9E2D0
:10524000E0938169F09380690895A3E924C0EEE2B8
:10525000F9E2E093A169F093A06908950C944C28B9
:10526000E7E3F9E2E093C169F093C06908950C9413
:105270005F28E0E4F9E2E093E169F093E0690895E2
:105280000C946628E9E4F9E2E093016AF093006A7D
:1052900008950C9472280C94D71310FD82C0F093DB
:1052A000256BFFB7F093246B1160E093266BD093CE
:1052B000276BC093286BB093296BA0932A6B9093B4
:1052C0002B6B80932C6B10922D6B00922E6BC091E8
:1052D000186BC395C093186B09F41860CF7009F46C
:1052E0001460C0FD14C01061C091166BD091176B93
:1052F000C15015F41062C97F10F41064C979D04010
:1053000010F41068D970C093166BD093176B17FD0B
:1053100058D079D00E947A2814FD0E947C2815FD6F
:105320000E947E2816FD0E94852813FD0E94922867
:1053300017FD0E94BC2814FF1BC0DAE6C0EFA1E0F5
:10534000E881F981319788F071F42A2BE883F98399
:10535000EA81FB81FE2B49F0FB810180A0950A22A6
:10536000A095018202C0E883F9832496AA0F41F731
:1053700000902E6B10902D6B80912C6B90912B6B6D
:10538000A0912A6BB091296BC091286BD091276BAB
:10539000E091266B1270F091246BFFBFF091256BAA
:1053A0000895F894E1E0F1E00E94192BFFEF3197A6
:1053B000F1F7E0E0F1E00E94192BF0E43197F1F70A
:1053C000F0CFE0911B6BF0911C6BEE0FFF1FEBE831
:1053D000FE9F000C111CE4E6E119E093196B1260CA
:1053E000C0911E6BD0911F6BC093206BD093216B2B
:1053F000D695C795D695C795C0931D6B20921F6B08
:1054000020921E6B0895E091186BEF70E093156B7E
:10541000EE0FF0E0E25FF54D099408950C94D5117C
:105420000C94DC110C94E4110C940D2A0C940D2AAC
:105430000C940D2A0C940D2A0C940D2A0C940D2A10
:105440000C940D2A0C940D2A0C940D2A0C940D2A00
:105450000C940D2A0C940D2A0C940D2AF091106BCB
:10546000FF0F11F02F1708F40895E0911E6BF091D3
:105470001F6B3196E0931E6BF0931F6BC091136B03
:10548000D091146BEDB7FEB7E993F883E0E2F22F09
:10549000C0E8FF0F30F019F0C695E450D1F7CC27E3
:1054A000EE27C093106BE093126BE695E093116BBF
:1054B000DAE6CAEDCE0FD21DC093136BD093146BF6
:1054C000E991F881CFB7F894EDBFFEBFCFBF089543
:1054D00091E0899FC00101C09927CCEEDAE6B09136
:1054E000126BCB0FD21DBFB7F89488839983D091EC
:1054F000106BD0952D23BFBFB8CF07D0B6CF03D048
:10550000B4CFD091106B2D2B0895D091106BD09506
:105510002D230895208221820895689401C0E89483
:10552000D091106BBFB7F894C081CC2321F0CE7F0F
:10553000C083BFBF0895C181CD2BC183BFBF0EF013
:10554000DCCFCBCFBFB7F894C191D081DD2321F45C
:10555000C160C293BFBF089520822292BFBF0DC019
:10556000BFB7F894D081D260D193D081DD2311F4FC
:10557000BFBF08952082BFBF00C0ECEEFAE6CD2F7A
:105580003496CC0F41F0E0F7F894219221922192C9
:105590002192BFBFF6CFB7CF20820895BFB7F8944E
:1055A000A081AE7FA083BFBF0895F8DFB8CFE1E050
:1055B000F1E00E94192B0895E0E0F1E00E94192B20
:1055C0000895CFE5DDE6E4E0F6ED0C2E9FEFA19126
:1055D000B191BF3F81F011968FEF83951D901120FF
:1055E000E1F3821183958993981788F38211982F9C
:1055F00082110C2EECCF9093226B0894C009C093BB
:10560000236B089500692069406960698069826937
:10561000A269C269E269FFFF1F693D695D697D6931
:105620007F699F69BF69DF69FF690895E2E0F2E081
:1056300000C0EF23F0950090086D0F22E02906C00E
:10564000E0E004C0EFEF02C0EBE000C0E093086DC3
:1056500000C0E091086D0C94AB13EF23F09500901F
:10566000096D0F22E02908C0E0E006C0E5E504C0AE
:10567000EFEF02C0E0E000C0E093096D00C0E091F0
:10568000096D0C94A9131CD005C00BD00AD009D009
:1056900008D012C004D003D002D001D00DC080E0E9
:1056A00001C08FEF8095809344098091430987FF63
:1056B000FCCF8091440908950B9801D00B9A08956E
:1056C00080914309809144090895F9E106C0F1E110
:1056D00004C0F9E002C0F1E000C080E0E091D76AC8
:1056E000EF1BE83018F40E941D128E2FDBCF289A92
:1056F000089528984EC02B9A08952B9855C0F09184
:10570000AF70EF1708F4EF2FF091B070EF1708F0BB
:10571000EF2F0BD0E093006DF093016D089505D04D
:10572000E093066DF093076D0895FCE0EF9FF001A4
:10573000EE0FFF1FEE0FFF1FEE0FFF1FE059F84E99
:1057400008958091006D9091016D8093FE6C90930F
:10575000FF6C08958091066D9091076D8093046DA4
:105760009093056D08958093FE6C9093FF6CF89470
:1057700080937A0A90937B0A789408958093046DBD
:105780009093056DF89480937C0A90937D0A7894A9
:105790000895E0E002C0EFEF00C0F894E0937A0AC9
:1057A000E0937B0A78940895E0E002C0EFEF00C038
:1057B000F894E0937C0AE0937D0A78940895E09150
:1057C000006DF091016D8091FE6C9091FF6C8E17D1
:1057D0009F0731F018F029D01FD002C026D013D077
:1057E000C2CFE091066DF091076D8091046D9091AC
:1057F000056D8E179F0731F018F02FD00DD002C025
:105800002CD001D0BBCF8E0F921DE0E3F5E78E17B1
:105810009F0708F0CF0108958E1B9209E0E7F7E19A
:105820008E179F0708F4CF010895E091006DF09165
:10583000016D0090FE6C1090FF6CE019F10918F4F6
:10584000F095E195FF4FF030FFEF09F4FE2FE09166
:10585000B170EF1708F0EF2F0895E091066DF09109
:10586000076D0090046D1090056DE019F10918F4B2
:10587000F095E195FF4FF030FFEF09F4FE2FE09136
:10588000026DEF1708F0EF2F089507D002C0499A74
:105890000895499808954A9A08954A980895E0917C
:1058A000AB6AF0910B6DF7FDEF7BE6FDF0DFE6FFF5
:1058B000F0DFE7FDF0DFE7FFF0DF08950000000014
:1058C0000000310300000105073100802E6D00014A
:1058D0000040403100800000000231030000010759
:1058E00005310080306D0001004040310080000033
:1058F0000002110B0000014240110081386D0001CF
:10590000004040110080000000021103000001155A
:1059100040110080346D0001004040110080000003
:10592000000211030000010340110085326D0001E7
:1059300000404011008000000002AACAA9CAA8CAFB
:10594000A7CAA6CAA7CAA4CAA3CAA7CAAECAB2CAC5
:10595000A1CA9ECAB6CA9CCA9BCA9ACAB2CAB5CACA
:1059600097CA96CA95CA94CA93CAFFFFFFFFFFFF62
:105A000014B4277F0801017F080802FF080803FF7C
:105A100008FF04FF088005FF0499000014CD27004B
:105A200008000603086407FF081008FF04040000CC
:105A30000800090008000A0014DA27FF14F627FFFF
:105A400008C30DFF08E80EFF08000FFF080010FF55
:105A5000080011FF080012FF0800130008001400DE
:105A60000000000000000000080017FF089E181149
:105A7000080A1911101A7000040000FF04FF00FF4B
:105A80000000000000000000000000000000000016
:105A90000000000000000000000000000000000006
:105AA00000000000000000000000000000000000F6
:105AB00000000000000000000804290F08002A0F61
:105AC00008042B0F08002C0F08FF2DFF080F2EFFD6
:105AD00000000000080030070800310F088032FF86
:105AE00000000000086434FF084135FF08B436FFA9
:105AF000088037FF088038FF088039FF08283AFF00
:105B000008023B0008A03CFF08033D7F08073E7FDA
:105B1000080C3F7F0810407F0815417F0819427F1D
:105B2000081E437F0822447F0827457F082B467FB5
:105B30000830477F0834487F0839497F083D4A7F4D
:105B400008424B7F08464C7F084B4D7F084F4E7FE5
:105B500008544F7F0858507F085D517F0861527F7D
:105B60000866537F086A547F086F557F0873567F15
:105B70000878577F087E587F000000000406000068
:105B80000C4068000C4168000C4268000C4368003F
:105B90000C4468000C4568000C4668000C4768001F
:105BA00008005AFF08005BFF040100000409000020
:105BB0000C01A1000C0091000C0191000C0091005F
:105BC0000C1180000C108000140E28FF141228FF06
:105BD0000C1717000CFF15000CFE150008015CFFE8
:105BE00008025DFF08035EFF08045FFF080560FF11
:105BF000080661FF080762FF08FF63FF08FF64FFF4
:105C000008FF65FF08FF66FF08FF67FF08FF68FFE2
:105C100008FF69FF08086AFF08096BFF083D6CFF71
:105C2000083E6DFF083F6EFF08406FFF084170FFA0
:105C3000084271FF084372FF084473FF08FF74FFB6
:105C400008FF75FF08FF76FF08FF77FF08FF78FF62
:105C500008FF79FF08FF7AFF08FF7BFF08FF7CFF42
:105C600008FF7DFF08FF7EFF08FF7FFF08FF80FF22
:105C700008FF81FF000082000000830008FF84FF0E
:105C8000080185FF080186FF08FF87FF08FF88FFDE
:105C9000080189FF08018AFF08FF8BFF08018CFFBC
:105CA00008018DFF08018EFF08FF8FFF080290FF9B
:105CB000080191FF080192FF08FF93FF080394FF7A
:105CC000080195FF080196FF08FF97FF080498FF59
:105CD000080199FF08019AFF08FF9BFF08FF9CFF3E
:105CE00008009DFF08009EFF08FF9FFF08FFA0FF20
:105CF0000800A1FF0800A2FF08FFA3FF08FFA4FF00
:105D00000800A5FF0800A6FF08FFA7FF08FFA8FFDF
:105D10000800A9FF0800AAFF08FFABFF0887ACFF37
:105D20000803ADFF0800AEFF0820AFFF08E0B0FF9A
:105D30000880B1FF0880B2FF0825B3FF083FB4FF19
:105D40000853B5FF0833B6FF10256D000455000059
:105E00000409000004010000000000000000000080
:105E10000C4368000C4268000C4168000C406800AC
:105E20000C4768000C4668000C4568000C4468008C
:105E30000C0874000C0974000C0A74000C0B74003C
:105E40000C0C74000C0D74000C0E74000C0F74001C
:105E50000C1074000C1174000C1274000C137400FC
:105E60000C1474000C1574000C1674000C177400DC
:105E70000C1874000C1974000C1A74000C1B7400BC
:105E80000C1C74000C1D74000C1E74000C1F74009C
:105E90000C2074000C2174000C2274000C2374007C
:105EA0000C2474000C2574000C2674000C2774005C
:105EB0000C2874000C2974000C2A74000C2B74003C
:105EC0000C2C74000C2D74000C2E74000C2F74001C
:105ED0000C3074000C3174000C3274000C337400FC
:105EE0000C3474000C3574000C3674000C397400DA
:105EF0000C3A74000C1A74000C1B74000C00740033
:105F00000C00740000000000000000000000000011
:105F10000000000000000000000000000C1D6D00EB
:105F20000C1E6D000C1F6D000C206D000C256D000B
:105F30000C266D000C8068000C8168000C826800E3
:105F40000C8368000C8868000C8968000C8A680063
:105F50000C8B68000C8C68000C8D68000C426A0089
:105F60000C436A000C446A000C456A000C466A0047
:105F70000C476A000C486A000C496A000C0C6A0065
:105F80000C1D6A000C1E6A000C3D6D000C3E6D007D
:105F90000C0F6D000C0268000C0368000C04680014
:105FA0000C0568000C0068000C0168000CFD150071
:105FB0000C5F6D000C606D000C616D000C626D007B
:105FC0000C636D000C646D000C656D000C666D005B
:105FD0000C676D000C2168000C2068000C22680022
:105FE0000C4A6A000C4B6A000C4C6A000C4D6A00AB
:105FF00004550000FFFFFFFFFFFFFFFFFFFFFFFF54
:10600000080000FF080101FF080102FF08FF03FF6D
:10601000080004FF080305FF080106FF08FF07FF4B
:10602000080008FF080309FF08010AFF08FF0BFF2B
:1060300008000CFF08030DFF08010EFF08FF0FFF0B
:10604000080010FF080311FF080112FF08FF13FFEB
:10605000080014FF080315FF080116FF08FF17FFCB
:10606000080018FF080319FF08011AFF08FF1BFFAB
:1060700008001CFF08031DFF08011EFF08FF1FFF8B
:10608000080020FF080321FF080122FF08FF23FF6B
:10609000080024FF080325FF080126FF08FF27FF4B
:1060A000080028FF080229FF08022AFF08FF2BFF2B
:1060B00008002CFF08022DFF08042EFF08FF2FFF09
:1060C000080030FF080C31FF080132FF08FF33FFE2
:1060D000080034FF080235FF080536FF08FF37FFC8
:1060E000080038FF080239FF08033AFF08FF3BFFAA
:1060F00008003CFF08033DFF08013EFF08FF3FFF8B
:10610000080040FF080741FF080142FF08FF43FF66
:10611000080044FF080745FF080146FF08FF47FF46
:10612000080048FF080749FF08014AFF08FF4BFF26
:1061300008004CFF08074DFF08014EFF08FF4FFF06
:10614000080050FF080751FF080152FF08FF53FFE6
:10615000080054FF080755FF080156FF08FF57FFC6
:10616000080058FF080759FF08015AFF08FF5BFFA6
:1061700008005CFF08075DFF08015EFF08FF5FFF86
:10618000080060FF080761FF080162FF08FF63FF66
:10619000080064FF080765FF080166FF08FF67FF46
