@ba99 ; Affinity 
@bb01 ; MemBank 
@bc03 ; Command 
:020000020A00F2
:1000000088C0FFCF81E084C082E082C083E080C0EE
:1000100084E07EC085E07CC086E07AC087E078C05E
:1000200088E076C089E074C08AE072C08BE070C05E
:100030008CE06EC08DE06CC08EE06AC08FE068C05E
:1000400080E166C081E164C082E162C083E160C09A
:1000500084E15EC085E15CC086E15AC087E158C09A
:1000600088E156C089E154C08AE152C08BE150C09A
:100070008CE14EC08DE14CC08EE14AC08FE148C09A
:1000800080E246C081E244C082E242C083E240C0D6
:1000900084E23EC085E23CC086E23AC087E238C0D6
:1000A00088E236C089E234C08AE232C08BE230C0D6
:1000B0008CE22EC08DE22CC08EE22AC08FE228C0D6
:1000C00080E326C081E324C082E322C083E320C012
:1000D00084E31EC085E31CC086E31AC087E318C012
:1000E00088E316C089E314C08AE312C08BE310C012
:1000F0008CE30EC08DE30CC08EE30AC08FE308C012
:1001000001009FD903000000DE57EF6878293B60AB
:10011000FFCFA895F8942224EFE1F9E6EDBFFEBFEA
:100120002F98279A98D1A895E8EDE4BFE7E0E093EF
:100130000001B2D1B4D10DD123D267D12ED0A0E02D
:10014000B0E1C0E0D0EBE0E0F0E9099011900114DB
:1001500019F41197D1F71AC036D0E2E2FBE6C2E0FB
:10016000A9D0C2D0F9F744D0E2E4FBE6C1E0A2D0C6
:10017000C0E0D0EB7FD0E2E2FBE6C2E09BD0C0E083
:10018000D0E1C2E4DBE6E2E2FBE69AD048D0E2E46A
:10019000FBE6C1E08FD08FEF97C0C2EAD1EAEAD187
:1001A000B6C11B5B33336D2E2E2E636F6D70617283
:1001B000696E67204E455720776974682043555211
:1001C0001B5B6D0A0D00CEECD1EAD4D1A0C11B5B44
:1001D00033336D2E2E2E636865636B696E67204224
:1001E0004C44206261636B75701B5B6D0A0D0000EF
:1001F000C8EFD1EABFD18BC11B5B33336D2E2E2EDE
:10020000696E7374616C6C696E67206E65772042ED
:100210004C4420636F64651B5B6D0A0D0000C6E2F1
:10022000D2EAA8D174C11B5B39326D2E2E2E636CBD
:1002300065616E75701B5B6D0A0D00000C941000FB
:100240000C9411000C9412000C9413000C941400E4
:100250000C9415000C9416000C9417000C941800C4
:100260000C9419000C941A000C941B000C941C00A4
:100270000C941D000C941E000C941F000C94200084
:100280000C9421000C9422000C9423000C94240064
:100290000C9425000C9426000C9427000C94280044
:1002A0000C9429000C942A000C942B000C942C0024
:1002B0000C942D000C942E000C942F000C94300004
:1002C0000C9431000C9432000C9433000C943400E4
:1002D0000C9435000C9436000C9437000C943800C4
:1002E0000C9439000C943A000C943B000C943C00A4
:1002F0000C943D000C943E000C943F000C94400084
:100300000C9441000C9442000C9443000C94440063
:100310000C9445000C9446000C944700F89463D06C
:10032000F89473D00C946811F89453D064D00C9462
:1003300068110E942D12F894A895FFCF0C946A11B1
:1003400029928A95E9F708952082218222822382C8
:100350000895E2E4FBE60E945611C2E2D9E60E944B
:100360005811E2E2FBE60E945611C2E2D9E60C9473
:100370005811E2E4FBE60E945A110C944A111FD076
:1003800005FE0EC001800DC01AD006FE09C0018016
:100390000AC015D007FE04C0018007C010D039F094
:1003A0000895000C111C000C111C000C111C108273
:1003B0000FB6F8942182228223820FBE0895118005
:1003C000100C11821280121C12820380039403828B
:1003D0000895C0E0D8E6AAE1B0E01FC0C0E0D8E6CA
:1003E000AEE1B0E027C0C0E0D8E680E4A9DFEFEFDF
:1003F000E0931F680895C0E4D8E6AAE3B0E00DC01A
:10040000C0E4D8E6AEE3B0E015C0C0E4D8E680E8CA
:1004100097DFEFEFE0937F6808950E942A11F001C3
:10042000A095B095C095D095A083B183C283D383A6
:10043000248208950E942A11F00180830895E2E049
:10044000F2E000C0EF23F095009020690F22E02930
:1004500006C0E0E004C0EFEF02C0EBE000C0E093B4
:10046000206900C0E09120690C942811EF23F095D9
:10047000009021690F22E02908C0E0E006C0E5E510
:1004800004C0EFEF02C0E0E000C0E093216900C0CB
:10049000E09121690C9426114424552408952F9845
:1004A00008952F9A0895379904C0E5E5379B0C9479
:1004B000541100C0E0910408E7FF0895E09100089E
:1004C000E0930070089502D08CE23BC001D003C0DD
:1004D0008F93829501C08F938F70805D8A3308F06F
:1004E000895F2FD08F9108958AE02BD08DE029C0AD
:1004F0000F01451451F0F0910408F5FF06C0F1E733
:10050000E52DF081F09302085394F001089545140D
:1005100059F0F0910408F5FFFACFF1E7E52DF081ED
:10052000F09302085394F3CF0895C42DD1E70190BE
:10053000002029F00882C395C511F9CFCA954C2E29
:10054000D8CF0F01F201FA95EF1719F0F1E7808388
:100550004394CFCF8F938E2FF201FA95EF1719F0B6
:10056000F1E7808343948F9108958991ACDF9A9548
:10057000E1F708958991821188130895E2DFFACF97
:10058000C8E8D5EAF7DFC3CF0A0D1B5B34336D2E05
:100590002E2E5B5550445D1B5B6D0A0D0000FFFF66
:1010000087C0FFCFFFC7FFCFFFC7FFCFFFC7FFCF0F
:10101000FFC7FFCFFFC7FFCFFFC7FFCFFFC7FFCF80
:10102000FFC7FFCFFFC7FFCFFFC7FFCFFFC7FFCF70
:10103000FFC7FFCFFFC7FFCFFFC7FFCFFFC7FFCF60
:10104000FFC7FFCFFFC7FFCFFFC7FFCFFFC7FFCF50
:10105000FFC7FFCFFFC7FFCFFFC7FFCFFFC7FFCF40
:10106000FFC7FFCFFFC7FFCFFFC7FFCFFFC7FFCF30
:10107000FFC7FFCFFFC7FFCFFFC7FFCFFFC7FFCF20
:10108000FFC7FFCFFFC7FFCFFFC7FFCFFFC7FFCF10
:10109000FFC7FFCFFFC7FFCFFFC7FFCFFFC7FFCF00
:1010A000FFC7FFCFFFC7FFCFFFC7FFCFFFC7FFCFF0
:1010B000FFC7FFCFFFC7FFCFFFC7FFCFFFC7FFCFE0
:1010C000FFC7FFCFFFC7FFCFFFC7FFCFFFC7FFCFD0
:1010D000FFC7FFCFFFC7FFCFFFC7FFCFFFC7FFCFC0
:1010E000FFC7FFCFFFC7FFCFFFC7FFCFFFC7FFCFB0
:1010F000FFC7FFCFFFC7FFCFFFC7FFCFFFC7FFCFA0
:1011000001009BD901000000DE57EF687222C3FE88
:10111000A895F8942224E8EDE4BF20921001E8EDB0
:10112000F1E0E4BFF0936200EFE1F9E6EDBFFEBF4E
:10113000E0E0F9E6C0E0DAE021922197E9F7AFD4E8
:1011400009F0B2D4BED409F0C1D4EFB3E093026881
:10115000E0910468E395F999E0930468E0910368ED
:10116000E395FB99E0930368E0910068F0910168D2
:101170003196E0930068F09301688CD4489A409AC5
:10118000E0E2F8E02682A0E8B1E0A087B1872582FE
:10119000A3E0A783A0E4A683A9E0A093000A20927D
:1011A000200A2092210AAFEFA0930C0BA0930D0B05
:1011B000A1E0A093000B2092010B209274042092D6
:1011C000760464986698C9D4C8D424D4C6D4E0916F
:1011D0007F68E21175C0E0915068E2110CC370C0E5
:1011E0000C9410000C9411000C9412000C94130039
:1011F0000C9414000C9415000C9416000C94170019
:101200000C9418000C9419000C941A000C941B00F8
:101210000C941C000C941D000C941E000C941F00D8
:101220000C9420000C9421000C9422000C942300B8
:101230000C9424000C9425000C9426000C94270098
:101240000C9428000C9429000C942A000C942B0078
:101250000C942C000C942D000C942E000C942F0058
:101260000C9430000C9431000C9432000C94330038
:101270000C9434000C9435000C9436000C94370018
:101280000C9438000C9439000C943A000C943B00F8
:101290000C943C000C943D000C943E000C943F00D8
:1012A0000C9440000C9441000C9442000C944300B8
:1012B0000C9444000C9445000C9446000C94470098
:1012C000C0E4D8E68DDFF993E9938CDFF993E993D5
:1012D00097DFE4E4F8E6D193C193B193A193A09191
:1012E0004768AF77A16020925069A093516915D3E8
:1012F000A0910091B0910191B883A983AFEFBFEFA6
:10130000E09102A1EF3941F4E09103A1E93D21F41C
:10131000A09100A1B09101A1BA83AB832C8203D329
:10132000288229822A822B822C8200D3E0E0F1E9F4
:10133000A081B181B883A9839BB781E08BBFA081D5
:10134000B1819BBFBA83AB832C82E8EEF3E0E093DC
:101350002369F09324690091FE154427E0914468C5
:10136000E093256921E09DC19091366980E0FA8182
:10137000943081F08B81953069F031FD7BC18D8196
:10138000983009F07BC1EA81E0932068EB81E0931B
:101390002168FC81F09322682092236920922469BD
:1013A0005DD123E083C2F6D18E8180934A688F811C
:1013B00080934B68888580934868898580934968C5
:1013C0008A854CD127E076C2EAD127E07FC2E7D1F7
:1013D000909136699D3080E090E011F09B858C857E
:1013E00090934E6880934F68888580934C68898578
:1013F00080934D688A8582FD04D283708093506803
:1014000028E071D2809150688211EED14AC190914A
:101410003669953011F0983011F4EA8116C0973092
:1014200011F09A3019F4C0D1EC810FC0993011F04D
:101430009C3019F4AFD1EE8108C09B3011F09E3082
:1014400019F4ADD1E88501C019C1EC3080F4F0E0A9
:10145000E55DF54F0994D3C0D3C0D4C0D4C0D3C088
:10146000D2C0D5C0D5C0DBC0E1C0E9C0EEC019C153
:101470009BD18C818093A46B38854985823011F48F
:1014800030FD0FC128E1E19A30FD31D230FF32D278
:10149000C7E0E4E8FBE6E0DEC091A46BE1D1DCDE6E
:1014A000DAD08E819F81D5D1EDEEDE2EE8EBCE2E07
:1014B000E3E8BE2EE0E2AE2EEFEF9E2E8E2E7E2EC5
:1014C0006E2EB4D1EEC070D10C8009140D800804CA
:1014D0000E8007040F80060428E211F428E4A6D148
:1014E000D3C162D128E7ADD1D6C15ED128E5D3C141
:1014F0005BD128E03E7F4427C7C156D1B1D190913E
:101500003669963019F08C8130FDAEDE30FDB0DEEC
:10151000C8C030FDADC090913669933009F405C064
:10152000953011F441D101C0A9C09AD17FDE8093DA
:10153000486911D07BDE809349690DD077DE8093B6
:101540004A6909D073DE80934B6905D092959095D6
:1015500090934C69F8C1991F90FD08950894879560
:1015600082D18695E9F7089530FF82C0909136695F
:10157000933009F420C0953011F416D11CC09B3073
:1015800011F4229606C09D3019F40ED1249601C0A4
:1015900075C078E069910894679565D16695E9F71B
:1015A0007A95C1F7A8E0B0E02897E4E8FBE656DEBC
:1015B000A8E0B0E01BC0CFD081F478F0A0E0B2E7A3
:1015C00060E8C9D011F4E8F748F08FB74CD18FBF6D
:1015D0006795B8F76D93A13898F363C0A050B247F0
:1015E000C0E0D2E7E4E8FBE639DE00C0C4E8DBE6B1
:1015F00037D130FD37DE30FD41DE53C052C05FC110
:101600005DD13ACE5CC15AD1EFD002E04AC05BC195
:101610009E3009F046C056D123D13CDE42C09E30F8
:1016200009F03FC04FD11CD133DE3BC047D1C1E0F0
:1016300001D2CF3919F4D93D09F4E3D41DCE3ED1FE
:10164000C1E00ED109DE8FEF11CE38D1C3E008D151
:1016500003DE8FEF0BCEC6E2D9E6089590910A0B18
:10166000982392111EC0089584E40CC082E50AC03C
:101670008DE408C083E406C085E404C08CE402C0A5
:1016800084E500C06AD20DC0C0912369D09124695D
:10169000219738F0C0932369D093246911F4B1D015
:1016A000B3CFEFE1F9E6EDBFFEBF57D256D2AFD0D0
:1016B0002CBA6AE050D01130A1F76A95D9F74BD017
:1016C00081F7E8F3913808F43094C5DF7727EE27E7
:1016D00061E041D0A9F6661FE0F769937627C6332B
:1016E00068F639D069F620F0E627FFE8E081F0CF10
:1016F0007211C2CFE09337693D7FE2113260C6526A
:10170000C0933669A8DFE881ED3F69F000FD7CCF2A
:10171000F981EF2BEA81EF2B29F4E0913669E33070
:1017200009F472CFB1CF6981603F08F4BACF6F700E
:10173000EEE8F9E9660F660FE60FF21D019002224E
:1017400009F496CF019000FE02C031FD93CF0190C5
:101750001080F0010994A89511270EB0032404FE0F
:10176000FCCF9091200A2092200A2092210A0EB0EC
:10177000032404FCFCCF8091200A2092200A2092AE
:10178000210A8D31111F813810FD8F30111F012E5C
:1017900006940895E0E4F8E684E01DD00CC0E4E48B
:1017A000F8E686E018D007C00FD029F00AD019F06B
:1017B00005D009F00CD0821174CF0895EAE4F8E660
:1017C00009C0E8E4F8E606C0ECE4F8E603C0EEE49D
:1017D000F8E600C082E0DE01129601901D9001142F
:1017E00011F48A95D1F70895C1E024D1CF3911F4CD
:1017F000D93D09F00895B1D1E09105A1E0FD01D0F6
:10180000FFC3E8EDE4BFE5E8E09301100895F0E4DC
:101810004211F0E1E0914801E0914901EF23E2112A
:1018200003C000C077D18AC179D18EC117D00E0113
:1018300012DF6A8A7B8A8C8A9D8A0F8A188E298E8B
:10184000089509DF6A887B888C889D888F89988DA8
:1018500000C006D0E7DCC80FD91FDECC01D014CD04
:10186000E4E6FBE6089530F09694879477946794C5
:1018700030F009C0969487947794679420F09D2463
:101880008C247B246A24089554D0988289827A8299
:101890006B822C8259C0E2DFDE018091A46B49D0BB
:1018A00088832982BA83AB832C824EC0E0E4F8E6B9
:1018B00092E045C0E4E4F8E690E041C0E19A33D01C
:1018C00024D042C0E19A32D020D03EC029D03CC0C2
:1018D000E19A32D0ED01ECE3E883E983EA83EB831C
:1018E000EC83ED8334C0E19A18D00FD02DC0CEEC3C
:1018F000D9E92AC0C091A46BC5DCDE011AD00882E8
:10190000B983AA832B822C821FC0E0910110E4705E
:10191000FC81FB7FFE2BFC830895C5E5D9E6089585
:10192000C0E5D9E60895CAE5D9E60895CFE5D9E638
:101930000895C8E4D9E60895A0E4B9E60895F9DF6A
:1019400084E05AD09883F5DFF7DFAADC00C097E780
:1019500012D09DEA10D0F0DF86E09091240895FF28
:10196000FCCF9D91909322088A95B9F78AE2F5D031
:10197000E19B97CE08950090200A0916E0F320928B
:10198000200A2092210A749B769970CE0895010056
:10199000B4090201D3090401E4090401E7090000C4
:1019A000FE0A0000FE0A0000FE0AFF01070A080105
:1019B000380A7001630A2001710A4001750A10019A
:1019C000780A10017D0A1000890A1000B40A02008A
:1019D0003214FFFFF89468D0F89478D00C943A0948
:1019E000F89458D069D00C943A090E948E0DF8945E
:1019F000A895FFCF0C943C09019009928A95E1F7D4
:101A0000089529928A95E9F70895208221822282F9
:101A100023820895E4E8FBE60E942809C4E6D9E69B
:101A20000E942A09E4E6FBE60E942809C4E6D9E6FA
:101A30000C942A09E4E8FBE60E942C090C941C098A
:101A40001FD005FE0EC001800DC01AD006FE09C0D1
:101A500001800AC015D007FE04C0018007C010D065
:101A600039F00895000C111C000C111C000C111C05
:101A700010820FB6F8942182228223820FBE08952D
:101A80001180100C11821280121C128203800394A8
:101A900003820895C0E0D8E6AAE1B0E01FC0C0E02C
:101AA000D8E6AEE1B0E027C0C0E0D8E680E4A9DF28
:101AB000EFEFE0931F680895C0E4D8E6AAE3B0E032
:101AC0000DC0C0E4D8E6AEE3B0E015C0C0E4D8E68F
:101AD00080E897DFEFEFE0937F6808950E94FC08AD
:101AE000F001A095B095C095D095A083B183C28335
:101AF000D383248208950E94FC08F0018083089516
:101B0000E2E0F2E000C0EF23F095009020690F22A0
:101B1000E02906C0E0E004C0EFEF02C0EBE000C047
:101B2000E093206900C0E09120690C94FA08EF234B
:101B3000F095009021690F22E02908C0E0E006C07E
:101B4000E5E504C0EFEF02C0E0E000C0E0932169EA
:101B500000C0E09121690C94F8080895FFFFFFFF91
:00000001FF
; 
; *** EOF 
